:20000000002C00202DBB0000FDC90110FDC90110FDC90110FDC90110FDC90110FDC90110A2
:1C002000FDC90110FDC90110FDC90110FDC90110FDC90110FDC901103BCA0110A4
:20003C00000000006B95000000000000F5940000E00900000FC046C0AD040021490400211D
:20005C007D04002181040021110500219105002141060021F8B51047F8B50E46002101259A
:20007C00AD0430470A48037800F00FF89B070BD0124C2078FF2807D0FF2121700E490F24CC
:20009C00240220436031C882F8BDF8B5014800476B020021E54C0000094801E00848000CA1
:2000BC00064C05492278FF2A01D1CA7A22706031C8827046801C004700620840A406002130
:2000DC00070F0808F0B4084770B503461546012906D0002906D0114A2846FFF7BBFF70BD7D
:2000FC000F4800E00F480524834203D84008641E002CF9DCE340012040031818820B012954
:20011C0007D00649002380312846FFF7A5FFE0B270BD0249044B6C31F6E70000835C00000F
:20013C00A0BC862300830D2374060021F8B51A4E0546716B1948CC09E401002D11D018498A
:20015C00097802290FD0007B044372B60120154F4002B847114820380088C109C90704D0A1
:20017C0016E0C07AF0E7407BEEE70F497463CC61400AC0070CD001208003316B002D01D045
:20019C00014300E08143084631630749403948630020B84762B6F8BD8002002188000021CD
:2001BC009B0200217B3F00004040044010B5224A0021516121498968C90009D42149204B0D
:2001DC00CA0598424B6B01D8134300E093434B631D49FFF777FF10BD38B51A4D287F00284F
:2001FC0027D11A480088C009C00722D1124C606900281ED1684600F045F868460078012816
:20021C0017D168464078102813D208206061686A4009400120600E4A0021D1620D4A02216C
:20023C001160012108432060032108436862206038BD0948804738BD0040044018000021CC
:20025C000000930880020021CF680000680000210011044080E200E0C33B00000749002877
:20027C0000D00420064A72B60978C90701D0105800E0802062B640B2704700006B0200219D
:20029C005860044003B40148019001BDA56F000000000000010003000A001F005900EB0072
:2002BC003902EA04F9099712EB1FA132784A0A66FA828C9E63B617C964D6EDDEC1E3E0E532
:2002DC00FF000000A36100007F1407134D00F1242E1F133FB00A3F0007FF000030400040A2
:2002FC000140034007400F404F40CF40CF41CF43CF47CF4FCF3FCF2FCF1FCF0F00000000FC
:20031C000F00080000003F00000040003F000000040068000E00DC00060043001A0005002E
:20033C0000000000020000003F00000000000400C00000000400C0000000070050C0009130
:20035C00007070C00091007082312100319110B10070018101B100A18231329110B101917B
:20037C001110418141224F40F106007051C0019130181039833108D01831416F3100319179
:20039C0010B1831414165B680070251050C00091F4C3C0C02014036F3110410422C08231BE
:2003BC002100319110B163393110410482C082312100319110B163393110A2C082312100AF
:2003DC00319110B1501015310514059200703F6452C0311031066131C102426412C131107C
:2003FC00213971065131E102426400708A65996588C0208250398039001E9F4041C001304D
:20041C001814181A89C0308260398039001EA94041C001301914191A3C64369110B134918F
:20043C0010B154B0007154A064B0F0800022AF404012B09032B053825339533985643F64F4
:20045C0011C122C1426470C1C26811C1C2C0426470C1C76850C000912772989215161416B7
:20047C0042105310F0C12182313131398139313151B070B272652772999270B2621073109A
:20049C00F0C331822131213981391B107265E2C08231608280318039020061B0007132918A
:2004BC0010B151A061B0277230C2F36800008012B09032B0007050C000912772999262107C
:2004DC007310F0C3318221312139813951B070B27E652772989270B242105310F0C12182BD
:2004FC0031313139813931311A107E6551A061B02772B0C018693F6401C122C1426401C1AF
:20051C00C2C04264151A3C64359110B153828564C012B09032B000703F6472C281C0426461
:20053C0022C111C1426402C011C1426462C031C3426462C311C1426402C311C1426453829F
:20055C0053398564E2C347641122404142C281C8426452C211C1426472C2E1CE426402C23A
:20057C0081C8426402C201C84264B0C0546900703F6442C201C8426452C211C0426472C2CB
:20059C00E1C0426402C001C1426462C001C3426422C101C1426462C301C1426402C301C1E3
:2005BC00426453828564007061B000711214231C7A4D339110B10070329110B172690070D9
:2005DC0061B000711318321C8649329110B10070339110B17E690070C2C047641510C2C091
:2005FC001216476441311514C0C0803105145410A07804040070E6C0863101CC1614671068
:20061C006182F0C3010417140070067305720B720E7250B00071818060B050A092804122B4
:20063C00C3458080F1C11004301601110114016CD661D761D861D961DA61DB61DC61DE6121
:20065C00E061E261E461366339639180F2C0210421318280422A1214321601112114016CB6
:20067C00EE610B62F4613963EE610B62F4613963E661E661E661E661E661E6619464E6611B
:20069C00F964E6612A65E6615665E6614667E6611012B0900E720673057210123090A76112
:2006BC00F0CF3C67D4C103C0C0C35464407850915078109260782092707830928078409228
:2006DC00907860923078909110824039F00601101031101400924267E661BCA0E2A054A070
:2006FC00F08050221546408000222B470D6240A02D828D318D391082F1C0100409101A82BF
:20071C004A391A041082803910040E10AB10BC10C21063642972E0CF3C6713B003B0C866EE
:20073C0053B050B054B064B013B0A5661082E0223846AE660071418001222B47F080102225
:20075C004B46F022184764B03122384263B0CE661082E02238467066386264B06F818F310D
:20077C008F3DD0DFFF923C670071418001222B4764B0F0805022654263B01182C12260461B
:20079C00CE6605671182D122524670665262618172818131813D8231823DC0EFF192029377
:2007BC003C670B62B081C091D381978290A2D3187F4EF30B1316E31CA44AC391E3813B1419
:2007DC009062BA1C8B46231E8B4AE31C8B4E90B207228B4290A21B1A9662E31CA44AC3919E
:2007FC00E3813B18AB1CA04E9B1CA24ABC1CA442B2101082D0229D42F0801022A446636498
:20081C00A566A462AB1094629B10946200703082F1C0100463B00071A86ABC10E0B0007010
:20083C00B281C291D281018212185181121841828131813D121CBF4AE2B032B0B0DFF29229
:20085C003C67F1C72114C34E12C86291729131B0E1B0007008C006C000C860917091007071
:20087C000182B081C091D0811018518110180614E18042828231823D201CE44AE2B02122F4
:20089C00E84632B00510A0DFF5923C672122E842E2A032B031824139F0C00104011EF64264
:2008BC00181610C01030081C04476010103C0610F1C76114FA4E16C8669171818131813DF1
:2008DC00161C014B769131B006C008C0007061818131813D408280390118F11C174B01142E
:2008FC00B080C0221747BCB033B090EFF1920F933C67007003A063B064B0EFB056650071D1
:20091C00408000222B4764B02A65EFA00071408000222B4764B003B03862018262818231F6
:20093C00823D80EFF19202933C6703A05665E661A2806364E66150B00071E661E092D08261
:20095C0000223D47C0B20070A080F022594330B002C1623101C0A080001E5243F0225343B3
:20097C00A0F56031603953632010101A136F236E11161216546B0070B19900009D8F000085
:20099C00DD7800006D9A00009DBA00002D6F0000F9C9000015A90000D5C8000011C70000F7
:2009BC00F9C60000E5B000004D9F000079C2000091A8000049AF000055BA0000B1AF000000
:2009DC0065C500000E3FA70C18B80BDA500AD33809CD2C08CB2407C92006C71C05C61804FE
:2009FC00C51803C41402421001C310004100F6C008000000FDB5000065C10000A58E0000F1
:1C0A1C00F1C9000049CA000085A7000011C10000DD8300004185000019CA0000EA
:200A380001E000000300000020030000BF5000000949000023490000515000000D500000CC
:200A5800DD4F0000CF4F0000B74F0000AB4F0000194F0000DD4C00008D4F0000F95000007E
:200A7800994E0000874E0000834E0000774E00006B4E00005D4E00004F4E00001B4E0000A2
:200A98000D4E0000F34D0000E94D0000B14D00009F4D00004F7600000B76000029510000C3
:200AB800094C00002B520000F34B0000D3750000BB75000075750000A34B00003975000010
:200AD8002B750000614B000000000000000000002175000011750000054B00000000000046
:200AF8008F3F00008F3F01008F3F02008F3F0300903F00018F3F0101903F0002903F00035D
:200B18008F3F01048F3F00058F1208048F3F00048F3F0006513F00007F3F01003F3F0400F3
:200B38003F3F02003F3F01007F3F02007B756E6B6E6F776E2D696E7374616E63652D6E61D5
:200B58006D657D007B656D7074792D696E7374616E63652D6E616D657D00C0467B737461EE
:200B78007469632D696E7374616E63652D6E616D657D00C000000000200000004000000030
:200B98006000000000000000080000000000000006000000020000008600000082000000C5
:200BB800000000000800000010000000180000002000000006088080070880800D2007C0BC
:200BD8000E2007C01400C080024000800300C0800108C08009400080084000800A4000800B
:200BF800FE0000000DAA00004DB5000029C70000557C0000299B000025CA0000C1AC000045
:200C1800A98D00002BCA00005DA5000000000000FFFFFFFFFFFFFFFF000000000000000097
:200C38000101010100C2010003000000000000007BC80110C5BC0110D9B2011033C201104A
:200C5800BDAD0110C1B101106DBA011065BB01101DC00110FC0B0000601B0020840C0000F5
:200C7800000000000000000000000000001000400600000015000000FF00000005000000ED
:200C98000302FFFF00000000F5980000A1AD000001010100FFFF000001000000000000005C
:200CB8000000000000000100000000003C1D0020D40C000000000000000000000040024040
:200CD8000B00000027000000FF000000FFFFFFFFC4090000010000000301020000000600F5
:200CF8000100000041B5011095A6011015B80110FFFFFFFFFFFFFFFFFF00000000000000B3
:180D180000000100000000000F0000000A000000C00C002049C50000AF
:201000003C000000000000000000000034100000000000000000000001000000000000004F
:1C10200000000000000000000000000001000000000000000800000000000000AB
:20103C003400000000000000000000006810000000000000000000000100000000000000E7
:14105C00010000000000000000000000080000000000000077
:2010700030000000000000000000000098100000040000000000000001000000FFFFFFFF87
:10109000FF00000001000000080000000000000048
:2010A0002C0000000000000000000000C4100000040000000000000001000000FFFFFFFF2F
:0C10C000FFFFFFFF080000000000000020
:2010CC0038140000E410000095A1011091A70110A1C2011009B2011041B8011000000000EA
:0810EC00000000002D000000CF
:2010F400280000000000000000000000141100000000000000000000FFFFFFFF0000000093
:081114000800000000000000CB
:20111C00341400003011000065C2011069C101101BC2011091BA011000000000000000006D
:04113C002F00000080
:20114000341400005411000071C20110A5B6011099BF011045B601100000000000000000BD
:04116000300000005B
:201164002400000000000000000000008011000000000000000000000000000008000000AE
:041184000000000067
:20118800240000000000000000000000A41100000000000000000000000000000800000066
:0411A8000000000043
:2011AC00240000000000000000000000C8110000000000000100000000000000080000001D
:0411CC00000000001F
:2011D00000000000500C0020040000000000000000000000200000007010000030000000AF
:2011F0001C1100007C0C00200400000000000000000000000C00000030130000180000009F
:2012100040110000880C00200400000000000000000000002400000048130000180000001E
:2012300000000000900C002004000000000000000000000010000000A01000002C000000F2
:20125000CC100000980C002004000000000000000000000020000000641100002400000021
:20127000FFFFFFFFB80C002004000000000000000000000028000000881100002400000095
:20129000FFFFFFFFE80C0020040000000000000000000000580000003C1000003400000052
:2012B000FFFFFFFFF00C002004000000000000000000000010000000601300001800000067
:2012D000FFFFFFFFF80C00200400000000000000000000001C000000AC11000024000000DD
:2012F000FFFFFFFF000D002004000000000000000000000038000000F4100000280000004D
:20131000FFFFFFFF080D002004000000000000000000000054000000001000003C000000E8
:1813300018000000000000000000000040130000080000000000000032
:1813480018000000000000000000000058130000080000000000000002
:18136000180000000000000000000000701300000800000000000000D2
:08137800010000002C0D000033
:041384000100000064
:0413880000000C0055
:04138C0000000D0050
:041390003200000027
:041394000100000054
:04139800580C0020CD
:04139C00000200004B
:0413A0005B9100005D
:0413A400FDC901106E
:0413A8000000000041
:0413AC00000000003D
:0413B0000800000031
:0413B4000000200015
:0413B800EC0E002017
:0413BC00010000002C
:0413C000A00C00205D
:0413C400080000001D
:0413C8000000000021
:0413CC00000000001D
:0413D0000000000019
:0413D400080000000D
:0413D8000000000011
:0413DC00000000000D
:0413E0000100000008
:0413E400B80F00201E
:0413E80006000000FB
:0413EC0001000000FC
:0413F000100E0020BB
:0413F40000000000F5
:0413F80000000000F1
:0413FC0000020000EB
:0414000000000000E8
:021406002900BB
:021408000100E1
:02140A002500BB
:02140C002F00AF
:02140E003000AC
:021410002D00AD
:021412000100D7
:0114140001D6
:0814180003000000FC0C0000C1
:081420000000000000000000C4
:0414280000000100BF
:04142C0000000300B9
:0414300083C4011060
:041434003C14000064
:041438003C14000060
:04143C0000000000AC
:041440008000000028
:041444008000000024
:0414480000000000A0
:04144C00A00C0020D0
:0414500079C8000057
:041454002000000074
:04145800B00C0000D4
:04145C00480C000038
:0414600009C30110AB
:0414640053B600007B
:0414680037BE00008B
:04146C0095C801100E
:0414700097C8011008
:041474000000000074
:04147800C20C0000A2
:04147C005C0B000005
:04148000740B0000E9
:04148400440B000015
:0214880008005A
:02148A00090057
:02148C0001005D
:02148E0000005C
:01149000015A
:041494000000000054
:041498000000000050
:04149C00000000004C
:0414A0000000000048
:0414A40061CA000019
:0414A80091BD0000F2
:0414AC0005C2000075
:0414B00001C0000077
:0414B400D5BE0000A1
:0414B80031C000003F
:0414BC00ADB10000CE
:0414C0002FC9000030
:0414C40041B400002F
:0414C8000DC801103A
:0414CC001DC8011026
:0414D0000800000010
:0414D40024000000F0
:0414D80018000000F8
:0414DC0028000000E4
:0414E00020000000E8
:0414E4003C000000C8
:0414E8000C000000F4
:0414EC0034000000C8
:2014F0001346024610B5803A132A3ED8DFE802F032302E2C2A2826243D3D211E1B19163D18
:2015100013100D0A4FF4803226E04FF4004223E04FF4806220E04FF400621DE04FF40052A2
:201530001AE0082218E04FF4805215E04FF4007212E04FF480720FE040220DE080220BE0CE
:20155000202209E0102207E0042205E0012203E0022201E04FF48042E64C2468224204D026
:201570000A460146422006F00BFF10BD08B5007801216A468DF800009220FFF7B1FF08BDEC
:2015900008B5017840788DF800106A468DF8010002219020FFF7A4FF08BD0146852001F074
:2015B000A2B91FB5044620788DF80000607861688DF801000DF1020008F067FE218908F05F
:2015D00086FEA17A00F8011BE17A00F8011B217B00F8011B617B00F8011B216908F055FE64
:2015F000842010216A46FFF77BFF00901FBD0A680260496841600830704738B50D460446DB
:20161000287A04F8010B287A022804D02046FFF7EEFF044609E020460021082209F0B4F99D
:201630002988204608F053FE0834204638BD1FB5044621466846FFF7E0FF618908F047FE74
:20165000217B6A46017091200C21FFF749FF00901FBD0A6802604A6842600A7A083000F859
:20167000012B4A7A00F8012B897A0170704710B504462078ADF1280DA11C8DF800000DF161
:201690000100FFF7BAFF04F10C01FFF7B6FFE18A08F01DFE217E00F8011B04F11901FFF7A7
:2016B000D8FF8D2021216A46FFF71AFF0AB010BD08B5017840788DF800106A468DF8010055
:2016D00002218B20FFF70CFF08BD10B50446ADF1180D207861888DF800000DF1010008F097
:2016F000F6FD217900F8011B617900F8011BA17900F8011BE11DFFF7ACFF802011216A46FC
:20171000FFF7EEFE06B010BD08B5007801216A468DF800008E20FFF7E3FE08BD00B5034680
:20173000ADF1140D19466846FFF761FF03F10801FFF78FFF8A2013216A46FFF7D1FE05B0EE
:2017500000BD2DE9F047074697F8281097F838004D0097F830108046CE007119414426317E
:201770001FFA81FA71194018263080B201F0ABF85FEA00094BD0002100F8011B797800F83C
:20179000011BB96908F081FD391DFFF736FFF98908F09DFD398A08F09AFD0446B87C04F824
:2017B000010BF87C04F8010B387D04F8010B787D04F8010B387F07F11D0104F8010B20469C
:2017D000FFF747FF97F828000B3404F8010B97F8300004F8010B97F8380004F8010BF96AC6
:2017F0002A46204608F09EFC796B2D193246284608F098FCF96B4246701908F093FC832036
:2018100051464A46FFF76CFE484600F0E9FFBDE8F0870EB501218DF8001041788DF80110E6
:2018300090F828108DF8021090F829108DF8031090F82A108DF8041090F82B108DF8051030
:2018500090F82C108DF8061090F82D108DF80710C18D02AA104608F03AFD83206A460A21BB
:20187000FFF73EFE0EBD0178012902D019B9FFF768BFFFF7CEBF70471FB504462078A11C4A
:201890008DF800000DF10100FFF7B7FEA18908F01EFD87206A460C21FFF722FE00901FBDC6
:2018B00000B50346ADF1140D19466846FFF79FFE197A00F8011B03F10901FFF7CAFE8620B2
:2018D00014216A46FFF70CFE05B000BD1FB50446207861888DF800000DF1010008F0F7FC93
:2018F000211DFFF7B6FE82200E216A46FFF7F8FD00901FBD9010002010B50346ADF1180D87
:2019100019466846FFF773FE044603F1080001F0B5F803F10E0104F8010B2046FFF799FE61
:20193000812014216A46FFF7DBFD06B010BD0A6802604A680831426011F8012B027211F8AD
:20195000012B427209788172704708B58DF80010012201466B46622006F012FD08BD00B5FE
:201970008188ADF11C0D162918BF272119D181680DF10B000B46FFF73AFE0833184608F03D
:201990007BFCADF81400991C11F8010B002200B1012268468DF81620FFF7C9FF01F094F8A3
:2019B00001465120FFF7D1FF07B000BD00B58188ADF11C0D162918BF272116D181680DF174
:2019D0000B000B46FFF713FE0833184608F054FCADF81400991C11F8010B8DF816006846E7
:2019F000FFF7A5FF01F097F801465020FFF7ADFF07B000BD00B58188ADF1240D1E2918BF45
:201A1000272118D1836818788DF800005B1C13F8010B19468DF801000DF11300FFF787FF85
:201A300011220DF1020003F10B0108F07BFB684601F095F801464420FFF787FF09B000BD2C
:201A500008B58188022938BF272107D38068024608F012FC911C01F0EAF801464320FFF716
:201A700074FF08BD13460A460146622006F088BC00B50021ADF12C0DADF8001081880229DC
:201A900018BF272007D1806808F0F6FB6A460DF1030101F011F98DF80200002806BFBDF899
:201AB0000000401C0120ADF80000BDF800100DF102024220FFF7D6FF0BB000BD08B58088C3
:201AD00018B901F00DF9014600E027214120FFF73CFF08BD08B5808818B901F020F9014681
:201AF00000E027214020FFF730FF08BD10B58188ADF1200D202918BF272128D18068044638
:201B10000078002100B10121641C8DF8151014F8010B10228DF814002146684608F002FB32
:201B30001034204608F0E8FB241D049014F8010B21468DF816000A680DF117031A604A686B
:201B5000097A5A606846197201F0EBF801463820FFF7FBFE08B010BD1FB500210091818889
:201B7000012918BF27240AD180680078694601F00DF9009904460DF1050008F086FB8DF844
:201B900004403720052101AAFFF76CFF00901FBD08B58188012918BF272104D180680078B8
:201BB00001F019F901463620FFF7CFFE08BD08B5808818B901F02EF9014600E0272135207B
:201BD000FFF7C3FE08BD08B58188082918BF272103D1806801F03BF901463420FFF7B5FE3E
:201BF00008BD90B58188ADF1240D1D2918BF27213DD18068044608F03FFBA41CADF80000B7
:201C1000204608F039FBA41CADF80200214601A8FFF7EDFC04F10807384608F06DFB3C1D91
:201C3000069014F8017B002007B101208DF80C0014F8017B002007B101208DF81C0014F8BE
:201C5000017B002007B101208DF81D0014F8010B21468DF80D000A680DF10E073A604A687B
:201C7000097A7A606846397201F015F901463320FFF76BFE09B090BD08B58188022918BFD8
:201C9000272105D1806808F0F7FA01F045F901463220FFF75AFE08BD98B5074681380C46C5
:201CB000022810D9001F01280DD9801E09D0401E09D0401E012804D9801E14BFFF2002200F
:201CD00002E0082000E00120A188C91E814218BF272026D100F0F7FD021C08BF1A2020D00E
:201CF000A0683B46C11CA3F18100022815D9001F012812D9801E0BD0401E0ED0401E0128D2
:201D100006D9801E0BD1084608F0B6FA108006E0086810604F68576001E008781070A260BD
:201D3000002098BDD0B50446A088072818BF27201BD1052000F0C7FD071C15D0A068401CA9
:201D500010F8021B397010F8011B797010F8011BB97010F8011BF9700678002106B1012146
:201D700039710020A760D0BD1A20D0BD2DE9F0418046B8F80400182818BF272031D11C20D1
:201D900000F0A1FD071C08BF1A202AD0D8F80840641C14F8020B3870204608F06DFAA61CA7
:201DB000B880304608F068FAB51CF880294607F10800FFF71CFC05F1080414F8010B00210A
:201DD00000B1012107F1100502263976204608F093FA241D761E45F8040BF7D1C8F8087030
:201DF0000020BDE8F081B0B50546A888172818BF272017D1182000F066FD071C11D0AC68D5
:201E1000641C14F8020B102221463870781C08F089F904F1100008F06FFA7861AF6000205C
:201E3000B0BD1A20B0BD10B50446A088052818BF272014D1042000F046FD78B1A168491C29
:201E500011F8012B027011F8012B427011F8012B82700978C170A060002010BD1A2010BD17
:201E7000D0B50446A088062818BF27201ED1052000F029FD071C18D0A068401C10F8011B52
:201E9000397010F8011B797010F8011BB97010F8016B002106B10121F9700678002106B102
:201EB000012139710020A760D0BD1A20D0BD98B50446A0880D2818BF27201AD10C2000F0B2
:201ED00002FD071C14D0A068401C10F8011B397010F8011B79700268BB1C1A604168596091
:201EF000017A197210F8091FF9720020A76098BD1A2098BD01468888032812BF272000206C
:201F100088607047F8B50446A088032842D3A0680678304671382DD0401E012828D95E38F3
:201F300022D0401E1CD0401E16D0401E10D0401E0AD0401E04D030462146FFF7ADFE1CE0EF
:201F50002046FFF7EFFE18E02046FFF70FFF14E02046FFF748FF10E02046FFF764FF0CE094
:201F70002046FFF77DFF08E02046FFF7A0FF04E0F42710E02046FFF7BDFF071C0BD1A16887
:201F900030460D4601F001F8074625B1284600F027FC00E0272731203946FFF7D6FCF8BD5F
:201FB00070B5154606460446012D10D0022D09D0042D03D008F0B6F82C190BE0096808F0A2
:201FD00064F902E0098808F082F9044602E0087804F8010BA41BE0B270BD0B78024602F8B7
:201FF000013B4B7802F8013B8B7802F8013BCB7802F8013B097902F8011B121AD0B27047ED
:20201000B0B50C462178054600F8011BA18808F05EF9E18808F05BF904F10801FFF7E7FAFF
:20203000217E0227103400F8011B54F8041B08F02CF97F1EF9D1401BC0B2B0BD70B50C46D0
:202050000646054620781022611C05F8010B284608F068F8616905F1100008F016F9801B51
:20207000C0B270BD0B78024602F8013B4B7802F8013B8B7802F8013BC97802F8011B121AFB
:20209000D0B270470B78024602F8013B4B7802F8013B8B7802F8013BCB7802F8013B0979C9
:2020B00002F8011B121AD0B2704710B50B78024602F8013B4B7802F8013B8B1C1C68146037
:2020D0005C6854601B7A1372C97A093202F8011B121AD0B210BDF8B5818803297AD180683A
:2020F0000778451C1A2438467138022870D95F3813D0401E09D0401E0DD0401E09D0401E97
:2021100005D0401E18BF082008D1052006E01C2004E0182002E0042000E00C2000F0D3FB71
:20213000061C53D03846D038022803D9C01E022802D903E068787070287830703846314603
:202150006A4600F02BFF041C3DD1BDF80000401C80B200F0B8FB051C34D0394600F8014BA9
:20217000D03923D0491E1DD0491E17D0491E11D0491E0BD0491E05D09DF800203146FFF7C9
:202190000FFF16E03146FFF728FF12E03146FFF737FF0EE03146FFF751FF0AE03146FFF700
:2021B00061FF06E03146FFF76DFF02E03146FFF77CFF411C2A463020FFF754FC284600F065
:2021D0000FFB00E01A24304600F00AFB1CB9F8BDF42400E0272430202146FFF7B6FBF8BD7C
:2021F0008088012814BF272126210F20FFF7ADBB08B58188012918BF272104D1806800786B
:2022100000F0D5FE01460E20FFF79FFB08BD08B50246107A022805D0032807D11046FFF744
:20223000E6F908BD084608F027F8108008BD10B58188ADF1180D162918BF272116D184686E
:2022500020788DF80800641C68462146FFF7DFFF0834204608F010F8ADF80A00A11C03A827
:20227000FFF765FB684600F0C3FE01460D20FFF76CFB06B010BD00B58188ADF12C0D28295F
:202290004ED1836818788DF811005B1C13F8010B8DF8120013F8010B8DF8130013F8010B13
:2022B0008DF8140013F8010B04288DF8150007DD9DF81100032803D010B104208DF8150091
:2022D00013F8010B002100B101218DF8161013F8010B8DF8170013F8010B8DF8180013F8C6
:2022F000010B002100B101218DF8241013F8010B8DF82500184607F0BFFF9B1CADF82600BF
:2023100019460DF11900FFF712FB112203F10B01684607F007FF684600F0A0FE014600E0F3
:2023300027210C20FFF711FB0BB000BD08B501468888002808BF272105D089680878491CA9
:2023500000F0E0FE01460920FFF7FFFA08BD00B50021ADF1140DADF800108188012918BF27
:20237000272006D1806800780DF103016A4600F0CFFE8DF80200002806BFBDF80000401CDB
:202390000120ADF80000BDF800100DF102020820FFF768FB05B000BD10B58188ADF1200D14
:2023B000182918BF272120D1846820788DF81400641C03A82146FFF72AFF0834204607F055
:2023D0005BFFADF81600A11C11F8010B8DF8180011F8010B002200B1012268468DF81920F2
:2023F000FFF7A5FA00F0A0FE01460720FFF7ADFA08B010BD10B58188ADF1200D1A2918BF67
:20241000272129D1846820788DF80B00641C14F8010B8DF80C0014F8010B8DF80D0014F877
:20243000010B21468DF816000DF10E00FFF7EFFE0834204607F020FFE31CADF8180013F810
:20245000010C0DF11A0100F095FE68461946FFF76EFA00F0ADFE01460620FFF776FA08B032
:2024700010BD98B507460C4608460722002108F08BFA780824BF01202070F80824BF012066
:202490006070380924BF0120A070780924BF0120E070B80924BF01202071F80924BF0120D7
:2024B000607137F07F001CBF0120A07198BD30B50546AC682078ADF13C0D641C8DF8080063
:2024D00021466846FFF7A3FE0834204607F0D4FEA41CADF80A0014F8010B8DF80C0014F8B1
:2024F000020B8DF80D0014F8010C0DF10E01FFF7B8FF14F8010B8DF8150014F8010B214629
:202510008DF816000BA8FFF712FA0B3400208DF81E00204607F0F0FE241D0890204607F0D8
:20253000ABFEA41C02462046ADF8282007F0A4FEA41CBDF82810ADF81C0009190691A98896
:202550000994801880B22330884218BF272103D1684600F0B7FE01460520FFF7F6F90FB091
:2025700030BD08B58188042918BF272113D1806801788DF80010401C10F8011B8DF801105C
:2025900010F8011B8DF8031000788DF80200684600F0F4FE01460420FFF7D7F908BD30B505
:2025B0000546A868ADF1340D044607F0A5FE241D0090204607F060FEA41CADF8040014F8EC
:2025D000010B8DF8060014F8010B8DF8070014F8010B8DF8080014F8010B8DF8090014F859
:2025F000010B8DF80A0014F8010B002100B101218DF80B1014F8010B002100B101218DF8F3
:202610000C1014F8010B002100B101210DF10E008DF80D102146FFF78AF90B3421460DF150
:202630001900FFF784F90B3414F8010B002100B101218DF8301014F8010B8DF8240014F821
:20265000010B8DF82500204607F016FEA31CADF8260013F8010BA9888DF82C009DF82C00FF
:202670000A932A30884218BF272103D1684600F0A3FE01460320FFF768F90DB030BD8088E4
:2026900000280CBF002127210220FFF75EB908B501468888012818BF272107D189680978F9
:2026B000002001B1012000F0E3FE01460120FFF74CF908BD98B547780024422F0CDC422FE4
:2026D00033D07F1E0E2F11D92F3F082F18D9103F31D07F1E2CD01AE0B7F1430122D0491E65
:2026F0001DD00C3918D0491E13D010E0DFE807F065625F5C595653504D0F0F4A474441C0A3
:20271000DFE807F034312E2B2825221F1CC0262455E0FFF724F952E0FFF748F94FE0FFF7A3
:2027300069F94CE0FFF78CF949E0FFF7A1F946E0FFF7C4F943E0FFF7CDF940E0FFF7D6F92A
:202750003DE0FFF709FA3AE0FFF722FA37E0FFF72EFA34E0FFF737FA31E0FFF742FA2EE066
:20277000FFF78AFA2BE0FFF7CDFB28E0FFF7B3FC25E0FFF735FD22E0FFF73AFD1FE0FFF708
:2027900056FD1CE0FFF777FD19E0FFF7CFFD16E0FFF7DDFD13E0FFF7FFFD10E0FFF72AFEFC
:2027B0000DE0FFF784FE0AE0FFF7DBFE07E0FFF7F6FE04E0FFF763FF01E0FFF768FF20463A
:2027D00098BD7D4B014618680A083CBFC1F31001084303D36FF000424A4010401860704768
:2027F0000EB501900821ADF8001068460521ADF8021002F05CFC0EBD2DE9F041064670787C
:20281000032806D0777D3D4610B105EB4515ADB201E000273D461635ADB2284600F053F8E8
:202830005FEA00084DD00446307804F8010B707804F8010BB07804F8010BF078311D112217
:2028500004F8010B204607F06DFC717D04F1110000F8011B747844B3B46957B32146FEF72C
:20287000CCFE618907F033FDA18907F030FDA17B00F8011BE17B00F8011B217C00F8011BCE
:20289000617C00F8011B616907F0FFFC0346207E04F1190103F8010B1846FEF7DAFE2434FB
:2028B00003F10B007F1ED9D103E0B1693A4607F039FC29468C204246FEF712FE4046FFF7F5
:2028D0008FFFBDE8F0810EB501900821ADF8001068460421ADF8021002F0E9FB002814BFB7
:2028F000002002980EBD2DE9F04180460D46B8F1850F0CBF33243424698CB5F840004018F2
:202910002418A4B22046FFF7DEFF071C4ED02946FEF773FE05F10A01FEF76FFE696907F09A
:20293000B4FC298B07F0D3FC698B07F0D0FCA98B07F0CDFC0346A87F03F8010BE87F03F8D9
:20295000010B95F8200003F8010B95F8210005F1300103F8010B1846FEF77BFEE96A03F1B8
:202970000B0007F092FCB8F1930F04BF95F8281000F8011BB5F8401007F0A9FC698C07F04B
:20299000A6FCB5F84020E96B064607F0CBFBB5F84000696A6A8C801907F0C4FB4046214629
:2029B0003A46FEF79DFD3846FFF71AFFBDE8F08101469320FFF797BF9010002011780020A6
:2029D000F42908BF0120704711780020E52908BF0120704711780020F52908BF012070476F
:2029F00011780020FC2908BF0120704711780020FB2908BF0120704711780020FA2908BF5B
:202A10000120704711780020F92908BF0120704711780020F82908BF012070471178002052
:202A3000F72908BF0120704711780020D62908BF0120704711780020EF2908BF0120704720
:202A500011780020DA2908BF0120704711780020D82908BF0120704711780020DC2908BF5D
:202A70000120704711780020DB2908BF0120704711780020D92908BF012070470246107808
:202A900000280CBF00200120517809B140F00200917809B140F00400D17809B140F008000B
:202AB000117909B140F04000517909B140F0800070470A6802604A6842600A7A02724A7A83
:202AD0004272897A81727047F8B504461A2000F063FD1A25071C1CD0EA2000263870214677
:202AF000B81C7E70FFF7E5FF04F10B010A6807F10D00026049684160A08AF882A07D3146C6
:202B100000B1012130463976394600F0D0FC00B935462846F8BDF8B504461A2000F03CFDC1
:202B30001A25071C19D0E820002638702146B81C7E70FFF7BEFF04F10B010A6807F10D0010
:202B5000026049684160A08AF882A07D39463876304600F0ACFC00B935462846F8BDF8B5B1
:202B70000446202000F018FD1A25071C18D0F6200026387004F11301B81C7E70FFF799FF2F
:202B9000207878736078A11C1122B87307F10F0007F0C8FA3946304600F089FC00B9354651
:202BB0002846F8BD10B50C46ADF1180D02900821ADF8001019216846ADF802104FF0FF318A
:202BD000019102F074FA0499216006B010BD0EB501900821ADF8001068460321ADF8021097
:202BF00002F065FA0EBD2DE9FC4180460E46082000F0D2FC1A25071C16D0F420387000242E
:202C10007C703946A7F8028020467E6000F04FFC38B9C04800946946FFF7C4FF08B900984B
:202C300045783846FFF7D3FF2846BDE8FC81FFF7DABF0EB501900821ADF80010684605215C
:202C5000ADF8021002F033FA0EBD2DE9F8438146154688460C2000F09FFC1A26071C28D070
:202C700000210C2207F090FE0024F520387039467C702046A7F8029000F019FC90B9C64831
:202C900000946946FFF78EFF60B9009846784EB902793AB18168404607F044FA15B1009880
:202CB00000792880B86808B1FFF7C3FF3846FFF78EFF3046BDE8F883FFF7C7BF38B5022030
:202CD00000F06AFC1A24011C08D0D720087000254D70284600F0EBFB00B92C46204638BD40
:202CF000FFF7ECBFBCB5022000F056FC1A25071C13D0D6200024387039467C70204600F086
:202D1000D6FB38B9CA4800946946FFF74BFF08B9009845783846FFF75AFF2846BCBDFFF78C
:202D3000E1BFF8B50446242000F036FC1A26071C2AD0FC200025387021461022B81C7D70E6
:202D500007F0F0F920697861207D3876607D7876A07D04F11703B876196807F11B021160AA
:202D7000187A10725C6854603946284600F09FFB38B9B84800956946FFF714FF08B90098A9
:202D900046783846FFF723FF3046F8BD2DE9FC4180460E46082000F0FFFB1A25071C17D0DC
:202DB000FB200024387039467C70204687F8028000F07DFB48B9A84800946946FFF7F2FEC8
:202DD00018B900984578406830603846FFF7FFFE2846BDE8FC81F8B50646032000F0DCFBA1
:202DF0001A25071C14D0F9200024387039467C702046BE7000F05BFB38B9CA48009469460D
:202E1000FFF7D0FE08B9009845783846FFF7DFFE2846F8BDBCB5022000F0BEFB1A25071CB6
:202E300013D0FA200024387039467C70204600F03EFB38B9CE4800946946FFF7B3FE08B90D
:202E5000009845783846FFF7C2FE2846BCBDF8B506460A2000F0A0FB1A25071C19D0F820E1
:202E7000002431463870BB1C7C700A6849681A6020465960394600F01AFB38B9CB48009464
:202E90006946FFF78FFE08B9009845783846FFF79EFE2846F8BDF8B50546242000F07CFB04
:202EB0001A26071C33D0F720387000247C70288878806888291DB8800A68BB1D1A60496842
:202ED0005960287BB873687B05F10E03F8731A6807F1100002605A6842601A7A0272A8699D
:202EF000F861287F87F82000687F394687F82100204600F0DCFA38B9C34800946946FFF7BC
:202F100051FE08B9009846783846FFF760FE3046F8BDC046CD29000070B50646042000F0BD
:202F30003BFB1A24011C09D0E320087000254D7028464E8000F0BBFA00B92C46204670BD1B
:202F50002DE9F84304461E4691468846082000F023FB1A25071C15D03C7000247C70394605
:202F700087F8029020467E6000F0A1FA38B9009440466946FFF716FE08B900984578384609
:202F9000FFF725FE2846BDE8F8830B46CB490246DA20FFF7D5BFC046E52900001CB50B4613
:202FB000C74900920246DB2000F098FA1CBD70B50646032000F0F0FA1A24011C09D0E62019
:202FD000087000254D7028468E7000F070FA00B92C46204670BD0A7A02720A7A022A04D087
:202FF0000A680260496841607047098801807047F8B504461A2000F0CFFA1A25071C15D0EA
:20301000EB20002638702146B81C7E70FFF7E3FF608904F10C01B88107F10E00FFF749FD60
:203030003946304600F043FA00B935462846F8BD392A00000EB501900821ADF800106846C4
:203050000421ADF8021002F032F8002814BF002002980EBDF1290000FD2900002DE9F04161
:20307000D44D06462868002818BFFC2048D1302000F092FA1A24071C41D0EC204FF000087E
:20309000387031461122381D87F8018007F04AF8707C7875B07CB875F07CF875307D3876DA
:2030B000707D7876B07D414600B10121B976F07DF876307E06F11901387707F11D00FFF71B
:2030D000F8FC96F8240087F8280096F8250087F82900F08C7885707C002808BF812004D06F
:2030F000797E880000EB411080B2FFF7A3FF2860F86220B14046394600F0D9F944462046D1
:20311000BDE8F0810B46D8490246D820FFF718BF1CB50B46D54900920246D92000F0DEF930
:203130001CBDC046152A0000F8B504461C2000F033FA1A25071C19D0E92000263870214688
:20315000B81C7E70FFF7B5FC04F10C0107F10E00FFF741FFE08A3883207EB876607E39466A
:20317000F876304600F0A3F900B935462846F8BD092A000080B50746780824BF01200870C7
:20319000B80824BF01204870F80824BF01208870380924BF0120C870F80924BF01200871AC
:2031B00037F07F071CBF0120487180BD212A0000F8B504461E2000F0EFF91A25071C20D0B6
:2031D000E720002638702146B81C7E70FFF771FCE07A7873207BB873607B04F10E01F87329
:2031F00007F11000FFF7F7FE208B788304F11A00FFF744FC38773946304600F058F900B943
:2032100035462846F8BDC0462D2A00002DE9FC4782461E4690468946142000F0BDF900257A
:203230000AAF0446A5421BD0E520207028466070A4F802A084F8049084F80580A6603988C0
:20325000A181214600F033F938B9D24800956946FFF7A8FC08B9009805692046FFF7B7FCFA
:203270002846BDE8FC8703B480B502AF39780020012908BF01207978012908BF40F0040012
:20329000B978012908BF40F00800F978012908BF40F010003979012908BF40F0200079793D
:2032B000012908BF40F04000B979012908BF40F08000BDE8804002B07047C046512A00007B
:2032D000752A0000F0B50446A08BADF1140D009094F8341094F83520236A208DFFF796FF60
:2032F0001A25071C47D0E420387000267E70616A228D786806F016FF07F1840004F12C0182
:20331000FFF7D7FB214607F19000FFF764FE6089A7F89A00207B87F89C00607B04F10E01D7
:2033300087F89D000A6802AB1A60888898808A799A7102AB93E80300FFF795FFA7F89E00A0
:20335000607D87F8A000A07D87F8A100A28BA7F8A82022B1D7F8A400A16906F0E3FEA07F4A
:2033700087F8AA00206A3946C7F8AC00304600F09EF800B93546284605B0F0BD70B5044631
:20339000062000F009F91A25011C10D0EE20087000264E70207888706078C870A07808712E
:2033B000E0784871304600F082F800B93546284670BDC04650100020F8B5064696F82C0004
:2033D000383000F0E9F81A25071C4BD0ED20387000247C7030687860B0883881B079B872AE
:2033F000F079F872307A3873707A7873B07AB873F07AF873307B3874707B06F10E01787462
:2034100007F11200FFF755FB06F1190107F11D00FFF74FFB96F8240087F8280096F82500DA
:2034300087F82900F08C788596F8300087F8340096F82C0087F8300096F82C00002808BFD8
:20345000FC6209D007F13800F862B16A96F82C2007F1380006F066FE2046394600F027F828
:2034700000B925462846F8BD5D2A0000812A0000F8B50646042000F08FF81A25071C14D0E9
:20349000DC200024387039467C702046BE7000F00EF838B9BA4800946946FFF783FB08B9F4
:2034B0000098C5783846FFF792FB2846F8BD00B5ADF1140D8DF8080003910823ADF800306E
:2034D000B04AADF8023012788DF8042068461822ADF8062001F0EBFD05B000BD2DE9FC4781
:2034F0000A9D0446984692468946082000F054F81A26071C24D03C7000247C70394687F8D1
:2035100002A02046C7F80480FFF7D1FFA8B9009448466946FFF746FB78B90098467866B97B
:20353000C27852B14168404606F0FCFD15B10098C07828807868FFF77CFB3846FFF747FBDF
:203550003046BDE8FC87BF4908B503460020E2220090D920FFF7C2FF08BD98B5032000F026
:203570001BF80024071C13D0EF20387039467C702046FFF79CFF40B920460090B24869464D
:20359000FFF710FB08B9009884783846FFF71FFB204698BDD92900000EB501900821ADF858
:2035B000001068460221ADF8021001F080FD002814BF002002980EBD0EB50820ADF80000E5
:2035D0000120ADF80200684601F071FD6D499DF804000870029848600EBD98B51020FFF7BF
:2035F000DBFF0746FFF7E8FF664C217867B1D020387000237B70B970FB703B710220BB6031
:203610003946FB60FFF753FF0120FFF731FF04F11001E220FFF776FD182001F05EFC60706D
:2036300098BDB448CA49086070470EB50820ADF800000A20ADF802004FF0FF3001906846E9
:2036500001F035FD0EBD7FB50646082014460D46ADF800000720ADF80200684601F027FDE1
:203670009DF8041031709DF8061029700299216000907FBD0A7A022A027204D00A680260F8
:203690004968416070470988018070470A6802604A6842600A7A02724A7A4272897A8172BA
:2036B000704738B50C4644220546002107F06CF904F128012846FFF7DDFF04F1320105F15A
:2036D0000A00FFF7D7FFE06B6861B4F840002883B4F842006883B4F84400A88394F8460093
:2036F000A87794F84700E87794F9480085F8200094F8490085F82100B4F850006884E06C50
:203710006862A07B85F8280094F8520085F82900606D04F11C01E86205F13000FFF7B6FF91
:203730002089A5F840006068E86338BD011C05D0F220087000204870FFF7B9BE704708B5B6
:203750000B46FFF797FF5989418199898181997B8173D97BC173197C002201B10122027422
:20377000597C417459694161197E002201B1012203F1190102761930FFF788FF08BDC046A6
:20379000692A000044100020B0B5044600211C22ADF1200D684607F0F7F860788DF8000048
:2037B000A0788DF80100E0788DF8020020791122611D8DF8030001A806F0B4FCA07D8DF8B9
:2037D000150058B39DF8011049B9FFF733FC069068B1A1699DF8152006F0A4FC1EE0810054
:2037F00001EB401188B2FFF725FC069030B91A208DF8000000278DF815700FE0A569074672
:20381000002407E038462946FFF799FF641C24372435E4B29DF81500A042F3DC4C4C60688D
:2038300018B1FFF706FA0020606020688169684688479DF8150010B10698FFF7FAF908B040
:20385000B0BDC046812A0000452A000090B5044600214022ADF1440D684607F095F8A07880
:203870008DF80000E0788DF801009DF8000000BB616811B101A8FFF762FF217A01F0070265
:203890008DF82820E0689DF82870C1F302118DF8301027B19DF828100B9000EB41009DF849
:2038B000307007B10D90207C8DF8380067690F9719E0616811B101A8FFF741FF677A8DF86B
:2038D0002970A37A8DF82A30207A8DF82800E27A8DF82B20217B8DF82C10677B8DF82D706F
:2038F000E389ADF82E301A48006801696846884711B090BDC80D0020B0B5154D2F680446ED
:20391000ADF1480D002F00F078812078401E112800F27381DFE810F0570144012B011601D0
:203930000F01FA00EC00DE00BF00AE008A005F005500440071012C001E001200F86B00285B
:2039500000F05B8168462146FFF7ABFEF96B52E14C100020386C002800F04F816846002169
:20397000012207F011F860788DF80000396C42E1F86A002800F04181684600210E2207F0BD
:2039900003F8A11C6846FFF775FEA57BA1890022ADF80A1005B101228DF80C20F96A2BE124
:2039B000B86B002800F0298168460021022206F0EBFFA5788DF8015060788DF80000B96BCB
:2039D00019E1786B002800F0188168462146FFF768FE796B0FE1386B08B3684600211422A1
:2039F00006F0D2FFA5788DF80150A3680193A289ADF80820A17B8DF80A1060788DF800004E
:203A1000E57B8DF80B50237C8DF80C3094F911208DF80D2061690491396B6846884760683E
:203A3000002800F0EA80FFF781FEE6E0B86A002800F0E38068460021242206F0A5FF607895
:203A5000A11C8DF800000DF10200FFF713FE04F10C0103A8FFF70EFE257EE08A8DF8185064
:203A700004F11901ADF816000DF11900FFF70EFEB96AC0E0786A002800F0BF806846002188
:203A9000022206F081FFA5788DF8015060788DF80000796AAFE0386A002800F0AE80684624
:203AB0000021122206F070FF658860782379ADF8025062798DF80000E11D8DF80430A579AF
:203AD0008DF805200DF107008DF80650FFF7DEFD396A90E0F869002800F08F806846002111
:203AF000012206F051FF60788DF80000F96982E0B86938B9686800287FD0FFF79AF800202B
:203B100068607AE02046FFF73FFE76E07869002873D068460021132206F036FFA01C0168E4
:203B30006B4619604068586004F10A0102A8FFF7ADFD79695FE0386900285ED02046FFF72D
:203B500085FE5AE0F868002857D0684600210E2206F01AFF6078A11C8DF800000DF10200C1
:203B7000FFF788FDA089ADF80C00F96843E0B868002842D068460021142206F005FFA01C47
:203B900001686B46196040685860A07A04F10B018DF808000DF10900FFF778FDB9682AE0DD
:203BB000786850B368460021102206F0EDFE607865888DF80000211DADF8025001A8FFF712
:203BD00065FD796817E03868B8B168460021192206F0DAFEA01C01686B461960406858600B
:203BF000A07A02A9FFF7C6FA0DF10E0004F10B01FFF74CFD39686846884712B0B0BD0EB5DE
:203C1000FFF713FD08BB0DF1050001A96A46FFF71AFDD0B90D489DF804200178914210D19D
:203C300041789DF80520914208D08068436C43B19DF80500009A0021984702E00098FFF727
:203C50005BFE009808B1FEF7C2FF0EBD44100020C848C9494162C9498162C949C162C949B4
:203C70000163C9494163C9498163C949C163C9490164704701EB003103E011F8010B03F8B0
:203C9000010B1046421E002892B2F6D170473EB514460D4605226B46FFF7ECFF65819DF894
:203CB00003109DF804009DF804309DF8005001F00F01801003F0030340EA81109DF801209F
:203CD000A0819DF80200637205F0C0052B4381069DF803006372001140EA91509DF8021068
:203CF000A080891141EA82019DF80020E18002F03F0241EA0231227240EA013020603EBD3B
:203D100038B505460C4600200090042C0BD3241F284604226B46A4B22146FFF7ABFF0098CE
:203D3000B0F1FF3FF1D001210A4600F0FF03FF2B18BF111C000A521C0090042AF5DD091917
:203D500088B238BDF0B516460C4607460025ADF1140D0AE0241AA4B205E0641E3846A1B2EA
:203D7000FFF7CEFF04466D1CADB2092C1DD3641F38466A46A4B22146FFF789FF0098B042A3
:203D900007D19DF8091031F07F0004D0C80902D20CE09DF809108808DFD2BDF80C00844212
:203DB000D8DCC4490520487108716C4220B205B0F0BD03B42DE9F04792461E4608AFBAF553
:203DD000806FA8BF052042DA97F80080B8F1400FA8BF09203BDAB7F802C0BCF5806FA8BF18
:203DF000072034DABF88B7F5806FA8BF08202EDAB04CA41CA078032808BF032027D04FF0E6
:203E1000000908F03F01CCF30900C7F3090584F8039040EA013045EA0035A18820782A46C2
:203E3000FFF790FF014600290BDCA6F80CA0A6F80A903560B780A6F806C086F808800A20B4
:203E500005E0207889B23246FFF721FFE078BDE8F04702B0704703B4B0B5964C08342068AD
:203E70004FF0FF3104AFADF1180D08F099FE396804A80160B988818004A803C800226B4684
:203E9000FFF797FF00280CBFBDF80C500025206808F082FE284606B0BDE8B04002B070473B
:203EB0000003085C704770B505468248801C047800230E4601E00123521C3046411E8EB283
:203ED00058B12946481C85B22046FFF7E9FF11784840F1D00842EED00223184670BD01EB05
:203EF0000031491C1046421E002892B208BF012004D011F8010DFF28F4D00020704703B4AE
:203F10002DE9F0416B4DA8684FF0FF3106AF1C469046ADF1180D08F043FE396804A801607C
:203F3000B988818004A803C822466B46FFF741FFAC46061C14D1BDF80C30BDF80A20D01AB6
:203F5000404481B29CF802006518AA4204DAA342B4BF0526062603E0BB682246FFF78AFE22
:203F7000DCF8080008F018FE304606B0BDE8F04102B07047080200200D410000894000009B
:203F900031400000C53F00000F3F0000D944000089480000673E00000146B34808B5007844
:203FB0000346FFF77DFF00F07F000246184600F091F908BD03B4B0B504AF3878ADF1180DA0
:203FD000002808BF092026D03A4CA0684FF0FF3108F0E6FD04A8BD883968858004AB016044
:203FF00093E8030000226B46FFF7E3FE2546071C0DD1BDF80A00FFF7CFFFA878E988009A6F
:20401000FFF7A0FE6C790028D4BF271C0227A86808F0C2FD384606B0BDE8B04002B07047F7
:2040300003B4F0B5C14C20684FF0FF3105AF1D461646ADF11C0D08F0B3FD396804A8016080
:20405000B988818004A803C8B2B26B46FFF7B1FE07460A2F02D007B9012704E0684629469C
:2040700000F00EFA0746206808F096FD384607B0BDE8F04002B07047D0B50E4C0646A06832
:204090004FF0FF3108F08CFD277977B9E088C0F5805000B2864203DC002E18BF042704D105
:2040B000A078002100F0A4FA6779A06808F074FD3846D0BD6810002070B56B4C0546607836
:2040D000FE28AEBF0126401CC6B203219622284600F000F902210122284600F0FBF8012156
:2040F0002846324600F0F6F80021A522284600F0F1F8E07808B92570667070BD2DE9F041C5
:20411000BE4C2079ADF1400D032818BF607140F09E8000256571A84601A82422082329466E
:2041300084F8048008F034FD032001A98DF81C002A46012008F028FD1D27A0602E46A5705D
:204150000AAB384641460422FFF794FD9DF82810E378A52907D19DF82900FE2803DC9DF8C2
:204170002B20962A09D0242902D0B72918D11FE03E46EBB99DF8290019E0B5B1984203DA68
:20419000FE2B18BF01280BD1984203DD012B08BFFE2805D0284600F0F3F99DF8290004E076
:2041B000384600F0EDF9A57802E03D46A570E0707F1C1E2FC4DD8DB926B91D20FFF77CFF58
:2041D000042015E0A67030464FF48051FFF798FDE0804146304600F00BFA0AE01EB130460A
:2041F00000F0CEF9A57828464FF48051FFF788FDE0800AAFB34D00970EA82968AE88016050
:204210000EAB868093E8030042460C23FFF777FEE6880A2809D1384641460C2206F0B4FBDD
:2042300040F6EF70801BADF82E00BDF82C000EAF401CADF82C002968AE8839600EABBE8049
:2042500093E803000C220AAB00F03EF9607910B0BDE8F0810146C84808B530300068426891
:20427000C448904708BDC0466A1000202DE9F843C24D9046024668781F460C4640BB08F0DE
:2042900085F901281CBF0B20687021D104EB023400F032FB8146684600F057F9424638469A
:2042B000214608F011F90098FFF7D4FF484600F030FB661E4046411E1FFA81F840B116F881
:2042D000010F17F8011B8842F4D0022068702870BDE8F88308B58DF800206B460122FFF727
:2042F000C5FF08BD2DE9F04115468046287840F0C000287028790C4604262F1D40F00200FA
:20431000287117F801293119404689B2FFF7E2FF761EF6D52A79241D4046A1B202F0FD02CC
:204330002A71FFF7D7FFBDE8F081C046701000202DE9FE431F1C15460C4680461AD0DFF884
:20435000A892082FACBF08263E1C99F8000021466B463246FFF78EFC404629466B4632462A
:20437000FFF784FFBF1BBFB270193319002F85B29CB2E6D1BDE8FE832DE9F04F1F4D0446F8
:2043900009AF1E46ADF1140D7868EB880290B7F80090A08988469246411D89B20391C91831
:2043B000B1F5805F67DCE288217A971001F03F018DF80010A1888DF801701B1802F003026A
:2043D000C1F3051747EA821709078DF80270C0F3831200F03F0742EA11628DF803204046E1
:2043F000B9008DF804106A4699B28B46FFF77AFF029840B3EF887EB102E0C046681000206D
:204410003A46404651463346FFF792FFF01906EB0A0387B21FFA83FA029B40464A463946E7
:20443000FFF724FFA689E98809EB070087B2F01B09188AB23AB109EB0A00134681B23A4622
:204450004046FFF775FF9DF800204046594622F040028DF80020FFF73DFFEA880BF10401E4
:20447000404689B2FFF71CFDFF2806D00398801880B2E88001E00520687105B0BDE8F08FDA
:20449000FEB50546584CA889A2880F46411D8EB22178B218B2F5805F0BDD0846002100F0EC
:2044B000A7F8864203DDE07800B90520FEBDA889217800900022284601971346FFF75CFF88
:2044D000E078FEBD180D000003B42DE9F041474DA8684FF0FF3106AF98461446ADF1180DD3
:2044F00008F05EFB396804A80160B988818004A803C822466B46FFF75CFC0026071C0FD164
:20451000BDF80C0084421CBFADF80C40BDF80A6008D1224668463146434600F061F9074693
:204530000A2F09D168464146FFF7AAFF07461EB13046FFF731FD6F79A86808F02DFB384638
:2045500006B0BDE8F04102B0704710B5094C0246204608F0CFF900F0030010609F4800681C
:204570004268002120469047204608F0C3F90028FAD110BD00400340A80100106C10002071
:204590007CB500210546FFF78BFCB72807D140F6FF7128460A46D21EFFF7A1FC18BB07F089
:2045B000F5FF01281BD100F0A7F906466846FFF7CCFF280307F096FF04460098FFF74AFEC0
:2045D000304600F0A6F92CB928460021B722FFF781FE7CBD05490220487108717CBD0248A6
:2045F0000B21C01C01707CBD6A100020681000202DE9F04F804608460026ADF1440DBB4945
:20461000089000284E701ABF006800684FF0FF30B8F11D0F0C900CBF1E201D200990FFF7AF
:20463000AFFF242240463146FFF754FE15250D9605210E96AD480F9640880A9104460B94A4
:20465000A1427EDAA9484778002F6AD1641F404602AAA4B22146FFF71AFBBDF814709DF8AA
:204670001130781D1FFA80FAD80951D233F07F035AD0029A0C98904256D009982946FFF7B0
:2046900061FB002850DC8EB9611E40463A4689B2FFF725FC50B90299E01B80B2B1F5805FE6
:2046B0000B9041D10F904FF0040906E0A9460AEB0500B9F1000F85B236D007EB09001FFA79
:2046D00080FB2146052206AB4046FFF7D3FA099806AA5946FFF706FE26B90E98401C80B2CA
:2046F0000E9006E0E01B81B209984A465346FFF71FFE0D989DF818205946401C22F040025A
:2047100080B20D9009988DF81820FFF7E3FD0BE098080CD2544507DA7449052048700F46B4
:2047300038704FF0FF3056E0E41BA4B204E040462146FFF7E5FA04460A98A04282DB6B4844
:2047500040880B99761C0446022E0A91FFF678AF0C98B0F1FF3F14D0644808994580088910
:204770000090C86801908A88CB8808680999FFF703FE5E480D9E074645887C80701C80B245
:204790000D900F98C0B101460C2202AB4046FFF771FA0D9F02980E9EC5F5805404210C2278
:2047B000ADF80E4002ABADF81070401C02900998ADF81260FFF75AFD0998FFF77DFC4B488E
:2047D00040780028ADD1494845804046FFF7D8FEC5F5805738B211B0BDE8F08FD80100107A
:2047F0002DE9F04305460C466889A989944698468146ADF11C0DA9EB010296B2401A1A46C1
:204810002018614680B2FFF74EFB002808BF00202FD0374F3978012822D0A889BA88401D08
:2048300080B28018B0F5805F0DDD0295ADF80C60ADF80E40ADF810C00846CDF8148002A9CE
:20485000FFF7D6FE14E0CDF800C0284632462346CDF80480FFF790FD4846FFF79DFB07E0E7
:20487000A4190846A2B2434611466246FFF7FEFCF87807B0BDE8F08303B42DE9F041DFF83D
:204890007480D8F800004FF0FF3106AF1C461546ADF1180D08F084F9396804A80160B9883C
:2048B000818004A803C822466B46FFF782FA061C12D1BDF80A00BDF80C10411A691889B239
:2048D00061188842B8BF062606DBBB68294622466846FFF785FF0646D8F8000008F05CF976
:2048F000304606B0BDE8F04102B070476C1000206A1000207010002010B508F041F980B23E
:2049100060F30F0408F038F980B260F31F44204610BD08B50090BDF8020008F029F9BDF80A
:20493000000008F021F908BDF8B5001D84B214F0030002D0241A241DA4B2FFF7DDFF0146C9
:20495000C948102C47680160C8BF8768388800221646C30BDD0319D126B984420ADD3A4692
:20497000012617E01388C3189BB29C42138011DC174618469FB1001B80B20428B4BF3C882D
:20499000385344F400443C803F1D08E080F40040002680B2C71938880028DAD1002708460C
:2049B000FFF7B7FF3846F8BDF8B5C64AAE4CC64B121D0C3422F003019C4621605E1A206858
:2049D000256860606768A660002001E025F8020BAB42FBD84FF6FC75B3102A4001EB830365
:2049F00023F8040CACEB0202E82315403B80EC3DA1F8E850E83144F8081CFFF795FF44F88D
:204A1000040C606844F8080CF8BD974808211038A0F84C10C5494165FFF7C6BF924A002139
:204A3000032002F10C0343F80C1F401E9960FAD13C320820401E22F80C1BFBD1FFF7E5BF1E
:204A50002DE9F8438046FFF757FFC44C03250026814654F80C7F5FB93046C4F800800146D6
:204A7000A6600A4608F090F8606018B904F037FB474501D1264601E06D1EEAD14846FFF724
:204A900048FF3046BDE8F8832DE9F043ADF13C0D08F076F8C04EC14C0025814668460021BD
:204AB0003C22082308F05CF856F8042F6068A76806902368089769460592C64804930022EC
:204AD00008F04AF8071C10D0FFF716FF80463846FFF7B6FF48B14046FFF71BFF241D6D1C36
:204AF000DCD0484608F040F801E004F0F8FA0FB0BDE8F08310B5044600212C220823ADF157
:204B1000300D684607F042FFE068A1680890606800236A4608F01CF8002818BF002001D1E1
:204B300004F0DDFA0CB010BD10B50446FFF7E4FE4D4934F8042C6FF3DF3224F8042C4A68C7
:204B50000860241F944238BF4C60FFF7E2FE10BDD0B504463C20FFF7E7FE071C14D0002150
:204B70003C22082307F0FCFF207AB86160893862E068386160683946002207F0EDFF0646FB
:204B90003846FFF7D1FF16B96FF00300D0BD0020D0BDB0B5044607F0F3FE30F0010008BFD7
:204BB0006FF004041BD007F0CFFF0546FFF7A4FEB44A082132F80C7F6FB1A388BB4208D1EE
:204BD000526812680021954208BF0121A160002403E0491EEED14FF0FF34FFF79AFE20461C
:204BF000B0BD08B5406820B1006807F023FC002008BD6FF0020008BDB0B5054607F0A4FF2F
:204C1000044607F0BDFE30F0010008BF6FF0040414D0FFF771FE9B4A002132F80C7F4FB135
:204C300053681B689C4204BF2971002404D0491C0829F2D36FF00404FFF76BFE2046B0BDFF
:204C500038B50546FFF758FE444C0322014654F80C0F18B1A84202D0521EF8D1002408462D
:204C7000FFF757FE204638BD280D0020C24A10B512680C464FF47A710023A1FB000102F0AC
:204C90004FFA002908BFB0F1004F2EBF6FF002002060002010BD98B50446FFF72DFE2168DF
:204CB000002908BF002709D00F4657F80C2C2260002347F80C3CFF2401F8024CFFF729FE65
:204CD000384698BD67200020002C002010B5044607F03AFFFFF7B4FF002808BF6FF00400C4
:204CF0000DD00830FFF7D7FFA06038B110F8081C217110F8070CA071002010BD022010BD14
:204D1000082880B50ADABC4B820002EBC0029F5A98181FB14FF6F872BA4202D14FF0FF309D
:204D300080BD00880880002080BDC046C152000038B50C460546FFF7DFFD002144F80C1CBF
:204D5000296811B92C6006E0114651F80C2C002AFAD141F80C4CFFF7DCFD38BD340D0020F3
:204D700098B50F460446FFF7C7FD57B13A4600E00A4652F80C1C0029FAD1216842F80C1C74
:204D90002760FFF7C6FD98BD1420FFF7CDBD01460879891DFFF7B4BF200D0020380A000054
:204DB00010B50446744802680023D90750080143D007801A4FF47A72994102F0B1F90029D0
:204DD00008BFB0F1004F28BF6FF000406060002010BDC046AB5200006749096841600020F4
:204DF00070471CB5044660686946FFF73FFF20B900986060204600F010FA1CBD10B50446AD
:204E100007F09EFE6060002010BD10B5044600212C220823ADF1300D684607F0B7FDE02065
:204E30000890A168606800236A4607F091FE002818BF002001D104F052F90CB010BD08B52A
:204E500007F09EFE07F098FE002008BD08B507F073FE07F06DFE002008BD08B5406807F075
:204E700063FE002008BD08B5406807F059FE002008BD04F034B908B5406807F08DFE00205C
:204E900008BDC046580D0020DCB5044607F05CFEFFF7D6FE064607F073FD30F0010014BF15
:204EB000002E6FF0040017D0606858B1B0F1FF3F05D06946FFF7DAFE30B107460BE04FF010
:204ED000FF3000E0002000907068009907F068FE002700B901273846DCBD10B50446FFF711
:204EF0000BFD8C4B0022014633F80C0F30B1A04208BFD4B203D0521C082AF5D3FF24084658
:204F1000FFF707FD204610BD70B50646B079F4680828A4F108042BDA3079082828DAFFF7B7
:204F3000EBFCB279344D910001EBC20169184968E1B1FFF7EEFC30792070B0796070307A0E
:204F5000A070B179880000EBC1002818F16840680830FFF7EDFEB179880000EBC1002D18D6
:204F70006868406807F018FE002070BDFFF7D1FC6FF0020070BDC046240D000010B50446B8
:204F9000E088FFF7AAFFFF2808BF4FF0FF3003D0A0712046FFF7B8FF10BD08B54068FFF77F
:204FB000C3FD002008BD10B50446A088FFF7BCFC0028A06014BF00206FF0030010BD08B550
:204FD00040680C38FFF7B0FD002008BD10B5044660680C3080B2FFF7A7FC50B1A188002322
:204FF0000181FF22036000F10C0182721846A16010BD6FF0030010BD640D0020F8B50446C6
:2050100007F0A2FDFFF71CFD071C16D0FFF774FC4049002231F80C6F66B94FF6F8730B80C3
:205030004F6000258D6022717968A160FFF771FC2846F8BD521C082AECD304F050F8F8BD54
:20505000D0B5044607F080FDFFF7FAFC071C08BF6FF002041CD0FFF74FFCA3882D490022D2
:2050700031F80C6F56B90B804F60A3688B602273796821610024FFF74CFC09E09E4208BF53
:205090006FF00204F7D0521C082AE9D304F027F82046D0BD08B5FFF720FFFF2808BF002092
:2050B00004D08A4B810001EBC001581808BD10B504462088FFF7EEFF38B1816811B1204640
:2050D000884710BD6FF0010010BD4FF0FF3010BD0EB501900821ADF8001068460321ADF813
:2050F0000210FFF7E4FF0EBD38B50546FFF7EEFD041C0DD128796946FFF702FE28B1A868A4
:20511000FFF7E6FF6FF0050038BDBDF80000A880204638BD580D00202DE9F0430646ADF15B
:205130001C0D07F011FDFFF78BFD4FF000090546CDF8009007F024FC30F0010002D0009829
:20515000A84202D16FF0040059E070684C4658B1B0F1FF3F05D001A9FFF788FD30B107466C
:205170004CE04FF0FF3000E02046019007F0E8FC0199012701EB000800E00193686801993F
:2051900007F00EFD00282ED003A8FFF79FFDD8B99DF8100002A9FFF7B3FD88B9B368BDF802
:2051B00008009DF81210059A984748B19DF81270B773BDF80800B081059B33614F4612E0BF
:2051D00005996846FFF7B4FD0198641CB0F1FF3FD4D00028D2D007F0B3FCB8EB000302D048
:2051F00001989842C9D2009905F10800FFF7B8FD24B1686807F0D0FC641EFAD1384607B065
:20521000BDE8F08308B50820ADF800000C20ADF802006846FFF74BFF08BDB0B50446A76898
:20523000ADF1280D27BB0C20FFF77EFB071C16D0684600212422082307F06EFC00230697A4
:205250006A466168ADF810302148059307F060FC386038B9FFF7D6FF3846FFF765FC6FF004
:20527000030018E0E06878602069B860A7600AE0FFF742FB0546386807F0DCF82069B860E7
:205290002846FFF746FB3868616807F03DFC386807F036FC00200AB0B0BD02460D4808B556
:2052B000904708BD08B5014688684968884708BD08B542882A2A28BF6FF0010004D20549C3
:2052D0000C3151F82210884708BDC046640D0020B5520000440A00002DE9F041BD4C0B46E5
:2052F0000146207D002704283DD08D78666A012818D1BBB14FEA850856F8083033B156F889
:20531000250000F05AF946F80870207D617D6D1CEDB2A942D8BF27831CDDA577A27D218BB0
:20533000891A2183032812D0607D56F82530401EA842D4BF227EA27D0120617F2075207FBA
:20535000121DD2B203F01CF8071C03D1207D032802D008E003202075208B00280CBF06208E
:20537000052000F039F93846BDE8F08108B5C37803F0070319438DF8001081788DF80110CD
:2053900001788DF8022041F0400241786B461046032202F0F5FF08BD8E4998B50446087DE7
:2053B0000027012836D1087F227890422FD1487F627890422BD1E278C87F504010F0070FDD
:2053D00025D1A278887F90421FD1A0680078B0B1401E12D0401E032819D9001F02D0401EF9
:2053F00015D008E0487D121AB2F1FF3F07D0072000F0F2F815E008270DE0394600E0012194
:205410002046FFF769FF074604E0032703E0072000F0E2F82FB1204620213A46FFF7A6FFE7
:205430000027384698BD0EB501900821ADF8001068460421ADF80210FFF739FE002814BF7E
:20545000002002980EBD2DE9F0470546A868A9888246091FCFB2801C04F00EFF5D4C804661
:2054700020780026012822D12978227A914225D16978627A914221D1A978A37A99421DDBA9
:2054900095F803C0E27A944516D1A289904511D1994206D0A1788F4208D0A1888F4205D06C
:2054B00008E002202070A1788F4203D13EB904280CD027E0042602E0022600E003262069B8
:2054D00000F07BF8A878A07204202070AB78BBB995E80E0004F1080080E80E004046FFF762
:2054F000A2FF2061002804BF207806260AD000206070A770A4F80480A4F80C80207005E02D
:2055100006B90326042820D002281AD02069A278A9788146514389B23A4640180AF1040131
:2055300004F000FEA878A072A088C01B80B2A08030B9C5F80890A5F804800420062603E050
:205550002078042801D00120207004F1080018213246FFF70BFF3046BDE8F087B0B50779D0
:20557000042247B383681978C1705D785C1C21F00701857008391AD0083911D0083905D090
:20559000083912D1032F08BF002214E0032F12D1012181809B1C8360FFF7FEFE02460AE0D2
:2055B000042F08DBFFF74FFFF8E7052203E07F1E8460062287801046B0BD0EB501900821A8
:2055D000ADF8001068460521ADF80210FFF76FFD0EBDC046D41E00202DE9F041594D804683
:2055F000686A074690B1697D554E002407E057F8240010B1FFF7E1FF3178641CE4B2A142FB
:20561000F5DC3846FFF7D9FF0020686205F11C0042462021FFF7AAFE04202875BDE8F08123
:205630002DE9F04F474C824604F114000078ADF11C0D042802D00720FFF7CEFFBAF8045074
:20565000F620B5FBF0F1491CCAB2B5FBF0F0401C03925119C0B2491E800091FBF2F1C9B284
:205670000491FFF7E0FE00210290002801913ED00F460398DAF808B00097002832D0029861
:20569000DDF80C80B946059004988542D4BFEEB2061C0098002818BF019802D1301DFFF707
:2056B000C2FE0746059840F8047B002F059004BF0327009711D01020387087F80190BAF8B6
:2056D0000410B81C04F003FE391D32460846594604F028FDAD1BADB2B344B8F1010809F13F
:2056F0000109D1D1009820750399617500E0207D9AE8085004F11C0181E808500199A17773
:20571000029B6362237F102243F080032377E27750B90498BAF80470A07504F11C002783FF
:20573000FFF7DAFD019002E00520FFF755FF019807B0BDE8F08F034904200870087570471A
:20575000E91E0020D41E002010B5044604F058FBA04209DDA0B204F05AFBBE48022141815C
:20577000C06907F019FA10BDFEE7BA4880210181C06907F011BA70B5B74C0026DD2140F2A6
:20579000622204F17805ADF1400D2846E66005F0FBF83C2208236846314607F0E1F940F2CB
:2057B0006220AE4908906A46334607950220069004F1280007F0A0F910B070BDA648A849D2
:2057D0000162022141707047A348A64941620121817070470EB501900821ADF800106846A4
:2057F0000421ADF80210FFF762FC002814BF002002980EBD0EB501900821ADF80010684609
:205810000521ADF80210FFF752FC0EBDF8B5054616460C460C20FFF7DDFF07460820FFF77D
:20583000D9FFDFB1D0B144604580B86076B90021CD4C01706069394607F05AF9A08840F02A
:205850000800A080E06907F0A7F9F8BDFFF7D2FF3846FFF7CFFF204600F001F8F8BD0EB5AB
:2058700001900821ADF8001068460321ADF80210FFF71DFC0EBD10B5BB4CA06920B1A06997
:20589000FFF7EDFF0020A0610420E080E06907F083F910BD00B50820ADF1140DADF80000A7
:2058B0003821ADF804100020ADF8020002906846FFF7FDFBAC499DF80C0008700498C861FE
:2058D00005B000BD38B5A84D00242046AC800146AC6107F009F928612046014607F004F937
:2058F0006861FFF7D7FF01F0FBF803F0F9F938BD7FB50646082014460D46ADF80000092022
:20591000ADF802006846FFF7D2FBBDF8041031809DF8061029700299216000907FBDF8B50C
:20593000914C616A054649B1A078401E04D0401E04D128468847F8BD28468847284601F05F
:2059500017F9071C23D00C20FFF744FF061C1BD0FEF7D2FF0546B760387858B920693146B6
:2059700007F0C6F8A08840F01000A080E06907F013F905E03046FFF73DFF3846FFF73AFF54
:205990002846FEF7C6FFF8BD3846FFF733FFF8BD75490978914201D1FFF7C1BF7047B0B549
:2059B000FEF7AAFF714C0546206807F099F8071C0DD0B8684068A060B9684868498803F0C4
:2059D0009EF9B868FFF716FF3846FFF713FF2846FEF79FFFB0BD00B50823ADF1140D0390CF
:2059F0006149ADF800300A78ADF8023089898DF804206846ADF8061000218DF80810FFF7E7
:205A100056FB05B000BD10B504466068FFF7E3FF2046FFF7EFFE10BD98B5534C606907F042
:205A30005FF8071C15D0216A69B1607858B1401E02D0401E0AD103E0B868FFF7E4FF216AA1
:205A5000B868884702E0B868FFF7DDFF3846FFF7D1FE98BD1405002014050020755B000099
:205A700045970000999600003EB5414C0025A0694FF0FF3107F094F8FEF73EFFA188228866
:205A9000E388A5801143E58043EA01026388658043EA02012180FEF73CFF2088010A24BF16
:205AB00020F0800020800DF1020101AA6846FFF71FFF20B99DF802200198FFF769FF238806
:205AD000580915D3E06807F007F820B903F0E0F808B9FFF764FFE06806F0FEFF20B9A06954
:205AF00007F05AF8238803E0238823F01003238098080ED301F069F8238804F073F9002845
:205B100004BF23F00203238003D0A06907F044F8238818090ED3FFF77FFF206906F0DCFF6D
:205B300020B9A06907F038F8238803E0238823F008032380D8089AD323F00403E068238000
:205B500006F0CAFF002892D1208840F010002080A06907F021F88AE708B5FFF7B3FEFFF77F
:205B700083FF08BDFFF7F8BF1405002024050020180500202DE9F04FD14D4FF00108ADF109
:205B90001C0D05F141020590CB48C2F8CF8F0768002FFCD0CB4844380390C0210160C748F6
:205BB000011D0968890805D20168D94B090C41F0F00119700021001FC2F8FF1FD54ED64C34
:205BD000C7680190B80E12D2780E10D3802086F81B024FF6D801A6F85C1286F80B0205F0FD
:205BF0002FF8A146D9F8CC00C0F3042004E0A14659F8040CC0F3046006F083FE00EB2770D7
:205C1000401C162805DA10F10A0FB8BF6FF0090000E0152000F01F0040F4F850A6F864025E
:205C30002868800828BF47F04067CD49F80EBD0E80F0010000F00100086085F0010000F060
:205C500001008860384605F043F900220446154606F072FE00B945462A46C24D2B68002BEE
:205C7000FCD0C64800F1080ACAF81040C5F800800AB106F067FE06F019FCC149091F029102
:205C9000496880B24C680090B74840F2FF3200232C214038A04706F005FE044606F04CFE19
:205CB0004FF0000B00B9C3462B68002BFCD0CAF81440BBF1000FC5F8008001D006F042FE29
:205CD00006F0E6FB044606F037FE4FF0000B00B9C3462B68002BFCD0CAF80C40BBF1000F09
:205CF000C5F8008001D006F02DFE06F09DFC044606F022FE4FF0000B00B9C3462B68002BAC
:205D1000FCD0CAF80840BBF1000FC5F8008001D006F018FE059805F0A7F8044606F00CFE4D
:205D30004FF0000B00B9C3462B68002BFCD0CAF80440BBF1000FC5F8008001D006F002FEF8
:205D50000599084606F058FC874C400040F0200084F80901084606F05BFC40F0100084F8BD
:205D70000901084606F012FB049006F0E5FD4FF0000B00B9C3462B68002BFCD00498CAF858
:205D90002000BBF1000FC5F8008001D006F0DAFD0599084606F054FC400040F0600084F8BF
:205DB0000C01084606F058FCC00040F0800084F80101084606F05CFC800040F47C40A4F898
:205DD0009C01084606F0DAF9049006F0B5FD4FF0000B00B9C3462B68002BFCD00498CAF8CF
:205DF0000000BBF1000FC5F8008001D006F0AAFD4FF480002060D9F8580040F21E216FF3EE
:205E10001F40814215D9D9F80000D9F80030C0F30365C3F3034005B16D1E072805D0062809
:205E30000EBF0720801C00F00F0045EA001006F8080CC7F38140401E02D0401E28D024E06D
:205E5000D9F8D000810C20D24FF480412160D6F80210420AC0F3033502F0800221F08F0161
:205E70000A4345EA0201C6F80210D6F80120031263F30302C6F80120316800F0E70521F0FF
:205E9000E70145EA0100306002E04FF0004020604FF40070206406F0FDFC40F0300084F867
:205EB000C800C7F38150002838D0401E0CD0401E28D0022127E0C04694022243AC3F005059
:205ED0000000094044600C40404606F0C1F805460420294605F094F9042006F0B9F8854252
:205EF000FAD10198056825F07F4006F035F802984069036807214FF06022280E98474FF4DB
:205F1000806020600321042005F07AF90DE0C046566208400A600840BC12005004204146F3
:205F300005F06EF9114806F017F8D9F8B0001049104E47F6180700F03F0084F8CB0F029DDF
:205F50000F8030682868C1680220884740210398094C016007B0C4F80080BDE8F08FC04691
:205F70000000204300800C4040A00C40BD37860070B00C402C2009409404604200A00C4015
:205F9000A401001008B506F0D7FCA94901200860FEE728B1001F06288CBF1820E8207047EE
:205FB0000020704708B58DF80010012201466B46612002F0E5F908BD08B501468888022839
:205FD0000ED1BF4A1068002808BF182109D0886804F052F911688847FFF7DBFF014600E0E2
:205FF00027213620FFF7DEFF08BD08B5024610780B461870501C04F03FF95880D01C04F0A5
:206010003BF99880501D08BDF0B5AD4C054610346E782068ADF1140D50B3A86802A9FFF7E4
:20603000E4FF342E034618BF002203D104F024F99B1C024613F8017B352E03D1A988B81D21
:20605000884212D0342E0ED1A98807F10800884209D1009364683B4602A803C8A047FFF73C
:2060700098FF014605E0272103E024683A46F3E718213046FFF796FF05B0F0BD0EB501904C
:206090000821ADF8001068460421ADF80210FFF70EF8002814BF002002980EBD13460A4663
:2060B0000146612002F06CB90EB501900821ADF8001068460521ADF80210FEF7F8FF0EBD7D
:2060D0002DE9F04101468888ADF1180D082835D17B4C0C34206878B3886802A9FFF785FF4A
:2060F000024604F0C9F895788046F82DC8BFF825A81CC6B23046FFF7C1FF071C1AD0B81CAE
:206110000090246802AB93E8030042462B46A047041C07D13C70314633203A467D70FFF777
:20613000BDFF02E0FFF735FF04463846FFF7BCFF2CB910E01A2402E0182400E0272404A806
:206150000021022204F020FC8DF810403320022104AAFFF7A3FF06B0BDE8F0811FB5024661
:206170009088002105280BD17C4C206840B1906802A9FFF73AFF226802A803C8904701469D
:20619000684604F082F8322004216A46FFF786FF00901FBD1CB501468888052812D16F4CD2
:2061B000103C2068002808BF18210CD088686946FFF71BFF22689DE803009047FFF7E9FE82
:2061D000014600E027213120FFF7ECFE1CBD1CB501468888092816D1604C143C206800284A
:2061F00008BF182110D088686946FFF7FEFE04F083F8246802469DE803000023A047FFF753
:20621000C8FE014600E027213020FFF7CBFE1CBD544A02200521FFF741BF08B543216846A6
:2062300004F055F8012002216A46FFF737FF08BDFC00204310B541780024312909DC31298E
:206250001ED049B3491E24D0491E1FD02E391AD008E0323911D0491E0CD0491E012906D95B
:20627000891E01D026241AE0FFF7A6FE17E0FFF7CBFE14E0FFF724FF11E0FFF76FFF0EE0B2
:20629000FFF788FF0BE0FFF7A2FF08E0FFF7C0FF05E0FFF7C2FF02E0012000F048F820461D
:2062B00010BD314B014618680A083CBF01F00101084303D36FF000424A40104018607047F3
:2062D00030020020B0B5264D6F680022ADF1180D8DF8042067B101A82449009004AC0B683E
:2062F0008988236004ABA18093E803000123B8472A681C4C4AB1A11D04A80B688988036043
:2063100004AF818097E80300904721680DF1050001602779077114480068400805D3412016
:206330008021062201AB02F02BF806B0B0BD1FB58DF800000E48143004685CB10B4902A836
:206350000A688988026002AB818093E8030001226B46A047FFF716FE00901FBD4802002081
:2063700038020020F00C00007C100020F60C00002C0200202DE9FE4FB94C0F460646F80BAF
:2063900080F02081B80880F0BA80DFF884B2DFF890A2DFF89882DFF89C92B80F6DD29B487D
:2063B0000678002E4DD138094DD39B49994A58460024012504700E78157016B1204606F051
:2063D00015F8964806F0B2FA96492246504606F030FB9548DFF868A2017801291DD141464C
:2063F0000E78D6B9924D286888B106F01BFA4A469249914E13682D680A68C01A000B82187A
:206410003060B2EBC51F28BF0C6007D20A608E484FF0005106F0D8F92CE0057050464480BD
:2064300040F609010180417B01F0F00141F001014173017B01F0F00101734460814E306031
:2064500018E0390914D2B80BC0F0D9802046001D06F0FAFA061C08D0706830B17468F068EC
:20647000B6F9101082A20CCAA04727F40057C6E00021017027F00807C1E074495046002276
:2064900006F0D7FAF06840F6C411814218D1042005F0DEFDA0B14D46286888B16C4C206835
:2064B00070B906F0BFF929682060814226BF401A401E401A000BF060F06800F58D70F06035
:2064D0004446207858B10220ADF80000684605F06DFF00215F4E2170BDF8080030805E4938
:2064F0005E4B584601240022047008781A70401C0870192006F0EEF927F000577FE004F1D4
:206510000C0A504606F0A0FA061C52D005F070FC7368326A00253562DBB196F8243042F0B7
:2065300002024FF0000990465B1E07D05B1E03D09B1E06D150A002E051A000E052A090E8F0
:2065500000037268F068B6F910104B4694464246E047B4F91200401C6FF31F3060825046C9
:2065700006F0B6F8F068B0F98C10B4F9122091421FD13C49097801291BD090F88E409CB962
:2065900004688CB1384909680968B1F1FF3F10D0364909686830B4FBF1F106F0B5FAF06809
:2065B000683006F0ADFA04E080F88E50284604F0C3FD504606F048FA27F0020708B147F05C
:2065D00002071CE006F0D8FA01462046083006F03BFA0646346A084606F0CAFAA0080CD256
:2065F0005EB17068316AA143316230B17568F068B6F9101000232246A84727F480471FB181
:206610001148394606F0E0F8BDE8FE8F5F2000205B2000205920002062200020F9AA00007A
:20663000B81F0020C1C200005D200020582000203C2000204020002048200020382000209F
:2066500004200020001004406C1E0020898B000044200020381F0020632000205A2000209C
:20667000F01F0020981000204C200020240D00000000000020000000000000000000001026
:20669000000000000000004000000000000000202DE9F04F0128ADF1140D40F0F280DFF8D4
:2066B0001492D9F8DC00012840F0E9800220C9F8DC0006F065FA0290012005F00BFA20B123
:2066D00001210646C9F8DC10D5E006F001FA03906E484FF00008C0F80080012005F0B8FC57
:2066F000012818BFCDF8008004D1404604F0AAFF0120009066486E4CC0F800801934D4F8E3
:20671000FF0F112006F02AF900280CBF46460126102006F023F908B146F002060F2006F00D
:206730001DF908B146F004060B2006F017F930B1584800685849006B0246088890470A203B
:2067500006F00CF90028404618BF01204FF0805B0BF5DC7528B128685049006B02460888D8
:2067700090474F480127076028688069014646F0200088474B48076006F0EAF800F0010163
:206790000191400815D2484806F0B4F88246BAF1040FF8D0BAF1010F06D1DBF8D8014068C2
:2067B00002464148032190474049086820F003000860404600F080F82868D4F8FF1F806B36
:2067D0008047019801280ED0BAF1010F06D1DBF8D801406802463448394690473349086856
:2067F00040F0030008602A480760286840690146304688470B2006F0B1F828B128682649AE
:20681000C06A0246088890470A2006F0A7F828B128682249C06A0246088890472048076054
:206830000322C9F8DC201F4BC3F800802868406B0146304688470128F8D1042005F04AF9AC
:20685000124807601A48D4F8FF1F01688909FCD30098012802D1384604F0F4FE06F072F8F9
:20687000082005F037F906460398C9F8DC7006F02BF904F081FD029806F076F902E0042630
:2068900000E00126304605B0BDE8F08F0C40094000022243B8010010260B0000220B00006F
:2068B00028200860800104430040034024220840141009403C0B00202DE9F84FDFF80CB279
:2068D0000746ABF13500DFF8F8910068800880F0E78005F02BFC054680480830D0F80080B4
:2068F00000244FEA28725FEA985002F101020AD2C5F13E0015F10A0F4FEAE000D8BF0820A3
:206910008242B8BF021C6B4B5FEA98600CD25FEA586009D31868C0F3042005F0F2FF0646D3
:206930001868C0F304600BE053F8D00CC0F3046005F0E7FF0646A3F513700068C0F30440E6
:2069500005F0DFFF96198246162E05DA16F10A0FB8BF6FF0090600E01526574A574806F064
:206970001F0141F4F8511180006810F0030F18BF0124C00828BF44F002040FB144F004047D
:20699000494691F90700281A052804DA8879A04208BF888864D0DFF82CC10F2DA5F10F02E5
:2069B00025DB02EB02124FEA222EBEF1070F88BF4FF0070E7746062F88BF06275CF82700FC
:2069D000042303EB87036746FB581B1A03F0FF07E00824BFC3F307200744A00824BFC3F3A6
:2069F00007400744600828BF07EB136701E00027BE465CF82EC0E0080CF0FF0324BFCCF364
:206A100007200344A00824BFCCF307400344600828BF03EB1C63A2EB0E22BFB25743BAEBF7
