:20E0000038B50D4604460DF0C5FA05482168816061680160A168416028460CF0E2FF38BDEF
:04E020008446002012
:20E0240001464878801010F0030F12D000F00302C248022A0FD100F1130212884FF6FE73F0
:20E04400934208DD8B794979002001EB0321914205D1012070470930491D0DF039BB704744
:20E064000B2206F0E1BA0146C04A087A022808D10B881146891F098800208B4208BF012010
:20E084007047104610380DF034BB704710B504460320ADF1180D04F128018DF802000020CA
:20E0A4008DF8030001A80DF021FB6068007804F11C018DF80C000DF10D00FFF7D1FF04F169
:20E0C4002800FFF7D0FF58B14FF6FF7453206946ADF800400BF07AFEA4482146801F0180A1
:20E0E4000DF1020009F071F906B010BD1FB5014604208DF8020048788DF80300B1F89A00E5
:20E1040001ACADF80E00903120460DF008FB2046FFF7A9FF48B14FF6FF7453206946ADF8F8
:20E1240000400BF053FEBB4804800DF1020009F04CF900901FBDF0B5064600210B22ADF141
:20E14400240D0DF1190006F07BFAB348B34F04683078C01E16D0801E04D0143812D0801FF4
:20E16400012833D801208DF8180006F18F0103A80DF0BCFA03258DF81450D4B1207801286D
:20E184000FD016E000208DF8180006F18F0103A80DF0ACFA03258DF8145054B1207801283D
:20E1A40007D13C460DF1020004F174010DF09EFA05E03C46B4F85A00ADF8020002258DF842
:20E1C4000A50B4F85600ADF8160018E002208DF8180006F1320103A80DF0A1FA0DF1020000
:20E1E40006F128010DF09BFA3C465634208806F11C01ADF816000DF11900FFF731FF0B207E
:20E204008DF8000077788DF80170684609F0DDF809B0F0BD19210AF0D7BF70B5BB4C05466D
:20E22400261D306820B1FFF7F5FF30460AF0B1FF28460AF015FF656070BD704700B5092021
:20E24400ADF1140D8DF80000EE208DF80100684609F0BBF805B000BDB54800884FF6FE71DD
:20E264008142D4BF03200220704710B542784B78C2F38102C3F38103934209D1022A09D0E0
:20E28400032A05D1401D491D0DF022FA02460BE0002010BD4B7944790022A34204D189791C
:20E2A4008079814208BF0122104610BD38B5034654781D7A0020C4F38104A54217D1022C9F
:20E2C40007D0032C13D1521D184611460DF000FA38BD957954791B8804EB05249C4206D1F5
:20E2E4001379D27802EB03228A4208BF012038BDAD49B1F850204FF6FE73934205D00222F6
:20E304000272B1F850100180704746310DF007BA7047022808BF01207047A549491C0870C4
:20E324007047A44908B5096831B10A78012A03D1C96B09B1884708BD002008BD9D4200203E
:20E344009C4A08B5126852B11378012B07D1926B2AB19047002814BFF420002008BD18202F
:20E3640008BD01460A200A460AF087BEB6420020914A08B5126852B11378012B07D1526B5B
:20E384002AB19047002814BFF420002008BD182008BD08B50AF05BFE38B10DF00BF820B10C
:20E3A40002200CF02AFC002008BDE22008BD7F480078704770B5814D083D28688047064698
:20E3C40008F0F1FA08F011FB7D4C563C94F9720008F0CFFA08F0D7FA08F0EEFB08F0F1FBA9
:20E3E40008F0F5FB69683046884794F8730008F0B7FC522004F159010BF0E8FCFFF7D7FF05
:20E4040008B90AF067F870BD014604200A460AF034BEC046B0420020684B0020604200205D
:20E4240068486949C1616949016269494162694981626949C1626949016369494163694962
:20E444008163694981606949C1606949016169494161694981610021017070472DE9F041E2
:20E46400664C07462068804780460020FFF755FF1FB10BF09AFC0AF080FA5248001D006826
:20E4840028B10178012902D1406800B180470AF021F85B4D95F9000008F06BFA08F073FAFE
:20E4A40008F08AFB08F08DFB08F091FB554F072657F8040B00B18047761EF9D10AF078FC64
:20E4C4000AF044FE0DF037F902F0D3FEFFF7A8FF616840468847A5F17207522007F159017E
:20E4E4000BF074FC97F8730008F03AFC0020BDE8F081344808B5001D006828B1017801290D
:20E5040002D1806800B1804708BDC0462C4900202C4808B5001D0068002808BF182005D0B2
:20E5240001210170406800B18047002008BDC046BA42002098B550200DF0CBF9214C0746E5
:20E54400241D276017B90DF055FA276820680021502206F075F8002038702B4C7C602B4B35
:20E56400BB602B4AFA602B4939612B4C7C612B4BBB612B4AFA612B4939622B4C7C622B4B0F
:20E58400BB622B4AFA622B4939632B4C7C632B4BBB632B4AFA632B4939642B4C7C642B4BDF
:20E5A400BB642B4AFA6498BD60420020664B0020654B0020684B0020684B00208C46002015
:20E5C400B6420020644B00203FE2000019E200001FE20000991501003BE1000085170100CB
:20E5E400A910010043EA000039B7010047EB0000F1E00000ADEE000091E000008446002046
:20E60400D242002050490020E17A0100537B0100017C0100697C0100957C0100AFFB0000BE
:20E62400F3FC00005D00010083F1000099F2000013FD000013AD01001FAD0100FDAD010041
:20E64400F5AC01004D7D0100B57D0100897E01002F7F01002DE9F04FDFF8DCC292F8088083
:20E6640009AF89460646ADF11C0D049339F07F05039206BF604600884FF6FF700590F08A6D
:20E68400800934BF002008203076F08AC00834BF102080207076F08A400903D260460E30A5
:20E6A400007800E00020B076F08A41082CBF20240024000928BF44F010047568307D4FF0A1
:20E6C400000B09F07F096D1E02280EDB0C2808DC0C2804BF4FF0020B44F4085444F00304E2
:20E6E40004E00D280CBF02200120044396F88C1009B144F00804200900D329B1DFF83CA2F9
:20E704009AF8683013B909B1DF20DDE0200910D3049A039906F12803304604F04FFE002842
:20E7240040F0CF80F08AC00828BF44F0100475686D1E736DABB9F36D9BB99AF88110012938
:20E7440003D13089B0F5EE7F06DA200904D202290BD144F4005401E044F480544FF0010B6C
:20E7640003E044F408544FF0020B44EA8934B9F1020FA4B20AD0B9F1030F10D1ED1F0AF158
:20E78400740128460CF0B2FF6D1E08E0BAF85A00001205F801099AF85A0005F80109BBF1AE
:20E7A400020F0CD0B9F1000F15D0B8F1000F0CD004990598814208D144F040040BE0B8F154
:20E7C400000F08D1B9F1000F05D00599081205F8010905F8011944EA8824B8F1020FA4B2FF
:20E7E40009D0B8F1030F0ED10399ED1F28460CF07DFF6D1E07E003990888001205F801095D
:20E80400087805F80109B8F1000F05D00498011205F8011905F801093878E0B9307D0D28E8
:20E8240014D068B9706D28B99AF84400411C8AF844100DE09AF86900411C8AF8691007E0E1
:20E844009AF85200411C8AF8521001E004F05BFA05F8010901E044F48074201205F8010918
:20E864002C7070683189401B7560C0B240183081200928D3F06D00B17062C648006828B168
:20E884000078012802D1307D0D281CD1B26A12F1150002D10DF0AEF8B26A916A481C90621A
:20E8A400706A3289F162471B0092D21B019090B20290B06A96F88C202B46153004F0DFFD4C
:20E8C40008B1C1B201E000200146707007B00846BDE8F08F30B50446606800256062ADF13B
:20E8E400140DE5657820A4F8500094F8300065650F2808D004F13001204601222B460BF075
:20E9040072F808B116E0284694F84010FF2901D1E16D21B104F1400120460BF001F848B9E5
:20E924002B4601208DF80C30032101AA00902046FFF790FE05B030BDB642002060420020BB
:20E94400B0B504463520112204F19101207504F1700005F069FEFF21102204F1400005F023
:20E964006FFE0F21102204F1300005F069FE94F8900004F14005002840D0401E2BD0401EFE
:20E9840016D0401E18BF19204ED12A2002272870042367644FF4102205F8103C032162635C
:20E9A400204684F86F10FFF795FF071C3BD137E02A200A272870042367644FF44C1205F87F
:20E9C400103C02216263204684F86F10FFF782FF071C28D124E02A2002272870042367640A
:20E9E4004FF4102205F8103C01216263204684F86F10FFF76FFF071C15D111E02A2002273C
:20EA04002870042367644FF4502205F8103C00216263204684F86F10FFF75CFF071C02D1DC
:20EA2400204602F0F1FCF8B2B0BD08B58DF8010011218DF80010684608F0C7FC08BDB6493F
:20EA440008B50A6892B1117801290FD190F88F1019B9FFF775FF60B109E0012909D11069D3
:20EA6400804700280CBF0020192000E01820FFF7DCFF08BD2DE9FF41064696F89D000028DC
:20EA84000CBF012005200427F08206F19001377501A80CF044FE706896F89C50B6F89A808F
:20EAA400401E7060411E7160C94B0570347D71680025481C7062601E087030897565801C61
:20EAC40030811868F56560B30078012829D106F1700006F190010CF009FEBE4C206886F8F7
:20EAE4006F7010F47F0F0DD086F83070206806F1300101222B4600F47F00706330460AF0AC
:20EB040072FF206810F0FF0F0BD02A2086F84000206806F1400100F0FF00706430460AF014
:20EB2400FFFE00953046032101AA4346FFF792FD071C02D1304602F067FC38460090BDE878
:20EB4400FF8138B505466C78ECB9D448B5F89A100088884218BFE82405F19000FFF783FACF
:20EB640040B995F89D0040B19948C01E007820B9E82408E0002085F89D0024B92846FFF7FE
:20EB840079FF041C05D06C701A20287028460AF060FB38BD684B00202DE9FE4F0CAF8946DE
:20EBA40098460446D7F804A00192514602F0FAFD0646D448011D0D68002E00F0A8803988A1
:20EBC400F1828346347535B12878012803D1012C04BF1520307506F1840051460B2205F0CB
:20EBE40023FD012C04D00D2C1CBF7068401C00D17068706200277765002DF76549D02878E8
:20EC0400DFF8A0A201283ED1052C18BF012C3AD14FF00409F18A86F86F90A14886F86D70D7
:20EC2400C90938BF29380078019986F86E0006F170000CF05BFD504600EB8405286810F44F
:20EC44007F0F0DD086F83090286806F1300101223B4600F47F00706330460AF0C4FE2868A3
:20EC640010F0FF0F4FF003090BD02A2086F84000286806F1400100F0FF00706430460AF059
:20EC84004FFEDBF8045025B12878012808BF0D2C13D00097019A434630464946FFF7DAFCEE
:20ECA400071C35D1E41F012C03D8707E40F020007076304602F0A8FB2AE00520554686F8A5
:20ECC4006F0005F13400016811F0F70F12D02A2186F840109BF80020006806F14001012AAE
:20ECE40000F0FF0070641CBF20F00800706430460AF016FE0097019A434630460321FFF7B7
:20ED0400A9FC071C04D1304603F086F900E01A27F8B2BDE8FE8FC046684B0020F8B505469C
:20ED24000E460520287096F849006968E870F06B4861686806F128010CF0F1FCB6F84200F1
:20ED44006968488196F8460069684874686800240476BF4869680078C873686806F11C01D7
:20ED64001930FFF77DF9307C69688873706810F8011B6A68918110F8013B6A68918941EA27
:20ED84000321918107786A68F91117F007071174214607EB470218BF012189184018401C54
:20EDA40010F8011B297201F00702E860491001F0380101EB420140187268318968618B1844
:20EDC400834239BF2C72211C801A091A2974F8BD684B002078C20100F8B505460E46052009
:20EDE400287096F849006968E870F06B4861686806F128010CF093FCB6F84200696848816E
:20EE040096F8460069684874686800240476904869680078C873686806F11C011930FFF7A0
:20EE24001FF9307C6968887396F8600090B330460BF0B8FC071C2ED1306F8DF80040212120
:20EE44006A460BF005FD002808BFEB271DD0017801F00F01297210F8011B0911697201786C
:20EE640001F00F01A97210F8011B0911E972017801F00F01297310F8011B091169734178F0
:20EE84000078274600EB0120E881306F0BF013FD346700E0EB273846F8BDC046B64200208C
:20EEA400DE42002068C2010070B50446A089ADF1480DC0F30130022840D06068974E4078D5
:20EEC400C00923D3B4F842003546323DB5F8561088421BD10B480078B0B995F86000A8B154
:20EEE40004F12800FFF7BFF880B9012000901C340194B5F8563005F1460203210620FFF7C4
:20EF04004BFE38E0644B0020FFF798F902A8002118220CF095FA08A82146039002A8FFF75C
:20EF2400FDFE2C208DF8080002A80AF092F935462878D0B19DF81800B8B91CE094F8600028
:20EF4400C8B102A8002118220CF07AFA0120002124228DF80A0008A80CF072FA08A8214679
:20EF6400039002A8FFF738FF28B905208DF8080002A808F02AFA12B070BD2DE9FC4104463E
:20EF8400DFF89CC160689CF85A609CF85B3088460721401E00F8011921890025491C2181C8
:20EFA400F82100F801195F4900F801590F78002F04BF291C0F1C03D04027012100F8017971
:20EFC4001BB1491C00F8013989B21EB1491C00F8016989B20FB142F0080200F80129491C3B
:20EFE4001E2200F8012989B200F80119891C8AB2C2F3012141F0880100F801193F2700F87C
:20F0040001290C2600F80179634605700B22E58261682675091AC9B2606004F1840021818F
:20F0240003F1610105F000FB00952046022142464FF6FF73FFF70EFB071C06D1607E40F022
:20F0440020006076204602F0DFF93846BDE8FC81E2420020F8B50546212085F83400012394
:20F0640085F830300024EC820E46EC650C20287568686C65401E68600721017028891A463E
:20F0840005F13001401C288128460AF0ACFC28B905F1400128460AF043FC08B1074617E074
:20F0A4001F4905F184000B22613105F0BDFA00942846022132464FF6FF73FFF7CBFA071CCD
:20F0C40006D1687E40F020006876284602F09CF9F8B2F8BD18210AF077B801780C2901DA02
:20F0E400FFF7F8BF7047014609200AF0D4B80E490E4808600E484860124A91640D48886011
:20F104000D48C8600D4808610D4848610E48106414385064002090817047C0469242002006
:20F12400A0440020CF420020A0440020DD75010069770100BF770100E977010055790100F7
:20F14400657A01002C490020804B002080B502465378107840EA0320C7134FEAE0130F70A9
:20F16400DBB24B7000F07F00488002D12A2B00D110B90022104600E0921C4A6080BD7CB52C
:20F1840015460E46044600E0041920466946FFF7DDFF00282ED014F8021F8E42F4D1491E3F
:20F1A40004F1010420D0491E12D0491E08D0491E18BF622029D102281CD12078287023E0D5
:20F1C400032817D114F8010B2870207868701BE007280FD161782078A41C40EA01202880CA
:20F1E40020682E1D30600FE0052803D120780628287001DD67207CBD0020641C6860A37839
:20F204002E1DB3702088308000207CBD80B502465378107840EA0320C7130F70C0F3C323BC
:20F224004B70C0F30A00488005D0042B03D1802801DA022802DA0022104600E0921C4A6079
:20F2440080BD80B502465378107840EA0320C7130F7007BFC0F3062300F0FF00C0F3C323CD
:20F26400C0F30A004B70802848800DDA02280BDB012B0CD0022B0AD0042B08D0052B06D08F
:20F28400062B04D0072B02D00022104600E0921C4A6080BD2DE9F041884614460546ADF11C
:20F2A400300D08A9FFF7B2FF5FEA000C00F0C480AD1C022628460AA9FFF7C3FF071C00F04F
:20F2C400BB809DF82900804509D0F6197D190CF10200B61CAD1CB6B2B042EBDCACE0401E49
:20F2E40005F1020500F08B80401E52D0801E38D0401E2BD0401E24D0401E18BF622040F05A
:20F30400AA80202F40F0988028686F6805F10801206004F10806676001F108050A684B6854
:20F32400326004F1100773602A6868683A6005F108067860306804F11801086073684B60EC
:20F3440088E0022F78D12888208083E0202F73DC2046002120220CF073F83A4620462946F1
:20F3640076E0042F68D12888AD1C208015F8010BA070287800F00100E0702878C0F3400011
:20F3840020712878C0F38000607128784011A07160E00A2F50DD0DF1020000211A220CF033
:20F3A4004FF828682D1D20602988271D42F20B00398069460BF020FDBDF80000A18888424C
:20F3C4003ADCA81C10F8011BA17110F8011BE17110F8011B217210F8011B0123C1F3C2022C
:20F3E400A2720DF1020200F07DFD28B39DF81A00A081BDF80670E78104F1100026E0042F0D
:20F404001ADD0DF1020000211A220CF019F815F8010B207015F8010B607015F8010BA070CC
:20F4240015F8011B0DF102020023C1F3C2002071284600F057FD08B967200CE09DF81A00DE
:20F44400E080BDF80670278104F10A0002A911220BF062FF00200CB0BDE8F081F0B501297B
:20F4640004460546ADF1140D14BF42F2030042F2020069460BF0C0FC04B16D1C08F0AAFDB1
:20F48400C01DC010C0B2002830D000230646ADF1010E1F4618461EF801CF00224CFA02F101
:20F4A40001F00101884211D028B97F1CBFB25CB102EBC30103E03CB102EBC301491E05F81A
:20F4C400011B091205F8011B80F00100521C082AE4DB761E03F10103DDD130B12CB1D80038
:20F4E400401E05F8010B001228700FB9002005E004B12770012000EB870080B205B0F0BDB7
:20F50400014610B50020FFF7A9FF044608F062FD34B1C01DB4EBE00FB4BF0120022010BDA9
:20F52400002010BD2DE9F04106AF3D793E68984604460B1CADF1180D074611D0012B15D130
:20F5440030797379641C3870B17904F8013B337A04F8011BB17A04F8013B7389181201E059
:20F564003178707804F8011B04F8010B8AB9002D0CBF42F20C0042F20D0069460BF03CFC38
:20F584009DF80000BDF8003004F8010B181204F8010BB8F1010F34D0B8F1020F39D1002D05
:20F5A4000CBF42F2020042F203000DF102010BF023FC7589CDB1681E01468B100DF102020E
:20F5C40001EB5371C910CBB2811000EB517121F00701401AC0B20121401C01FA00F0D15C68
:20F5E400FF3080F0FF000843D054E81D0DF10201C21020460BF090FE7089C01D04EBE0048A
:20F6040007E0002D14BF022101212046FFF726FF0419E41B06B0A0B2BDE8F081F0B5044610
:20F624000846ADF16C0D401E6BD0401E0DD0801E00F00781401E00F0ED80401E00F0E0800E
:20F64400401E00F0A880002040E142F2010002A90BF0D2FB42F20B0003A90BF0CDFB42F265
:20F6640006000DF10F010BF0C7FB42F2070004A90BF0C2FB42F205000DF10E010BF0BCFB1D
:20F6840005A800F0B3FB05460DF1110142F209000BF0B2FB9DF81100002808BF002303D050
:20F6A4000220FFF72DFF034602A8006803A920600988271D3C46B81C218005F007079DF817
:20F6C4000F609DF80E109DF8102000F8011B9DF8114000F8016B03F0030600F8012B620758
:20F6E40047EA926141EA861100F8011B05AC0094012701979DF811202946FFF713FF0A3090
:20F704009DE042F206000DF10F010BF075FB42F2070004A90BF070FB42F204000DF10E0122
:20F724000BF06AFB05A800F061FB05460DF1110142F208000BF060FB9DF81100002808BFEA
:20F74400002303D00120FFF7DBFE03469DF80E009DF811209DF80F709DF8106004F8010BEC
:20F76400510704F8017B05F0070704F8016B47EA916003F0030640EA861004F8010B05AAB5
:20F784000092002701979DF8112029462046FFF7C9FE001D53E042F215000DF14A010BF0DF
:20F7A4002BFB0DF1520542F2160029460BF024FB0DF15A0642F2170031460BF01DFB0DF1C6
:20F7C400620742F2180039460BF016FB0DF14A0001682160406860606A6804F108035A60BF
:20F7E40028681860306803F10801086074684C60386801F1080528607A686A60202065E020
:20F8040042F2140012A90BF0F7FABDF8481002200A1258E00AA8002120220BF011FE42F21F
:20F8240013000AA90BF0E8FA0AA80CF0FFF802460AA920460BF070FD0AA80CF0F7F880B2E4
:20F8440044E042F20E0008A90BF0D6FA0DF1220142F20F000BF0D0FA0DF1230142F20A0039
:20F864000BF0CAFA09A942F210000BF0C5FA0DF1250142F211000BF0BFFA0DF1260142F29F
:20F8840012000BF0B9FABDF820009DF823209DF824709DF825609DF826509DF8221004F8E6
:20F8A400010B02F00102001204F8010B07F0010042EA400206F0010042EA800205F0070022
:20F8C40042EA4012042004F8011B22701BB0F0BD2DE9F04782460F4602264FF480390AF1D7
:20F8E400020509EA070027EA09074FEA4909B0F580301CD0B0F5803015D0B0F500300ED029
:20F90400B0F5802009D0B0F5002004D0B0F580102ED1072404E0062402E0052400E00424AC
:20F924004FF0000805E002244FF0010801E00124A046A81C2146FFF771FEB8F1000F08D01D
:20F9440004F00F04C0F30A0141EAC42141F4004105E004F07F0400F0FF0141EA042105F8BF
:20F96400011B36180912B61C2970B6B245196D1C002FB6D1022ED8BF00260BDDB01E4FF6A6
:20F98400FE770AF8010BB819C0F3022040F0A0008AF800003046BDE8F0877FB5044642F2A4
:20F9A400010001A90BF028FA02A8694608F0A3FB0298019AC01C0290824206D8801ABDF8F8
:20F9C40000600290701CADF800009DF80000BDF8006004F8010B301204F8010B029855080D
:20F9E4000026334619040004030C000419434019334641EB06010AF0DBFD04F8010B010AEA
:20FA040004F8011B050C04F8015B060E267000907FBDF8B5051C0E4606AF04D0012D0CBF47
:20FA24000624002400E002240EB9A41CA4B2012A06D0022A0ED15889C01D04EBE00008E010
:20FA44003878002814BF022101210020FFF706FD001984B22046F8BD10B5401EADF1380D29
:20FA640028D0401E09D0801E4FD0401E43D0401E3FD0401E3BD0002048E002A800F0B6F9BE
:20FA8400044601A942F209000BF0B6F99DF80400002808BF002203D00220FFF731FD02467C
:20FAA400012000909DF8041002AB2046FFF7B1FF0A3028E002A800F099F9044601A942F299
:20FAC40008000BF099F99DF80400002808BF002203D00120FFF714FD0246002000909DF85B
:20FAE400041002AB2046FFF794FF001D0BE020200CE002200AE042F2130005A90BF07CF9AD
:20FB040005A80BF093FF80B200E004200EB010BD70B5064602244FF4803505EA0600AE4371
:20FB24006D00B0F5803018D0B0F5803013D0B0F500300ED0B0F5802009D0B0F5002004D075
:20FB4400B0F580100FD1072008E0062006E0052004E0042002E0022000E00120FFF77CFFCE
:20FB64002418A41CA4B2002ED7D1022CD8BF0024204670BD02460021012303EA02009A4384
:20FB84005B00401E0BD0401E07D0801E03D0001F07D1093104E0091D02E0C91D00E0491DDE
:20FBA40089B2002AE9D10846704710F47C1F04D110F00F0F06D0FFF7DDBF10F00F0F01D133
:20FBC400FFF7A6BF002070473EB504460D4642F2040069460BF010F901A808F05AFA0198E6
:20FBE4009DF80010000200EB51009DF8001004F8015B00F54070B0FBF1F004F8010B010ADD
:20FC040004F8011B000C20703EBD2DE9F04F07460020ADF1140D4FF001081D4616468A46D9
:20FC240001904FF0030B03904FF01509CDF800800446029008EA0A002AEA080A4FEA480826
:20FC4400401E39D0401E22D0801E12D0001F47D106B17766072007F8010B4B4607F8013BA0
:20FC6400022207F8012B3846FFF797FE0934BF1D35E0022007F8010B042307F8019B002DDE
:20FC840007F8013B0CBF02982878241D25E01EB1376696F86F00019005204B4607F8010B1F
:20FCA400009A07F8013B019907F8012B3846FFF78BFFE41D3F1D12E007F801BB07F8019B03
:20FCC400002D07F801BB04BF039807F8010B03D0287807F8010B6878641D07F8010BA4B28F
:20FCE400BAF1000FA6D1204605B0BDE8F08F60B111F47C1F04D111F00F0F06D0FFF785BFDB
:20FD040011F00F0F01D1FFF7E3BD002070472DE9F04F734E0025ADF11C0D0746A8464FF005
:20FD2400010B05934FF6F77A069110980095C146049046E017F8020FAD1CADB2401E1AD040
:20FD4400401E09D0401E04D0401E32D1022C30D134E0032C2DD131E0072C2AD1B978787805
:20FD6400FB1C40EA01203082196806F11402116086F825B022E0052C1BD1CDF80490B91CCC
:20FD84000A8801A80280897881700698694609F022FF06F11C00009B01687BB1019A588D86
:20FDA4001A6040F00200588559600AEA0000588504E008EB0400801C1FFA80F8E7196419A7
:20FDC400A5B2384602A9FFF7C1F9041CB2D1022D03DC4D466720C84600E0484605990D807D
:20FDE400049907B0A1F80080BDE8F08F7CB5044608F0D6FA606008F0E9FA207208F0EAF824
:20FE04000021608165682170924B61700A4600925968A9420CD1197A267AB14208D1598984
:20FE2400814205D1187820705E78667010467CBD00990C33491C05290091E9D901207CBDB2
:20FE44009EB507460C466846FFF7D0FF87B1012F18BF002019D161680198227A9DF80870E5
:20FE6400484087EA020109186289BDF80A0006E020789DF80010627841409DF80100504013
:20FE840041184FF0000008BF01209EBDF8B504460D460846112200210BF0D2FA94F800C084
:20FEA400BCF1000F1AD0641C00214FF0010EE078A37843EA0023207809E0C610AF5D00F093
:20FEC4000702401C0EFA02F2C0B23A43AA558342F3DA491C241DC9B28C45E8DCF8BDC046CC
:20FEE400DC4500202DE9F04F154601F00709C1F3C2074FEAA11804468346ADF1140D0C229D
:20FF0400002102A80BF09CFA5248B9F1000F36D0B9F1010F5FD1228803A9A6780A80E41C40
:20FF24008E7014F8011B01F00F018DF8101022880DF112031A80BDF81230A41C4FF0000C98
:20FF44002B76039ECDF800C04168B14207D1017A9DF81020914202D14189994208D0009966
:20FF64000C30491C05290091EED96046614601E0017840788DF808108DF8090022E014F8BE
:20FF8400016B14F8013B8DF8086000228DF809300C38019210F80C1FB14202D14178994278
:20FFA40007D00199491C05290191F3D91046014603E04168027A4089287603918DF8102086
:20FFC400ADF81200484602A9FFF73AFF18B1EF701FB1022F05D0002039E02188281DA41C19
:1CFFE4000180B8F1010F27D0B8F1020F2CD1BDF81210A81DC91DCA1021460BF05B
:020000040001F9
:200000008DF9BDF81200C11D04EBE104F0B1401E811000EB5171C910C9B26D18AB79871010
:20002000012600EB577121F00701401AC0B2401C06FA00F0FF301840A87107E0A91D204602
:20004000FFF726FF207804EB8004641CA4EB0B04A0B205B0BDE8F08F9C4A00202DE9F04FD6
:20006000ADF1540D129114934FF0000A13927E49CDF808A00A68074610A8026049684160EA
:2000800038460CA9FFF7C4F85FEA000800F0DB80DFF8D8B1BF1C4FF0020938460EA9FFF72F
:2000A000D2F8061C00F0CC8005A851461A220BF0C9F99DF839506D1E7AD06D1E40F0B980F4
:2000C0000A2E40F3C080BF1C38686C4620603F1D398801AD42F20B0029800DF106010AF016
:2000E0008DFEBDF80600BDF80410884200F3AB80BF1C17F8010B17F8015B17F8013B8DF8D8
:20010000140017F8011B8DF8155005AA8DF816303846FFF7E9FE9BF800100028074400F0DB
:200120009280012908F102057DD04FF4005003A90AF064FE03A810A908220BF04BFC30B1EA
:20014000129903A808220BF045FC00286BD142F2010069460AF0E3FD42F20B0001A90AF0DE
:20016000DEFD42F2050005A90AF0D9FD0DF1150142F206000AF0D3FD0DF1160142F2070085
:200180000AF0CDFD0DF1170142F209000AF0C7FD9DF8170030B1022845D10DF11A0142F270
:2001A000030002E006A942F20D000AF0B8FD3AE0042E48DDBF1C17F8010B17F8015B17F8DA
:2001C000014B8DF8140017F8011B8DF8155005AA8DF816403846FFF787FE0028074432D02D
:2001E000129802A909F0F9FC029808F1020518B9129809F058FD0290418D1A2241F0040187
:200200004185103005A90BF089F89DF8170050B19DF82C400DF11A00214607F0F0FE241A5E
:20022000029880F8284009EB0600801C1FFA80F903E0F71908F10205BF1C4D453FF72DAFAA
:20024000B9F1020F03DC52466720514605E0A8EB090208F102015046921C139B1980149997
:2002600015B00A80BDE8F08FE4C30100644B002038B5C048BE4C2060BF486060BF48A06146
:20028000BF48E061BF482062BF486062BF48A062BF48E062C7482063C748A060C748E06082
:2002A000C7482061C7486061606C08B10BF0F4FA0823C54884F840300025E0630B226564EE
:2002C000C74B84F84850294604F149001D7004F0B9F904F154000B22294604F0B3F938BD9E
:2002E000BF48401E007808B1FDF7AABF704710B504460620ADF1180D04F128018DF80000B9
:200300000DF102000BF0F4F90DF10A0004F11C01FDF7A8FE684607F05AF806B010BDBCB556
:2003200004460920207560680D461112401E00F8011906AF00F801293978BE4A00F8011965
:20034000B2F85A10091200F8011992F85A1000F80119191200F8011900F80139411C6162C7
:20036000217D491E017061682289091AC9B289186060287A2181032814BF002001207C494C
:200380000B224931E08204F1840004F04FF90020032160654FF6FF73E0652A460090204634
:2003A000FEF75AF9071C02D1204601F02FF83846BCBD1FB5044694F89A0038B304F18F01D6
:2003C00001A80BF095F903209A498DF80C0091F873000090B4F89820B1F85630204601A925
:2003E000FFF79DFF0146DC290DD0DD290BD0E42909D0F32907D0DE2905D0DF2903D0E829C0
:2004000018BFDB2902D1204608F0E0FE00901FBDF8B515460C4606460AF00EF8810001EB73
:200420000011332091FBF0F214F8011B002001F0010C4B0802D3C64B1F7817B9BCF1010F47
:2004400000D001208B0808D338B196F8463014F8010B9842CCBF00200120CB0802D20128C2
:2004600008D0F8BD58B120789042B8BF002006DB641C0120C1F3C1070FB121782960F8BD50
:200480002DE9FF418046B2483730007801280CD1374890F85C7047B1BA4990F85D00CA19CB
:2004A0001679085C401D84B201E000263446A134B8F1000FA4B21CBF0B34A4B23519AD1CCB
:2004C000A8B204F08BFA071C45D000212A4604F0B9F807F14000FF21102204F0B3F807F1BA
:2004E00030000F21102204F0ADF8A7F85040E0197860B8F1000F3E8112D00122212087F895
:20050000302007F13001002387F83400384609F06CFAE8B907F14001384609F003FAB8B9F0
:200520000024FC8207F18400C2493C750B228DF80C4004F07BF8FDF791FE234601AA01469E
:2005400000933846FEF788F8002808BF381C03D0384604F0B1F900200090BDE8FF81B6490F
:2005600009780829A8BF07210170C800C0B270477445002071090100550A010055070100C7
:20058000F1050100CD0501002D0B010095050100A10B0100A94910B50446486C20B1FFE7A4
:2005A00000224A640BF078F908202070204606F00EFF10BD550E0100B3030100090F0100DD
:2005C000EF020100E10201008D910100044808B5007860B197480C38007840B902E0C04618
:2005E000654B002000F0A8FB08B100F00FFF08BD10B5044656480078ADF1180DC0B10120A2
:2006000000238DF8000004F128018DF801300DF102000BF06DF86068007804F11C018DF827
:200620000A000DF10B00FDF71DFD684606F0CFFE06B010BD604200202DE9F0430646052029
:200640004FF00309F082706886F81490401E7060411E716096F89A10017096F89A00ADF116
:20066000140D18B14FF6FF70A6F89800B6F898707068411E7160391201707068411E716024
:2006800096F898500570347D7168481C7062601E0870308906F18F01001D308101A80BF007
:2006A00027F806F18F050024AE488DF80C90DFF8B88274650068F465B8B30078012834D199
:2006C000042786F86D40F08A86F86F70C00932BF4046404629300078294686F86E0006F104
:2006E00070000BF005F8A14D286810F47F0F0DD086F83070286806F130010122234600F44F
:200700007F007063304609F070F9286810F0FF0F0BD02A2086F84000286806F1400100F076
:20072000FF007064304609F0FDF840460094401C0388494601AA3046FDF78EFF071C02D15A
:20074000304600F063FE384605B0BDE8F083C0469142002010B50446FFF76EFF0146DC29D0
:200760000BD0DD2909D0E42907D0F32905D0DE2903D0DF2918BFDB2902D1204608F026FDD9
:2007800010BDC046C8C3010070B52C4E0546706CAE4C90F8300020B1606810B10078012887
:2007A00018D0AB49687A81F83D00A87A81F85C00287B81F833005F2005F1240109F008FBE9
:2007C00005F12601602009F003FB05F12501612009F0FEFAE87A207006F0D7F805F1080141
:2007E000E82009F0F5FAE91DE72009F0F1FA207838B1291D502009F0EBFAA91DE12009F043
:20080000E7FAA24A01200021127860700F2A18BF011C86F8481006F149000B2205F10E01FA
:2008200003F004FF06F1540005F119010B2203F0FDFE70BDC8450020DE46002074450020D5
:200840002DE9F0410546E87A002709281CBF0A28E827287B08B1042800DBE82795F83400FD
:20086000DFF8C08228B14046006810B1007801283AD0A87A8028C8BFE827687B1028A8BF4A
:20088000E8270F2804D0A8490988090938BFE827A97B884202DA0F2918BFE827EE7BDEB1C4
:2008A00095F828101029A8BFE8270F2901D0884202DA0F2918BFE827688DB0F5804FA8BF27
:2008C000E8270F2905D095F829000A2801DB102802DB0F2918BFE8276C481D3000884FF637
:2008E000FF71814208BFEC2734200AF0F4FFAB4C0028606408BF1A2704D0606C291D342283
:2009000003F094FE95F8340028B14046006810B10078012823D017BB95F828000F2804D1E2
:20092000688D43F6FF71814219D0E86AB8B195F83000A0B10AF0CFFF206630B9606C0AF0A7
:20094000ABFF1A270020606409E0206EE96A95F8302003F06BFE95F8300084F864003846AA
:20096000BDE8F081684B0020B542002074C2010090B504466078ADF1140DF32832D0DF28F6
:2009800030D0E8282ED0DB282CD02046FFF758FF071C04D1607C10B194F8340028B16148C0
:2009A000006810B1007801281BD004F11201092000F0FAFEA8B102218DF80C104FF6FF7296
:2009C000ADF80420A77A0097238901A9FFF7A7FC0746F32F05D0DF2F03D0E82F18BFDB2F8A
:2009E00003D16770204600F035F805B090BD0146082008F052BC014605200A4608F03FBBA4
:200A0000014603200A4608F03ABB08B58DF800006946012008F041FC08BD6049C0484165CC
:200A2000183181651039C165B7490162B749B84A8162BC49CA60B74A0A61B74A4A61B74A88
:200A40008A61818941F0020181817047644B00206042002038B50446607880B9B24D686C08
:200A6000FFF792FE686C90F8300040B1AF48006828B10178012902D1806800B180472D2018
:200A80002070204608F0E7FB38BDC0469D4200202DE9F047A64C81462068884680478246A1
:200AA000A4486668006820B95046B0470020BDE8F087002507462C46844220D0787E30F0C2
:200AC0007F0018D07A6841464846FDF7F1FB90B144B1207D012812D16168087840F0100070
:200AE00008700CE03C46607E40F010006076207E40F08000207657F80C7C002FDED15046ED
:200B0000B04764B18948006830B10178012903D1406908B1804701E000F0B8FD01252846F5
:200B2000BDE8F087684B00203849002030B50446207CADF1240DC0081AD3B4F8421004F1E3
:200B400028000546FFF7A4FF90B904F11C0106A80B2203F06BFDFDF781FB01463020009061
:200B600006AB0193B4F842302A460120FEF716F810208DF8080004F128010DF10A000AF0A1
:200B8000D0FD01258DF81650B4F84200ADF8140002A806F01CFC09B030BDC0467445002093
:200BA0002DE9F8430020A94E009030688047A84D009F6C6A8046A74220D0607E30F07F0058
:200BC00017D0608A401E80B2608290B954F80C9C05F1240021463A4603F0E6FE68462146A8
:200BE00003F0BAFD95F82E004C46401E85F82E0002E0274657F80C4C002CDED171684046C5
:200C0000884795F82E0078B1BC4800780F2802D0BB48007840B9BB4C204608F0CCF94FF4BB
:200C20007071204608F089F9F026E92509E000F0D5F9607EC00834BF66706570204600F08E
:200C400045FE684603F000FD041CF0D1BDE8F8832DE9F84FDFF8F4A10446DAF800009146F6
:200C60000D46804783467A48476A0026804614E0787EC0090FD379684878C0F3810003289D
:200C800009D1E41F491D20460AF032FD10366D1EF6B2EDB2641E57F80C7C002D18BF002FDE
:200CA000E6D1DAF8041058468847DAF800008047D8F8247007B301227968491C0B78C3F3D1
:200CC0008103022B14D17B7EDB0906D2397E89090ED389F800205DB90EE0497904F8011922
:200CE000796849796D1E761CEDB2F6B204F8011957F80C7C002FDFD1DAF80410884704F870
:200D000001692046BDE8F88F90BF010071020100830F010035100100EF100100DF1001004A
:200D20002C490020B046002074450020684B002084460020D44600202DE9F04FBC4D95F84D
:200D4000680095F83D8095F85C9095F833B00026ADF1140D01288DF804600CD1C94991F889
:200D60005C7047B1C44891F85D10C219445C92F804A0641D01E0B24634460DF10500FFF737
:200D8000EEFB95F83C1040182418A134A4B20AEB0400801C80B203F021FE071C51D031463E
:200DA000902203F04FFCE4197C6095F83C20A7F808A0A96B7868841A801A03F037FC01AA3D
:200DC0009DF805107C62601EFFF742FFAB4900F8016995F831200978344641EA42014BEA04
:200DE0008101090141F00F0100F8011948EA0913037079683A897C65091AC9B2FC6589182E
:200E0000398178600B22FE829D493E7507F184008DF80E6003F00AFC9DF8040018B1F88AAE
:200E200040F00800F882FDF719FA0DF106022346014600963846FDF70FFC18B1384603F0F6
:200E40003BFD3746384605B0BDE8F08F84460020B0460020FEB5054600278B4C95F860009D
:200E60008DF8057080B3284609F09EFC60BB286F3E461E218DF8046001AA009609F0EAFCC6
:200E8000011C12D1218843F6FF70884218D0286F21210DF1050209F0DDFC9DF80500394686
:200EA000B84218BF01210F460AE028466A46FFF7AFFA28B100980127C0F380108DF80500DD
:200EC000286F09F0FAFC2E670D480078A8B16F48007890B98FB19DF8050048B1218843F6A4
:200EE000FF70884204D09DF80500FFF7C9FA01E0FFF722FF08B100F089FAFEBD9D420020B4
:200F0000654B0020A84500202DE9F843604C05462068804781465F48476AE726A046EFB1AB
:200F200000220446787E30F07F0007D0387D012804D1287997F89D10884205D03A4652F8E0
:200F40000C7C002FEED109E004F12400394603F02BFD94F82E00401E84F82E00D8F80410D9
:200F6000484688473FB1384600F038F83846F02108F02CF900262846314608F027F9BDE812
:200F8000F88338B5054600F029F8424C04F11800006880472649012812BFB1F85E00B1F8AA
:200FA0005E00401C688294F82E0060B991F83D000F2808D1394D284607F0FDFF4FF47071D9
:200FC000284607F0BAFF344D2868804794F82E10491C84F82E106968884738BD2DE9F8434C
:200FE000DFF8B4800646D8F80000804781462C4804680027A74210D0657E35F07F0008D00D
:2010000060687168FDF733F918B105F0BF052746657654F80C4C002CEED11FB1787E40F0C0
:20102000400078764046416848468847BDE8F8836042002038B50546687E00F0EF00687639
:201040002846FFF7CBFF134C294604F1240003F0D7FC114D2868804794F82E10491C84F855
:201060002E10696888470F4800780F2802D1082008F08CF838BDC046C8C30100644B0020BF
:20108000C845002074450020CC420020BC45002084460020B046002084460020A845002004
:2010A000D44600209D420020817B0429ACBF0D211221017006F08BB900F11002490892B2BF
:2010C00024BF00F129018AB21228CCBF05200220801880B2C00080B2704700F0D7BA08B519
:2010E00007F0B0FF002814BF2020012008BD417E41F0010141767047864808F04CB82DE9E9
:20110000F84F0AAF3C885FEA030993460E4605464FF000081CD0DFF8F0A2DAF80070002F31
:2011200031D0387801282ED1B96900292BD009F0FF00884707B2DAF80000816909F47F00D8
:201140008847C01900B2001D00B2CC3087B200E0CC270CB1241DA4B2A9480078012809D19E
:2011600046B1A848811991F8048010F80B003F187F1DBFB2601938184044801C80B203F05C
:201180002DFC061C02D10020BDE8F88F08EB0500E3193081002C06EB030070600EBF002063
:2011A000B819801C00217822C6F8A40006F10C0003F048FA7F19E41906F14000FF2110224F
:2011C000A6F8504003F03EFA06F130000F21102203F038FA3046BDE8F88F70B505460026D0
:2011E000A84C2E70B5F89E006E70C10804D294F82F10022904DA05E094F82E10022901DB0B
:20120000F12134E0410A12D395F8B01002292DDB00F0040100F00100084327D13434204601
:2012200007F0C9FE95F8B010204607F086FEB5F8A800A8B1D5F8A40090B16868401E68606C
:20124000F82101706868401E68600670B5F8A8102A896868401AE86589186860891C298151
:2012600089480078294603F073FB70BDE821284607F0ACFF70BD3EB5824D05F124040EE014
:20128000204603F0E1F90090684607F084FF0AE0204603F0D9F9019001A807F07CFF686AD0
:2012A0000028F5D1241DA86A0028E9D100206862A86285F82E00B54CEC6385F82F0085F8F3
:2012C00030003EBDB2490978022901DA03F086BB00207047B84980B50988002089080BD300
:2012E000AB49303991F82E702FB90F6827B17F7E37F07F0700D0012080BDAF4810B5008817
:201300000024800803D306F05AF800B10124204610BDC0460C3E0020F8B50090828912F040
:2013200007013BD0491E55D0891E4FD1C2F30131022903D14168097807292DD00189002957
:2013400044D041684A1C009E42600F78B446F7739CF8246086B9002F38D00A2F36DA6046C2
:201360008C4E0189F01910F8010C884209D0082F2CD1082905D029E06046C07B30B30A280F
:2013800024DA60460189491E0181C17BC77B0B310170791CC1731FE032211CE0B74C563C5F
:2013A00094F83D000F280BD007F04CFE40B9101300F00200022803DAAE4801680098884736
:2013C00094F8731000980174152104E0684607F0E2FEF8BD16210170A54C009904F128004E
:2013E00003F0BAF9A44D2868804794F83010491C84F8301069688847202007F0C7FEF8BDC1
:20140000C8420020C8C30100684B002070B5064607F028FE307E000904D2307D012808BF8B
:20142000022100D00521304603F023FA20B3954C616930468847F08AE168C00819D2924DF5
:201440002868804794F82F10491C84F82F1069688847F08A400A14D28948006830B101786D
:20146000012903D1406908B1804770BD00F00EF970BD3046884770BDF1207070304600F02B
:2014800025FA70BDB04600202C490020BC49BCB50F680546002067B33978012929D179494C
:2014A00095F898700A68DFF8F8C2BE4957B925232B75D28AD20938BF6146097885F86E1044
:2014C000891C06E015232B75D28AD20938BF6146097885F86E10042185F86D0005F19002C1
:2014E00085F86F10136805F170073B6052687A6001E00121297595F8A1302B7795F8A0709B
:20150000EF760446EC65B5F89E106C6595F8B120E98295F830306F6885F820200F2B6F624A
:201520000AD00246B5F8A80005F1300100B901222346284608F059FA58B995F84010FF29F9
:2015400001D1EF6D27B105F14001284608F0EAF908B1074618E0009495F89C10B5F89A30C3
:2015600005F190022846FDF777F8071C0CD12889B0F5FA7F03DC2846FFF748FF04E0E520D0
:201580006870284600F0A2F9F8B2BCBDDB100100E046002034C2010010B504460648008849
:2015A0000021820804D2B4F89E20D20828BFE82110F0600F07D101E038490020B4F89E0063
:2015C000800828BFE8212089B0F5006FA8BFE82194F89C0028B994F89800002808BFF52134
:2015E0003AD0002938D16648D4F8AC10006821B1002830D0017801292DD130B300780128F2
:2016000023D1D4F8AC00B04B40F002000146C4F8AC00187818B141F00800C4F8AC00D4F8BC
:20162000AC1011F0FF0F05D02A2084F8400001F0FF03636411F47F0F07D00420D4F8AC3014
:2016400084F8300003F47F0060632046FFF71EFF011C01D110BD1821204607F0B7FD10BD59
:20166000B44808B5006808B1804708BD002008BDB0460020B846002084460020B6420020E9
:20168000684B0020B046002084460020F8B5AC4D286880470646A84C6968206800286CD17C
:2016A000A0698047676A40F01000002F64D00022797E0140884205D03A4652F80C7C002F6C
:2016C000F6D159E004F12400394603F06DF9002F52D02760787E30F07F0005D194F82F001B
:2016E000401E84F82F0004E094F82E00401E84F82E0069683046884723681889D98AFFF7A0
:20170000DBFCA0858D48007808F027FB0546D88A000A08D3D87E05F025FB206890F91C003C
:2017200005F029F92368D88AA78D400A0FD2687B012805D0022822D1062002F085F8F8BDFE
:20174000187E401080F0010000F00100F5E767B193F820604EB196FBF7F01F8983F8210087
:20176000122FD4BF0C20282002E0012083F8210083F822000320E0E7696830468847F8BD30
:20178000684B0020B94808B5006830B10178012903D1406908B1804708BDFFF777FF08BDD9
:2017A000B5420020DE4200202DE9F84FDFF8D4A2DFF8BC82DAF80070054605EB08062B3E1F
:2017C00034788946D7B13878012817D1B969A9B1AF0058F8070000F0FF0088478346DAF86A
:2017E000001058F80700896900F47F008847584480B218B131784018001DC4B29D480078C6
:2018000001280CD199F808704FB19B4899F80930C1190E79C05C0019401DC4B200E000269D
:201820000D2D09D106EB0409B9F1F80FD8BF934F1CDD0AF0E1F805E030198146801C03F01C
:20184000CDF8074697B9022003F0C8F8011C0AD008EB050010F80F0C1A270870884E4F70F1
:20186000307803F075F80020BDE8F88F09F102023846002102F0E6FE07F10C0000217822E2
:2018800002F0E0FE07F14000FF21102202F0DAFE07F130000F21102202F0D4FEE019786005
:2018A000022D3E810BDB0B2D09DA7868401E78606D1E05703889641EE4B2401C3881A7F896
:2018C00050403846BDE8F88FB942002098B501460B7D012B05D0152B03D0252B18BF352BFC
:2018E00002D1087E00091ED367480268087EC40916D2012B18BF152B01D1000909D24F7881
:201900001B2F04D0614807B10E30C05C02E0232000E0312008705E48007803F019F898BDA9
:201920004878904798BD4A780846114607F04EFC98BDC046CC460020B0460020E34200202B
:2019400084460020544A2DE9B043074602F18300007808F002FA407B02280CBF06250125C6
:201960004C4C206800287FD0DFF83091002F90465FD01B2F02D1017D05295AD1E92F12D016
:20198000E12F08D105F086FD20B12068C18AC90801D211E02068216A1C2F4BD18847002044
:2019A0002060BDE8B083877EC7B905F073FD90B12068C18AC9080FD298F86410817698F894
:2019C00052104A1C88F8522040688170284601F03BFFBDE8B0832068E9272BE0426801896C
:2019E000104608F0E7FC206841680988090908D349460F682FB13978012902D101F0DAFFA9
:201A00002068C18AC9080DD3017E01F07F010176017D032903D1417E41F004014176216927
:201A200088470AE0817E491E817601F0B9FFBDE8B08300274770FFF749FF2068C08A000A17
:201A40000DD34946086810B10078012803D098F8730005F087F998F9720004F08CFF002058
:201A60002060102007F092FBBDE8B083684B002068C20100C8420020C8C30100F44600204C
:201A80002C490020684B0020B44600204BC201002C490020B046002060420020684B002076
:201AA000A748A8498161A84909784FF47A721030B2FBF1F107F041BAA148A44BB0B50221A2
:201AC000002500F10A041F7921705A79C572A11E27B18C1C207840F0100020700A719C4AA7
:201AE000C2F884100520A2F87800FFF7D9FF2046032108F05FFCB0BD1CB5024695480078DB
:201B00000C4600280CBF0023082393480068A8B10078012812D1914900200860FCF79EFB24
:201B2000009301468E48019403880D20FDF736F810B9FFF7B5FF1CBD01F008F91CBD89489E
:201B400007F039BA70B5894D874968780C780830444388480068864EC06B80477168401A7C
:201B600031788900B0FBF1F18348C01C02783C209040B1FBF0F242436878891A00F10803C7
:201B8000B1FBF3F25A43891A401A2018083070BD784810B50068C06B80470446FFF7D2FF8D
:201BA000734909788B00D84900FB034291F8580000F0F00040F0020081F858006B48401C29
:201BC00000784A65083080B203FB002291F83C0000F0F00040F0020081F83C0091F87400CB
:201BE0008A6300F0F00081F8740010BD10B56349C54C0878052812D094F83C00614B8978D8
:201C00005F4A00F0F00040F0030084F83C00187808304143107880004843A06309E004F190
:201C20003C01087800F0F00008700020A06301F06FFD94F8740000F0F00084F8740010BD72
:201C400098B5B14C074668B1401E03D0401E24D120461AE094F84010204601F0E70141F0A4
:201C6000100118E0204600F17402117890F83C3001F0F00111700022826303F0F00180F84B
:201C80003C106FF05B0380F8413090F8401041F0080101F0EF0180F84010002F08BF44F667
:201CA00020600CD008F044FC4FF4FA670A2244F6206390FBF2F15143401A07FB0030A06471
:201CC00098BD30482E4900780978083041432B48C01C007848438C498000086791F87400F8
:201CE00000F0F00040F0030081F87400704770B5234EC84D30788400E869C06B804771683A
:201D00003C22401AB0FBF4F0B0FBF2F15143401AC1490A789101A1EB8201091AE869C06B34
:201D20003C318EB28047784904FB0600086791F8740000F0F00040F0020081F8740070BDD1
:201D4000A04B0020812301004C4C0020003E0020F0470020043E0020684B0020A44B002022
:201D6000B6420020B04B0020D44B0020304C00204C4C0020144A0020B9420020D24B0020C7
:201D80004C4C0020314C00202DE9F04FC24D80462868ADF1140D08B909F02EFECE484FF03A
:201DA000010BBE4F80F800B03878012803D05846002109F0C6FC28680489466808F045FFB5
:201DC000B74F30883A6800093BD3002A39D010782968012835D1886A00F1280C8B6EDCF82D
:201DE0000000B0F1FF3F00F0ED80002B00F0EA80421CCCF80020C862020E03F801292868F1
:201E000090F82E0003F80109286890F82D0003F80109286890F82C0018702A68506A009411
:201E20000190801B201A80B20290D16A906A92F88C203346153001F024FB3A68002840F045
:201E4000C1802146304608F0B5FA642003A908F057F83F68DFF82C9327B14846397800787A
:201E6000012906D0C848007803F024FA012805D0A4E003F01FFA012840F0A080DFF888C0A3
:201E8000A01C241D761EA1B2ACF878004D46C1F3022040F0080006F801090027317005F1DB
:201EA0000C09CCF884609DF80C60ACF86A70002E0CBF49F24E0047F60E206446C4F8C000D3
:201EC000B24DC4F8800028688047AA46B24BB04D0490B8F1010F30D0B8F1050F2DD06E69A8
:201EE000D9F80000B8F1060F06F108061CD194F8402004F13001120908D24A7B02F0F002B1
:201F000042F0010207E0C046F04700204A7B02F0F00242F003024A730023678602228DE802
:201F20000C009C4B366836E0A4F86A70022100228DE8060004F16801F4E794F83D00364A42
:201F400000F0F000521C40F003006E69127884F83D0094F840006FF0520140F0180084F8A4
:201F60004000D9F8000084F841104FF4FA51A16404F1300142B9A4F84E70022100228DE8BB
:201F8000060004F14C0105E067864FF0000802278DE88001B6685A46B04780490880DAF8E9
:201FA0000410002808D4C84A92F900006834401C107004982C600EE0049888471A2001F048
:201FC000F5FD09E0516C002908BFE420F7D0BF4A00201070E420884705B0BDE8F08F08B59C
:201FE000FFF73EFB50B1BB48B94900680968884204D20120FFF7C8FE012008BD002008BD8B
:202000000620FFF7C1BE0320FFF7BEBE0220FFF7BBBEC046F8490020D14B00207CB5AE4934
:202020000860048945686946642007F069FFCA4E6D1EA01C241DA6F87800A1B2C1F302208D
:2020400040F0080005F8010928462970091FC6F8840089B2801C08F0ADF99DF8000000289E
:202060000CBF49F24E0047F60E20C6F8C000C6F880007CBDB949C88C401CC8844748B8491E
:202080008162B849097840F648522030B2FBF1F101F2A32106F051BFB04600202D4C0020C0
:2020A000684B0020B049B1482DE9F047012500240D70DFF82490DFF8B8820470AD4800F151
:2020C0006A0637888A460221114000261E40002E08BF002914D101E0F3490020A6A090E80B
:2020E000C0001F401640002F08BF002E34D0FFE7424692F90000401E107001F0CFFA2BE0A7
:20210000424692F90010491E1170C7B9418E43F20842234646468A4204D190F8400000097F
:2021200038BF2B1C184601F06FFC4846047096F90000F0B196F90000002817DD1DE0B7F521
:20214000505F07D1B848B949006800F5C070086001F017FD08F0F8FC48464246047092F9FB
:20216000000030B192F90000002806DC09F044FC03E02046014609F0E4FA8AF80040BDE8E2
:20218000F087C046304C0020D342002084460020004A0020A5200100A1210100A04B002009
:2021A0008446A4482DE9F0418E46012101706F4900250D70A0490D709D496D4C09880027A4
:2021C0001F408046002F4FF0020000EA020008BF002814D168A090E8C000164007EA030020
:2021E000002808BF002E03D11D2001F0DFFC4EE094F90000401E207001F050FA47E094F94D
:2022000000005C4E894F43F208438B42A0F10100207008D0708E1A46921C8A4203D0834285
:2022200018BF824218D1384608300068826C714660469047008843F6030181420BD0284609
:2022400001F0E2FB94F90000002835D094F9000000282EDD34E0708EB6F86A2043F60401AE
:2022600091421CD081421AD0B2F5505F05D0100B0BD31D2001F09AFC07E06B480168384689
:2022800001F5C071016001F07CFC08F05DFC94F9000088B194F9000000280ADD10E028463C
:2022A00001F0B2FB94F9000030B194F90000002806DC09F0A1FB03E02846014609F041FA1A
:2022C00088F80050BDE8F081F5490020AD46002028480020504C0020A44B0020F8B5554DFD
:2022E000234C012000271F402870002F4FF0020000EA020008BF00280FD11FA090E8C0000E
:20230000164007EA0300002808BF002E05D14B48801E818D491C818503E094F90000401E08
:20232000207000F013FD08F00FFC43480026067094F9000030B194F90000002806DC09F0E5
:202340005BFB03E03046014609F0FBF92E70F8BD3B4806F030BEC046F0470020D04B002048
:20236000A93C01004C4C00202D4C0020F4490020F5490020F04700200000000000000070A4
:202380002DE9FE432F4A31491778002F43D02E48077837F07F073ED12D4C274E488C314B33
:2023A00094F874704FF00108002586F80080401C488407F0F00084F874001878256704F132
:2023C0006807012803D04046294609F0BAF908F03CFC204E30688047A4F86A5081461F4D6B
:2023E0001D4A68691E4B8468002102208DE80300106839464246A0471C490028088005D441
:20240000194991F900002F60401C0870716848468847BDE8FE83888C401C888400201070F5
:2024200000F094FCBDE8FE830C0100210C4A00203E4800202D4C0020F3490020D24B00207A
:20244000C04B0020AB460020AD460020D04B0020F0470020844600203C4C0020004A00209F
:20246000DD2201002D4C0020F5490020A04B00209849002008709848007808B900F04ABCD2
:202480007047B84838B50025057094480078862802D1284601F008FC924C20688047904BBE
:2024A00099690A6815710968996161688847FFF7DFFF38BD8C48006820B10078012801D1D6
:2024C00000F0FCBBFFF7D4BF2DE9FF41BC4D05F1080006884488AA69E8686989806D891832
:2024E0000831324602F0A2F8301984B2E868816D76188665A8690122211808310DF10A00BB
:2025000002F094F8641CA4B20422A8696C812118083103A802F08AF8241DA0B2688103A88B
:2025200002F00EF90346EC68039007F096FFE063184607F09AFFC749A4F84000022008702F
:202540002879217C084320749DF90A0004F048FB84F846009DF90A00218984F8480004F1C2
:202560007400A065B4F85C00401A6168002609186160A08984F84760820A18D2020925D3EA
:2025800010F0070F07D000F00700032812BF081C6068401C16E06068C17801F007024910C9
:2025A00001F0380101EB42014018001D0AE0204608F08DF9EC6804F16401086808B1888898
:2025C00080B160686061A089000911D294F86000A8B1204608F0B3F9EC68E06C78B1B4F868
:2025E000500060B9FEF788FDEE6000F067FB6EE0204600F0F5FD6070EC68A0696065C24FBF
:202600003B68002B5DD01878012851D1A089374900F00700022837D16A78002A34D1627827
:20262000002A31D1B0460E4606F11C015B6A088801AA401C0880606E8DF804800421984751
:2026400030B9BA48006818B19DF8041080F86C103868E9680DF10607C46A0097486E4246C2
:2026600002AB2831A047B2480078862808D1F08BEF68401CF083B88900F0100001F018F891
:20268000FEF73AFD46461FE03648027882B160780028AAD19DF80A000B8CA870581C08848F
:2026A00004F11C0104F12800FFF726FAEC683B683BB11878012804D1996C11B12046884768
:2026C000EC682046FEF728FEEE60FFF7D1FE0090BDE8FF81A9460020AB460020AD4600202A
:2026E000003E002084460020684B0020D04B00202DE9F04F0020ADF13C0D0E908248554C1F
:20270000006810B10078012803D0207808B109F073F9812020702A4C0E9DDFF8489094F8D9
:2027200029602778DFF80C820B9504F12800658106F0070289F800500178E77036F07F061E
:2027400001EB0221A0F10800A1F104011FFA81FB40F09C826C490E68BBF5FA7F00F39682F8
:2027600002E0C046AB46002000F10A02417A007A01F0070100EB0120001F81B2104607F08A
:2027800019FEA16904F110000522083101F04EFF217DABF1030304F1130205201FFA83FB6F
:2027A000A57C0C926171E37C608104F11202C3F3011A5F490D9205EB03258EB102E0C046E8
:2027C000003E0020307801280AD10878862807D1BAF1020F04D105F00700022840F056822A
:2027E000281300F00209B9F1020F48DA637805F00700022835D1D8F8006093BBA169684689
:2028000001220D3101F012FF06206081B0478146464E4748D8F8042037680078CDF82880F5
:20282000862819D127B909F0E7F84046376842689DF9000004F0D4F978770B989DF900609A
:20284000B8774846FE77904705F0100000F030FF04E0C046A946002048469047FFF708FEF1
:2028600018E208460E9E0078862808BF0126CDF828803EB10E9801F017FAE77801E0CDF847
:202880002880637887B17BB9012F00F0FC81022F03D115F0070F40F0F681032F04D105F0E9
:2028A0000700032840F0EF81280908D315F4405F00F0E981A5480778002F00F0E481B9F19E
:2028C000020F02DAA80A80F0DE810C980078C0F381098611B9F1010F00F0D581012E00F07B
:2028E000D281BAF1030F00F0CE819948BAF1020F0CD010F80910805D4018C7B206B3E80997
:202900001ED3BF1E0FE0C046684B002000EB09018019097900794018C7B2E8090CD259EAB5
:2029200006030DD0BF1CFFB20AE0C046B0460020AD4600208446002059EA060308BF0227E6
:20294000C5F30028A7EB08008345C0F29C81ABEB07002909404480B2208124BF25210E9178
:202960000E994018743080B2FEF7ACFC94F801A0E060002800F08781DDF82CB07422594672
:2029800008F060FDBAF1000F84F804B003D1CA4905F020000870C8480378DA46C3B1B8F1BC
:2029A000000F15D105F00700032807D1FEF792FC10B9FEF7A2FC08B104202071D44803684F
:2029C00013B11878012801D0FFF776F894F804A0E16801F174004860886523890B812089F0
:2029E000A1F85C0028090ED3C8F1030082B2A1F85C20886D0D9901F019FEE1688A6DB1F83F
:202A00005C00801888650C980D9B0078C0F3011218788D81B8F1000F00F0780040EA020061
:202A20004AEA000008744FF0FF038B730CBF6079584681F8306081F83A9081F8490060896E
:202A4000002FA0EB080085B2658100F01481A0693A46E78029180D9208310DF1020001F018
:202A6000E5FDEE19B5B265810C98E16800780A7C0DF10206C0F38103C0F3011AC0F38109ED
:202A8000002B02F0400B45D00B9BC0F30110022801D1D0090AD29DF803209DF8020000EB64
:202AA0000220A1F8440001AEA1F84200DFF80C83B1F84400B8F84A20824203D04FF6FF72D3
:202AC000824221D1B9F1030F11D07278307800EB022082B24A86B8F84810B61C0120914232
:202AE00011D04FF6FF71914218BF181C0BE0E0683146323008F0FCFDE06808F13F01323082
:202B000008F0E8FD08360346002B00F0B7802046E168C07C831123D0BAF1020F03D0087C7A
:202B2000C00903D309E05BEA090206D172783078B61C00EB0220A1F84200032B0AD07078AA
:202B4000327802EB00220A850AE0C046C8420020ECC30100E0683146283008F0C9FDE16845
:202B600088890009C0F08780886D3A460DF1020101F05CFDE068816D79188165A669B0F860
:202B80005C1001227F18A919A0F85C7008310DF1010001F04BFD6F1CBDB26581E1689DF8BA
:202BA0000100896D0870E2689DF801609DF80130906D401C9065B2F85C00401CA2F85C00FA
:202BC00006F0070082F82400C3F3C10182F82510208992F824708046002F4FD0784F7F18FA
:202BE0003A78121D1646E280864247DCA069291808310DF1160001F019FD3A789DF819C08D
:202C0000111D481980B29DF81650608105EB0C60E3689DF8185000EB05409DF8175004291A
:202C200000EB052098610CDDE0680DF11A01521E1C3001F0FBFC3878E3686844407E83F8BD
:202C40002600986D32460DF1160101F0EFFCE168886D30188865B1F85C00A8EB0607301880
:202C6000A1F85C00781E80B22081B1F85C2008818018A1F85C00FFF727FC0BE0FEF75FFF64
:202C800000F01CF806E0FFF715FC03E0FFF712FCCDF82880DDF82880D8F800008047A269D0
:202CA0000B99136819711168A161D8F8041088470FB0BDE8F08FC046AB460020414838B5CD
:202CC000006808B1FEF718FA424C20688047424B99690A6800251571096899616168884740
:202CE000394A3A49107810B90846007860B115700846057000F00EF835480078012803D077
:202D00002846014608F01DFD38BD344800787047684B002010B507F09BFF04F046F8304C75
:202D2000206830B10078012803D12E4801680120884700F085FF206838B10178012904D189
:202D4000406910B1102006F021FA10BD2648002101702648007808B9FFF7DCBF70477FB5D8
:202D600000242449224D0C7005F10C00046008228DF8044020492C7005F120066C7014303D
:202D800000909DF805000C70694600F0F0008DF805004FF4FA70ADF80600304601F046FC73
:202DA000AE61EC6102F068FA14480078012803D02046014608F0C5FC00907FBDF849002000
:202DC000C8C301000C3E0020A9460020AB4600202D4C002084460020003E0020053E002099
:202DE000684B0020044A0020AB460020A9460020003E0020A9460020AB4600202D4C00205B
:202E00002DE9FC41BF4DADF804002868804780466946722005F07DFDBB4F009C0526183CB8
:202E2000388834F8181F884204D1204601A9022201F0FCFB761EF3D1502001A906F0C8FF85
:202E4000696840468847BDE8FC812DE9F84F83460F4616467120114605F05BFD81206946CE
:202E600005F09EFE4FF0F3094FF0000809E0B9F1000F25D0306808F101055FFA85F82C30DF
:202E800030609DF8000040451ADD3068056890F804A0002402E0641C0A35E4B2A245E6DD5B
:202EA0006B7A002B0CBF052009208742F3D13A462846594601F023FC0128ECD14FF0000991
:202EC0004846BDE8F88F042A08B509D0082A19D1021D0846114608F0FDFB012812D113E0A5
:202EE00002888DF8002040888DF8020012128DF8012000128DF803000422684601F0FFFB31
:202F0000012801D0F32008BD002008BD2DE9FC470A9E80468A461D4691468220694605F0E3
:202F20003FFE98F80C009DF800108142D8BF9DF8000058B3074600247220294605F0E9FCCD
:202F4000D8F808009DF800302018306001788B4218DD32682B68C80000EB0110511CC0189B
:202F600028600A78012A08D04B787BB94A465146FFF7A9FF30B9BDE8FC87487830B90020AE
:202F8000BDE8FC877F1E04F10304D5D1F320BDE8FC872DE9F043054695F830400F469846CB
:202FA0009146ADF12C0D8B2001A905F0F9FD8A200DF1060105F0F4FD95F8250000283BD1A8
:202FC000D4B9BDF804104FF6FE70884206DCBDF8041088422ED10DF1060113E0B5F84400C1
:202FE0009DF804608DF8180000128DF81900BDF804008DF81A6019E0022C08D0032C19D1BB
:2030000005F1280106A808F073FB092612E0287CC00934BFB5F84200B5F844008DF818007F
:2030200000128DF81900288D8DF81A00001205268DF81B00002013E002280CBF052609264D
:20304000012818BF05F11C0104D1892004A905F0A7FD04A9324606A801F0E8FA95F8260040
:2030600006EB0D01C8753A4606A83146FFF7EDFE002841D1D4B9BDF804104FF6FE70884281
:2030800006DCBDF8041088422ED10DF1060113E0B5F844009DF804608DF8240000128DF89A
:2030A0002500BDF804008DF8266019E0022C08D0032C19D105F1280109A808F019FB082209
:2030C00012E0287CC00934BFB5F84200B5F844008DF8240000128DF82500288D8DF82600F9
:2030E00000128DF827000422CDF80080386809A94B46FFF70BFF08B1F32000E000200BB03D
:20310000BDE8F08384460020B6420020FEB505460C4616467320694605F0FBFB832001A96F
:2031200005F03EFDA54F002103E0001D491C0090C9B29DF804008842D8BFDD2028DD009846
:203140008278032C09D00378A3420FD03B6823B11B78012B08BF022C08D0032CE5D10378CB
:20316000032BE2D103465B78B342DED1AB10B3EBA20F05DA02F0030205F003039A4201DD19
:203180000020FEBDC278012ACFD1002DCDD1DC20FEBDF8B5DFF824C2047D002301E05B1C67
:2031A000DBB29C42D8BFDC2019DD07695E00032906EB070506D1BE5D032EF0D16D78954284
:2031C000EDD10BE02D788D4208D0DCF80050002DE5D02D78012DE2D10229E0D10020F8BDBD
:2031E0002DE9F041054695F824700024ADF1200D07A9079406AA069405AB0594FFF7C9FE92
:2032000000283CD1079A6E6968682B89311A581A1FFA80F80AB908F0EFFBB5F85C000090F1
:203220000196CDF808800698001D03900798A969AB6D3A46153000F0B1F900BBB84895F8EC
:2032400060302E89C15D701A288113B1284607F076FBAE8906F00706032E02D168680078B6
:20326000E873EA7B38463146FFF750FFDD280ED00746EA7B07983146FFF78BFF08B1C1B2FD
:2032800032E00698007D234620B9DC2F02D1DD20014629E0A869B0F1FF3F08BFDB2421D0ED
:2032A000712004A905F035FB1E46049AA9690798824208D10698334600EB8300C0688842E4
:2032C00088BFDB2111D8761C2C32022EEFDB0698491CB1F1FF3F00EB8300C16002D10598F6
:2032E0000121817020462146687008B00846BDE8F081F0B506460F460025ADF1240D144666
:203300008B2001A9009505F04BFC8A200DF1060105F046FC707A00282FD1387AA8B9BDF8C7
:2033200004104FF6FE70884206DCBDF80410884221D10DF106010DE0D3489DF804700488F3
:20334000BDF804008DF81A700CE0022807D0032811D1394606A808F0CBF909240BE03888EA
:203360008DF81A008DF81840211200128DF8191005248DF81B00284611E002280CBF052498
:203380000924012818BF311C04D1892004A905F007FC04A9224606A801F048F9B07A04EB82
:2033A0000D01C8756A4606A82146FFF74EFD002814BF281C009809B0F0BDC046684B0020A6
:2033C0002DE9F0410446B14D94F88C6094F88D709846A819EB5D0079C0182389401DC0B2AA
:2033E000C018B0F5FA7FC8BFE52047DC002E44D004F18400FFF77DFFC8F80000002808BF4C
:20340000F3203BD0806AB0F1FF3F08BFDB2035D06068401E7FB194F88E1000F80119E95D26
:20342000491ECDB23DB12919833111F801296D1E00F80129F9D1A066D8F80010896AE162FC
:20344000090E00F8011994F82E1000F8011994F82D1000F8011994F82C1007F0030706F0CD
:20346000070600F8011946EAC706067061682289091AC9B260608918218100206070BDE810
:20348000F0812DE9F04F09AF9B4616460D46ADF1440D3C89D7F80480109000203F888DF80B
:2034A0000000BC4201DAC34501D308F0A5FA002E70D01B4810F80690042EA4EB09044FF044
:2034C0000000A4B2B8BF01205FEA000A0EBF3F1BA04400246E4908230DF10100A7EB0907F9
:2034E000BFB211F801295B1E00F8012BF9D1290E00F8011B2B0C00F8013B2A0A00F8012BB3
:203500009DF8001000F8015B624D06702868109A4369686898470646B6F1FF3F29D001E0ED
:20352000CCC3010001208DF825009DF800608DF826600DF111020D928DF824A08DF82790FB
:20354000CDF82C80CDF830B002218DF83810ADF83A400DF10103ADF83C702E686868326AF1
:203560000A9309A99047064628688269686869469047002E18BFE4200DD1B9F1000F09D08F
:20358000444448460DF1110111F8012B401E04F8012BF9D1002011B0BDE8F08F2DE9F04F26
:2035A00009AF3C897D6816464FF0000A0246002EADF1440DA04610933C888DF800A05FD0FE
:2035C000354810F80690042E03DAA8EB0900C8462D18F868A4EB08040DF101030827A4B250
:2035E000C01D10F801C97F1E03F801CBF9D1080E284F03F8010B080C03F8010B080A03F832
:20360000010B386803F8011B9DF800101E704369786898478346BBF1FF3F2CD0042E04DA8A
:2036200003208DF82400022002E002208DF824008DF838000B959DF800608DF82660012170
:203640008DF8251038688DF827900DF10103ADF83A800DF11105ADF83C40026A0A93109E87
:203660000D9509A978680C969047834638688269786869469047BBF1000F18BFE42000D17C
:20368000504611B0BDE8F08FB6420020C8C30100DB42002090460020CCC30100694801781E
:2036A000832904D1852101701D2000F07FBA70472DE9F0410746B748B74C401D067820685C
:2036C00080478046B5496268087886281CD1B84D05F12A021088401C108087200870FEF7BB
:2036E00037FE616840468847082007F0A0FAE879B04207D127B9002000F058FABDE8F0813B
:203700001B20F9E7E920F7E740469047BDE8F081F8B5B948B94CB44EB94D401C241F37683B
:20372000297800782279002F00F1080002FB00F201FB02F0009029D03878012826D13A6CD1
:2037400022B37F6C17B304F10901684690470746A648A279E3780168A548652F0BD027B905
:2037600005F0AAFBE0B9297810E0002101703846FEF7E8F8F8BD81F86D2081F86E300027A7
:2037800007703068416C1C208847F8BD9948009E04F10C076061B6FBF1F1384605F0CDFB97
:2037A000F8BD10B5974C06F047FEA41EE27801219140FF3108402071A07810B9FEF7E8F9A2
:2037C00010BDFEF713FA10BDFEF73ABA80B587498C480A68801C92F821300968037092F834
:2037E000227091F8221007B901214170FEF769FA80BDA54808B50178081C05D0401E0AD000
:20380000C01E012807D908BDFEF7E9FB30B91C2000F0CCF908BD0846FEF7B6FA08BDFEF7D7
:20382000EFBB99480078022809D0032805D0062801D0FFF7DEBFFFF7F2BFFEF7E4BBFEF7C0
:20384000E5BBC046AD4600202DE9F843B84C0646207808B108F0D0F8A1460120B54989F876
:2038600000000978012902D0002107F06AFFB248B24D854C026880462F6826703046012884
:203880002FD9801E4FD0401E4AD0401E12D0401E02D0401E3FD03BE092F86D00207192F8E1
:2038A0006E006070FFF77DFFD8F80020002A3ED1BDE8F883002F3AD03878012837D1FE698E
:2038C000002E34D0106E28B102210023B047D8F800202F68506E50B3FD6908210023A84739
:2038E00023E000202071D18AAF48C90934BF90F8551090F87E106170277837B990F833706F
:203900001FB10229C4BF02206070FFF74AFF0CE008F072F809E000202071FFF755FF04E0E2
:20392000FFF754FF01E0FEF7E2F9D8F80020BA48007880B91AB908F05FF8D8F8002051681F
:20394000087800F02000A071887860710878800901D2FEF7FDFC2078052819D0B54D2868EB
:203960008047217802290CD0B3490F7817B9B3490F7837B1022189F8001069688847BDE829
:20398000F883832189F8001069688847FFF749FFBDE8F883003E002084460020AD4600201E
:2039A0009D490120087038480078FFF74DBFC046D04B0020BA4800B50268ADF1140D5368B2
:2039C0001189506A00910190C01A091A88B20290B4480390D16A906A92F88C201530FFF773
:2039E000DDFD05B000BDC046684B0020B0460020AD460020513D0100304C0020D44B00200F
:203A00004C4C0020D24B00202DE9F0471E4F3978824631F0010606D0052904D0062902D07D
:203A200007F0EAFF3978B0483D7904220629DFF87092AE4E0270804605F10102D4B23C71B9
:203A400024D1022C5DDCBAF1010F5AD04D4629684868098906F0AEFC286840680088000956
:203A600007D3306828B10078012802D1FFF7A2FF3C792046FFF7A8FE832088F80000FFF720
:203A8000CEFEBDE8F087C046D24B0020854D743D95F85400A04234DB07F0DAF83468387891
:203AA000052808D13CB12078012804D1E16C11B1022088473468787895F86110421C9142C2
:203AC000C4BF401CC1B24D46797029684868098906F070FC286840680088000905D324B16D
:203AE0002078012801D1FFF765FFFFF75AFE3878052809D0832088F80000FFF77AFEBDE89F
:203B0000F087E12000F052F8BDE8F08710B5644C236813B907F070FF23688A480068044696
:203B200006F09BFCD860204606F09FFC188210BDAD4600202D4C0020B0460020684B0020CD
:203B4000B0B5814C206880470546674861680278832A13D17D4A083217783FB98522027075
:203B600028468847002000F021F8B0BD86210170082007F038F8FEF77DFA61682846884799
:203B8000B0BDB54908B50A788878032A07D1022805DB401EC0B28870FEF735FA08BDFFF7C5
:203BA000B5FFFFF7CDFF08BD604200202DE9F0418046194800250570B048394C0570206886
:203BC000007D352803D007F043F803F0EEF8474E37681FB33878012820D1786CF0B121684F
:203BE000087D35280BD14868098906F0E3FB206840680088000902D3FFF7DCFE3768796C07
:203C0000404688479C48007801280AD02846014607F097FD05E0C046AE4600204046FDF737
:203C200091FE206810B1007D352801D006F08CFFBDE8F08184460020A9460020AB46002060
:203C40008F4810B5007810B98E48007808B107F0D3FE8D4C206880478C4A61681378022B39
:203C60001BD17D4C2378052B1CBF832313708847217831F0010008D0052906D0062907D153
:203C800000202071FFF7A0FD01E0FFF78AFD2178052903D0FFF7C5FD10BD884710BDC046C1
:203CA000B0460020D442002038B57949794C088D401C088520688047054674480178862948
:203CC00003D061682846884738BD87210170FEF73FFB616828468847082006F0A8FFE920FA
:203CE000FFF764FF38BDC046AD460020684B002038B5694D2878052801D007F07DFE0420B3
:203D000066492B79674C0870581C04F15401C0B209782871814211DB61480068C16C09B134
:203D200002208847687894F86110421C9142C4BF401CC1B26970FFF734FD38BDE120FFF746
:203D400035FF38BD0C4A002084460020D04B00202DE9FC47544C206808B907F04DFEDFF844
:203D60004081DFF838A1DFF84491D8F8007017B13878012813D04C46206880474C490F7865
:203D800047B94C4A616817782FB9832352461370884749E0616802235246137051E0FE69F3
:203DA00022686EB1106E28B102210023B0472268D8F80070506E18B1FC6908210023A047DD
:203DC0003D4DE8693D4E016CF06888474C4607462068804781463648007868BB35480078E6
:203DE00050BBD8F80000C16C00208847616817F1530F1CDA83215046EF6901707B6CF06861
:203E00006A4600219847B5F90200BDF90010884214BF0020012001F0AFFA616848468847DE
:203E20001D48C01D00783070FFF7FBFC0AE048468847FFF75DFF05E00221504601706168CA
:203E4000484688471E480078012803D00020014607F077FCBDE8FC87D24B00200F4900207D
:203E600008701949087017490978012902D0014607F067BC7047C0462D4C0020AD46002049
:203E8000A9460020AB46002084460020AD460020D04B002084460020D24B0020AD46002090
:203EA000684B002060420020B046002084460020A9460020AB460020F8490020304C002050
:203EC0002D4C00202D4C0020AE4600202DE9F04FC54EADF15C0D1690209D30681F469046F7
:203EE0008A46804715906946812004F059FE6D1C002F51D09DF80000022817DA0120042716
:203F00008DF80A0000238DF808809DF800408DF80B7002A98DF80930601C8DF80000D220B1
:203F200004F058FD8120694604F054FD00274FF0FF0B88F001093C468DF828908DF82970D4
:203F40000AA9D12004F02CFEB8B99DF82A00FF2813D08DF8080002A9D42004F021FE20B155
:203F600071681598884719203DE00DEB8800846102A9D42004F02EFD01E08DF82AB08DF8AE
:203F800028808DF82C408DF82B400AA9D12004F021FD7F1C052FCFDB00208DF848802A785A
:203FA0008DF84900691C0DF14A0000F03FFB012012A98DF85300D02004F00CFD071C0ED199
:203FC00016998DF830800DF13100102200F02EFBCDF844A0D3200CA904F0FCFC0746716820
:203FE00015988847F8B217B0BDE8F08F2DE9F0417D4D044628680E46ADF1380D8047804601
:204000000AA9892004F0CCFD812069468DF8304004F0C6FD002404E07F1CFFB25FB1641CA7
:20402000E4B29DF80000A04204DC696840468847F32023E000278DF804408DF80570D0207D
:2040400001A904F0ADFD0028E6D19DF80F000128E2D10DF106000AA9092200F050FB012873
:20406000DAD18DF8104004A9D32004F099FD69680446404688470998306020460EB0BDE82C
:20408000F0812DE9F047584C2068ADF1280D804700254FF6FF79FF26A0468246012700249B
:2040A0008DF800508DF80140D020694604F078FDA8B99DF80B00012810D19DF80A0068B992
:2040C0000DF101020820002112F8013FFF2B03D1401E01F10101F7D1082937D00027641C55
:2040E000E4B2002CDCD0002F30D100248DF820508DF8214008A9D12004F052FD18BB9DF8D6
:204100002200FF281FD08DF800006946D42004F047FD28B1D8F804105046884719201DE0AF
:20412000ADF80490ADF8069002A83146082200F089FAD420694604F04DFC8DF8226008A9B5
:20414000D12004F047FC641C052CCFDB6D1C022DA4DBD8F804105046884700200AB0BDE8DD
:20416000F0872DE9F04F204E80463068ADF12C0D80470024FF27254683468DF800808DF801
:204180000140D020694604F00BFDC8B99DF80B00012802D19DF80A1019B988B99DF80610B9
:2041A00071B1002814BF082304230DF102005B1E00F8017BFBD105706946D02004F00AFCC9
:2041C000641CE4B2002CD8D0B2464FF6FF792C468DF820808DF8215008A9D12004F0E0FC41
:2041E00000283DD102E0C046844600209DF82200FF2835D08DF800006946D42004F0D0FCEC
:2042000028B1DAF8041058468847192030E026469DF820008DF8216008A980F001008DF85B
:204220002000D12004F0BCFC28B99DF800009DF82210884202D0761C052EE9DB052E0FD14C
:20424000ADF80490ADF8069002A83946082200F0F9F90DEB880069460461D42004F0BAFB84
:204260006D1C052DB4DBDAF804105846884720460BB0BDE8F08F401E082110F8012FFF2A74
:2042800018BF002002D1491EF7D1012070472DE9F04FAC4C82462068ADF12C0D80470026EC
:2042A000FF254FF6FF79A0468346012700248DF800608DF80140D020694604F071FCA8B916
:2042C0009DF80B00012810D19DF80A0068B90DF101020820002112F8013FFF2B03D1401E84
:2042E00001F10101F7D108294BD00027641CE4B2002CDCD0002F44D100248DF820608DF8AF
:20430000214008A9D12004F04BFC002836D19DF82200FF2832D08DF800006946D42004F034
:204320003FFC28B1D8F8041058468847192030E002AF51460822384600F0E1F950B938468E
:20434000FFF799FFD0B18DF8225008A9D12004F041FB13E0ADF80490ADF8069002A8294605
:20436000082200F06FF9D420694604F033FB8DF8225008A9D12004F02DFB02E0641C052CAE
:20438000BBDB761C022E90DBD8F804105846884700200BB0BDE8F08F2DE9F04F814609AF36
:2043A000ADF14C0D387C674C0D903E7BB8689B460F90786811928A4610903F7820680E96D3
:2043C00080470C906946822004F0EAFB9DF8000020BB00204FF6FF758DF800008046ADF817
:2043E0000C509DF80000ADF80E50FF2108228DF8080004A800F026F98DF82080D42002A973
:2044000004F0E8FA9DF80000401CC0B28DF800000528E4DB8220694604F0DCFA4FF0000890
:204420008DF80080454601262C469DF800008DF8094002A98DF80800D02004F0B1FBE8B987
:204440009DF81330012B09D19DF8126036B90DF10A00FFF710FF002840F0D580002F14BFCC
:20446000092205222E469F4208D110990DF10A0000F045F9002818BF01250AD1641CE4B2C7
:20448000002CD2D0002E40F0BE800D98284300F0BA8044469DF800008DF829400AA98DF833
:2044A0002800D12004F07CFB002837D19DF82A00FF2833D08DF8080002A9D42004F070FBD4
:2044C000002838D1119904A8082200F018F928B3ADF80C90ADF80EA065B14046BBF1000F64
:2044E00018BF01200F998DF820009DF800000DEB80008161D42002A904F06CFA8DB10E9EA5
:20450000404606B101209DF82B10884209D08DF82B000AA9D12004F05DFA02E0641C052C98
:20452000B8DB052C6FD146468DF80860D42002A904F036FB40B103490C98496888471920A0
:204540006FE0C046844600200DF1100C6046FFF792FE30B911996046082200F0D0F8002893
:2045600046D0ADF80C90ADF80EA04046BBF1000F18BF01208DF820009DF80000002D0DEBF9
:20458000800000F118000EBFC0F800800F9901601199082204A800F049F844469DF80000B4
:2045A0008DF829400AA98DF82800D12004F0F8FAE82807D09DF82A00FF2803D0641C052C85
:2045C000ECDB13E09DF808000E9B8DF82A00404603B101208DF82C8002A98DF82B00D42051
:2045E00004F0F8F90AA9D12004F0F4F9052C02DB761C052E98DB052E05D10B490C98496859
:2046000088471A200DE09DF80000401CC0B202288DF80000FFF606AF03490C984968884778
:20462000404613B0BDE8F08F84460020034610461A4628B111F8013B401E02F8013BF9D1A8
:204640001046704706F0FEBEB0B5BE4C0546206880472968002908BF002709D00F4657F86D
:204660000C2C2A60002347F80C3CFF2501F8025C616888473846B0BDB34898B5077867B9E9
:20468000B04C20688047B149096831F817206FF3DF3221F817206168884798BD2DE9F84303
:2046A000A948A84D0678286880478146BD48836800273C4680469C4212D013F8020C864278
:2046C00008D134B163B130464FF4004100F08CF808E01C4604B91F4653F80C3C002BECD1B3
:2046E000FFF7CAFF2CB108F1080021463A4600F05BF96968484688472046BDE8F88310B579
:20470000401E491E4AB111F8013F10F8014FA34218BF002002D1521EF5D1012010BD70B540
:20472000BE4C054620688047BD4906464869A84202D1086800F027F861683046884770BD5B
:204740000146CA78087800EB02608A78497800EB024000EB0120704770B5C04C064620684B
:204760000D468047002145F80C1C316811B9356006E0114651F80C2C002AFAD141F80C5C4D
:204780006168884770BD0EB508210190C148ADF800100B21ADF802100168684688470EBD85
:2047A00080480078704710B580F08004022C01DB00F08BF8BF48005D10BD00B5ADF1140D27
:2047C0008DF804000823ADF800308DF8061000208DF808000623AF4803920168ADF8023013
:2047E0006846884705B000BDF8B506460C4636F07F0014D1002E3BD1A64D083D286880472C
:20480000C549096831F81620144321F8164069688847A8480D300068FFF7B5FFF8BD04203C
:2048200000F0DCF8071C23D04FF6FF7038807C80FFF7B6FF5B498C78BD1EFF2802D0896A1C
:2048400040184478FF2C05D1384600F035F800F03CF8F8BD3046FFF7A6FF01463A46FF20D8
:2048600028702046FFF7A9FF10B1384600F024F8F8BDF8B5BC4C054620680F468047BB49F4
:2048800024310E68002E08BF0D600DD033467F1E0026FFB202E07F1E1346FFB253F80C2C15
:2048A00022B92FB143F80C5C012601E0002FF2D1616888473046F8BD30B110F8021CFF29AE
:2048C00002D10C3806F0E8BF704708B50820ADF800000C20ADF80200C24801686846884720
:2048E00008BD70B5164604460D1C08BF052426D034F07F0001D0FFF7E8FF002C18BF03249E
:2049000007D155F80C0C18B915F8020CFF2804D005242846FFF7D0FF11E0012EB24805F800
