:20000000002C00201DBF0000FDC90110FDC90110FDC90110FDC90110FDC90110FDC90110AE
:1C002000FDC90110FDC90110FDC90110FDC90110FDC90110FDC901103BCA0110A4
:20003C00000000007395000000000000FD940000E00900000FC046C0AD040021490400210D
:20005C007D04002181040021110500219105002141060021F8B51047F8B50E46002101259A
:20007C00AD0430470A48037800F00FF89B070BD0124C2078FF2807D0FF2121700E490F24CC
:20009C00240220436031C882F8BDF8B5014800476B020021E54C0000094801E00848000CA1
:2000BC00064C05492278FF2A01D1CA7A22706031C8827046801C004700620840A406002130
:2000DC00070F0808F0B4084770B503461546012906D0002906D0114A2846FFF7BBFF70BD7D
:2000FC000F4800E00F480524834203D84008641E002CF9DCE340012040031818820B012954
:20011C0007D00649002380312846FFF7A5FFE0B270BD0249044B6C31F6E70000835C00000F
:20013C00A0BC862300830D2374060021F8B51A4E0546716B1948CC09E401002D11D018498A
:20015C00097802290FD0007B044372B60120154F4002B847114820380088C109C90704D0A1
:20017C0016E0C07AF0E7407BEEE70F497463CC61400AC0070CD001208003316B002D01D045
:20019C00014300E08143084631630749403948630020B84762B6F8BD8002002188000021CD
:2001BC009B0200217B3F00004040044010B5224A0021516121498968C90009D42149204B0D
:2001DC00CA0598424B6B01D8134300E093434B631D49FFF777FF10BD38B51A4D287F00284F
:2001FC0027D11A480088C009C00722D1124C606900281ED1684600F045F868460078012816
:20021C0017D168464078102813D208206061686A4009400120600E4A0021D1620D4A02216C
:20023C001160012108432060032108436862206038BD0948804738BD0040044018000021CC
:20025C000000930880020021CF680000680000210011044080E200E0C33B00000749002877
:20027C0000D00420064A72B60978C90701D0105800E0802062B640B2704700006B0200219D
:20029C005860044003B40148019001BDA56F000000000000010003000A001F005900EB0072
:2002BC003902EA04F9099712EB1FA132784A0A66FA828C9E63B617C964D6EDDEC1E3E0E532
:2002DC00FF000000A36100007F1407134D00F1242E1F133FB00A3F0007FF000030400040A2
:2002FC000140034007400F404F40CF40CF41CF43CF47CF4FCF3FCF2FCF1FCF0F00000000FC
:20031C000F00080000003F00000040003F000000040068000E00DC00060043001A0005002E
:20033C0000000000020000003F00000000000400C00000000400C0000000070050C0009130
:20035C00007070C00091007082312100319110B10070018101B100A18231329110B101917B
:20037C001110418141224F40F106007051C0019130181039833108D01831416F3100319179
:20039C0010B1831414165B680070251050C00091F4C3C0C02014036F3110410422C08231BE
:2003BC002100319110B163393110410482C082312100319110B163393110A2C082312100AF
:2003DC00319110B1501015310514059200703F6452C0311031066131C102426412C131107C
:2003FC00213971065131E102426400708A65996588C0208250398039001E9F4041C001304D
:20041C001814181A89C0308260398039001EA94041C001301914191A3C64369110B134918F
:20043C0010B154B0007154A064B0F0800022AF404012B09032B053825339533985643F64F4
:20045C0011C122C1426470C1C26811C1C2C0426470C1C76850C000912772989215161416B7
:20047C0042105310F0C12182313131398139313151B070B272652772999270B2621073109A
:20049C00F0C331822131213981391B107265E2C08231608280318039020061B0007132918A
:2004BC0010B151A061B0277230C2F36800008012B09032B0007050C000912772999262107C
:2004DC007310F0C3318221312139813951B070B27E652772989270B242105310F0C12182BD
:2004FC0031313139813931311A107E6551A061B02772B0C018693F6401C122C1426401C1AF
:20051C00C2C04264151A3C64359110B153828564C012B09032B000703F6472C281C0426461
:20053C0022C111C1426402C011C1426462C031C3426462C311C1426402C311C1426453829F
:20055C0053398564E2C347641122404142C281C8426452C211C1426472C2E1CE426402C23A
:20057C0081C8426402C201C84264B0C0546900703F6442C201C8426452C211C0426472C2CB
:20059C00E1C0426402C001C1426462C001C3426422C101C1426462C301C1426402C301C1E3
:2005BC00426453828564007061B000711214231C7A4D339110B10070329110B172690070D9
:2005DC0061B000711318321C8649329110B10070339110B17E690070C2C047641510C2C091
:2005FC001216476441311514C0C0803105145410A07804040070E6C0863101CC1614671068
:20061C006182F0C3010417140070067305720B720E7250B00071818060B050A092804122B4
:20063C00C3458080F1C11004301601110114016CD661D761D861D961DA61DB61DC61DE6121
:20065C00E061E261E461366339639180F2C0210421318280422A1214321601112114016CB6
:20067C00EE610B62F4613963EE610B62F4613963E661E661E661E661E661E6619464E6611B
:20069C00F964E6612A65E6615665E6614667E6611012B0900E720673057210123090A76112
:2006BC00F0CF3C67D4C103C0C0C35464407850915078109260782092707830928078409228
:2006DC00907860923078909110824039F00601101031101400924267E661BCA0E2A054A070
:2006FC00F08050221546408000222B470D6240A02D828D318D391082F1C0100409101A82BF
:20071C004A391A041082803910040E10AB10BC10C21063642972E0CF3C6713B003B0C866EE
:20073C0053B050B054B064B013B0A5661082E0223846AE660071418001222B47F080102225
:20075C004B46F022184764B03122384263B0CE661082E02238467066386264B06F818F310D
:20077C008F3DD0DFFF923C670071418001222B4764B0F0805022654263B01182C12260461B
:20079C00CE6605671182D122524670665262618172818131813D8231823DC0EFF192029377
:2007BC003C670B62B081C091D381978290A2D3187F4EF30B1316E31CA44AC391E3813B1419
:2007DC009062BA1C8B46231E8B4AE31C8B4E90B207228B4290A21B1A9662E31CA44AC3919E
:2007FC00E3813B18AB1CA04E9B1CA24ABC1CA442B2101082D0229D42F0801022A446636498
:20081C00A566A462AB1094629B10946200703082F1C0100463B00071A86ABC10E0B0007010
:20083C00B281C291D281018212185181121841828131813D121CBF4AE2B032B0B0DFF29229
:20085C003C67F1C72114C34E12C86291729131B0E1B0007008C006C000C860917091007071
:20087C000182B081C091D0811018518110180614E18042828231823D201CE44AE2B02122F4
:20089C00E84632B00510A0DFF5923C672122E842E2A032B031824139F0C00104011EF64264
:2008BC00181610C01030081C04476010103C0610F1C76114FA4E16C8669171818131813DF1
:2008DC00161C014B769131B006C008C0007061818131813D408280390118F11C174B01142E
:2008FC00B080C0221747BCB033B090EFF1920F933C67007003A063B064B0EFB056650071D1
:20091C00408000222B4764B02A65EFA00071408000222B4764B003B03862018262818231F6
:20093C00823D80EFF19202933C6703A05665E661A2806364E66150B00071E661E092D08261
:20095C0000223D47C0B20070A080F022594330B002C1623101C0A080001E5243F0225343B3
:20097C00A0F56031603953632010101A136F236E11161216546B0070B59900001D8C000004
:20099C00BD750000719A00008DBE00000D6C000081D1000015AB0000F5CF00000DCE000089
:2009BC00F5CD00005DB20000519F0000CDC8000091AA000059B0000045BE0000C1B000000D
:2009DC00F9CB00000E3FA70C18B80BDA500AD33809CD2C08CB2407C92006C71C05C6180464
:2009FC00C51803C41402421001C310004100F6C00800000051B900006DC70000258B00000E
:1C0A1C006FD10000CBD1000085A90000C5C60000DD7D0000417F0000A1D100009D
:200A3800000B0B0400F5AC00003C00000094090000100A00004C000000080B00038300010A
:200A58000B1900C04600050303010B0B003075000030750B06000B08330B1700010B07005C
:200A7800020B0700030F0B27004648546573740B1A00C5D8000001000000BE080020080027
:200A98000000BCD8000001123456789ABCDEF00B00038B00010B070001010B1A0025CE00AB
:200AB80000A9B90000DFD10BDE00200E0020200E0020280E0020280E00200B080069CC0093
:200AD8000003000000FF00140B0700C0460B0800540E0020540E00201C110000600E0020FE
:200AF800600E0020680E0020680E0020700E0020700E0020CC100000080000008012002052
:200B18000B0400B806000008000000900E0020900E00209C0100209C0100200100000001F0
:200B38000B0B00F7A40B0600B80E0020B80E0020C00E0020C00E0020C80E0020C80E002047
:200B5800D00E0020D00E0020D80E0020D80E0020E00E0020E00E002010100020B3D10B0882
:200B780000FFFF0B0400814B0000A14B0000A5460B6200694B0000474B0000514A0000B9A6
:200B9800490B12004758000091500000AB500000240500200B780010100020101000200B05
:200BB8000400010B0700040B0800020000B81D00200B040007C201100B1000010B1B000DC0
:200BD8002005800E200580FE0B3B00010B0B00C5A70B06007DCF0B08000100300E0020C54A
:200BF800A70B0E00C5A70B0600C5A70B0E000608808007088080FE0B3B00FFFFFF0B2D0085
:200C180040110B0A00010B05000100801100208011002040110B0A00010B050001009C11BD
:200C380000209C110020A4110020A4110020AC110020AC110020B4110020B4110020BC11B4
:200C58000020BC110020C4110020C4110020CC110020CC110020D4110020D4110020F9A4E4
:200C78000B0A0005000000200B0F00CC1100200B040004120020041200200C1200200C1234
:200C9800002014120020141200201C1200201C12002024120020241200202C1200202C12AC
:200CB80000200B18001D1E0000030B0B000600000055CF000055CF0B0600FF7F00000B0499
:200CD800FF0B060040000B0000000000000000000002020400480E00204C0E0020500E004B
:200CF800200205002C002000050205002001010000B0220020020C00020000000000000039
:200D1800000201020B0001020B0004120020021000E80E002002040034010020340100208F
:200D38003C0100203C01002002000000000000000002020800A8100020D4110020010000F5
:200D58000001020F00980E0020980E0020020000000000000000000000010105006CDC028A
:200D7800010800881100200301070081C9000003CF00000100000000000201021300A411A4
:200D9800002002040002000000000000000000000001010400A81000200100000000000034
:200DB800BFD100006FD00000EDD00000000000000001080000000100000000000000000085
:200DD8000001010400010000000000000000000000010108000100000000000000000000E9
:200DF8000001010800010000000000000000000002000000100000000200000010000000AC
:200E18000200000010000000020000001000000002000000A214000002000000C800000014
:200E3800380A000020050020E80C000044010020180D000000010020480D00007801002086
:200E5800700D0000A4010020900D0000C8010020A80D0000E4010020C80D00000002002001
:200E7800D80D0000EC010020E80D0000F0010020F80D0000F8010020080E000030040020DA
:200E9800100E000000050020180E000040040020200E000010050020280E00008012002022
:080EB800300E000000000020D4
:201000003C000000000000000000000034100000000000000000000001000000000000004F
:1C10200000000000000000000000000001000000000000000800000000000000AB
:20103C003400000000000000000000006810000000000000000000000100000000000000E7
:14105C00010000000000000000000000080000000000000077
:2010700030000000000000000000000098100000040000000000000001000000FFFFFFFF87
:10109000FF00000001000000080000000000000048
:2010A0002C0000000000000000000000C4100000040000000000000001000000FFFFFFFF2F
:0C10C000FFFFFFFF080000000000000020
:2010CC0038140000E410000095A1011091A70110A1C2011009B2011041B8011000000000EA
:0810EC00000000002D000000CF
:2010F400280000000000000000000000141100000000000000000000FFFFFFFF0000000093
:081114000800000000000000CB
:20111C00341400003011000065C2011069C101101BC2011091BA011000000000000000006D
:04113C002F00000080
:20114000341400005411000071C20110A5B6011099BF011045B601100000000000000000BD
:04116000300000005B
:201164002400000000000000000000008011000000000000000000000000000008000000AE
:041184000000000067
:20118800240000000000000000000000A41100000000000000000000000000000800000066
:0411A8000000000043
:2011AC00240000000000000000000000C8110000000000000100000000000000080000001D
:0411CC00000000001F
:2011D00000000000280E0020040000000000000000000000200000007010000030000000D5
:2011F0001C110000540E00200400000000000000000000000C0000003013000018000000C5
:2012100040110000600E002004000000000000000000000024000000481300001800000044
:2012300000000000680E002004000000000000000000000010000000A01000002C00000018
:20125000CC100000700E002004000000000000000000000020000000641100002400000047
:20127000FFFFFFFF900E0020040000000000000000000000280000008811000024000000BB
:20129000FFFFFFFFC00E0020040000000000000000000000580000003C1000003400000078
:2012B000FFFFFFFFC80E00200400000000000000000000001000000060130000180000008D
:2012D000FFFFFFFFD00E00200400000000000000000000001C000000AC1100002400000003
:2012F000FFFFFFFFD80E002004000000000000000000000038000000F41000002800000074
:20131000FFFFFFFFE00E002004000000000000000000000054000000001000003C0000000F
:1813300018000000000000000000000040130000080000000000000032
:1813480018000000000000000000000058130000080000000000000002
:18136000180000000000000000000000701300000800000000000000D2
:0813780001000000A0DA0000F2
:041384000100000064
:0413880000000C0055
:04138C0000000D0050
:041390003200000027
:041394000100000054
:04139800300E0020F3
:04139C00000200004B
:0413A000F38A0000CC
:0413A400FDC901106E
:0413A8000000000041
:0413AC00000000003D
:0413B0000800000031
:0413B4000000200015
:0413B8006C11002094
:0413BC00010000002C
:0413C000780E002083
:0413C400080000001D
:0413C8000000000021
:0413CC00000000001D
:0413D0000000000019
:0413D400080000000D
:0413D8000000000011
:0413DC00000000000D
:0413E0000100000008
:0413E400D411002000
:0413E80006000000FB
:0413EC0001000000FC
:0413F00010100020B9
:0413F40000000000F5
:0413F80000000000F1
:0413FC0000020000EB
:0414000000000000E8
:021406002900BB
:021408000100E1
:02140A002500BB
:02140C002F00AF
:02140E003000AC
:021410002D00AD
:021412000100D7
:0114140001D6
:081418000300000068DA000087
:081420000000000000000000C4
:0414280000000100BF
:04142C0000000300B9
:0414300083C4011060
:041434003C14000064
:041438003C14000060
:04143C0000000000AC
:041440008000000028
:041444008000000024
:0414480000000000A0
:04144C00780E0020F6
:0414500099CF000030
:041454002000000074
:04145800F8D90000BF
:04145C0068D900004B
:0414600009C30110AB
:041464000BAC0000CD
:0414680043AE00008F
:04146C0095C801100E
:0414700097C8011008
:041474000000000074
:04147800B5DA0000E1
:04147C0054D8000040
:041480006CD8000024
:041484003CD8000050
:0214880008005A
:02148A00090057
:02148C0001005D
:02148E0000005C
:01149000015A
:041494000000000054
:041498000000000050
:04149C00000000004C
:0414A0000000000048
:0414A400E3D1000090
:0414A800C1C20000BD
:0414AC0035C800003F
:0414B00029C500004A
:0414B400FFC3000072
:0414B80059C5000012
:0414BC0025B3000054
:0414C0007DD00000DB
:0414C400DDB6000091
:0414C8000DC801103A
:0414CC001DC8011026
:0414D0000800000010
:0414D40024000000F0
:0414D80018000000F8
:0414DC0028000000E4
:0414E00020000000E8
:0414E4003C000000C8
:0414E8000C000000F4
:0414EC0034000000C8
:2014F0000A6802604A6842600A7A02724A7A4272897A8172704711780020F42908BF0120E9
:20151000704711780020E52908BF0120704711780020F52908BF0120704711780020FC297A
:2015300008BF0120704711780020FB2908BF0120704711780020FA2908BF0120704711789C
:201550000020F92908BF0120704711780020F82908BF0120704711780020F72908BF012080
:20157000704711780020D62908BF0120704711780020EF2908BF0120704711780020DA2951
:2015900008BF0120704711780020D82908BF0120704711780020DC2908BF0120704711787D
:2015B0000020DB2908BF0120704711780020D92908BF0120704710B50C46ADF1180D0290A2
:2015D0000821ADF8001019216846ADF802104FF0FF31019104F02FF90499216006B010BDC0
:2015F0000EB501900821ADF8001068460321ADF8021004F020F90EBDF8B50546242000F01C
:2016100093F81A26071C33D0F720387000247C70288878806888291DB8800A68BB1D1A6020
:2016300049685960287BB873687B05F10E03F8731A6807F1100002605A6842601A7A0272B5
:20165000A869F861287F87F82000687F394687F82100204600F00EF838B9B7480094694635
:20167000FFF7A9FF08B9009846783846FFF7B8FF3046F8BD00B5ADF1140D8DF808000391BA
:201690000823ADF80030D74AADF8023012788DF8042068461822ADF8062004F0CCF805B0EF
:2016B00000BD98B504461A2000F03EF8071C17D0E820002338702146B81C7B70FFF710FF5E
:2016D00004F10B010A6807F10D00026049684160A08AF882A07D394638761846FFF7CAFFC3
:2016F00098BD98B504461A2000F01EF8071C1AD0EA20002338702146B81C7B70FFF7F0FEC2
:2017100004F10B010A6807F10D00026049684160A08AF882A07D194600B10121184639768D
:201730003946FFF7A7FF98BD0EB501900821ADF8001068460221ADF8021004F07CF80028DF
:2017500014BF002002980EBD0EB50820ADF800000120ADF80200684604F06DF8A1499DF843
:2017700004000870029848600EBDBCB50220FFF7DBFF1A25071C13D0D620002438703946E7
:201790007C702046FFF776FF38B9C94800946946FFF711FF08B9009845783846FFF720FF88
:2017B0002846BCBDFFF7E1BF98B50420FFF7BCFF071C12D0DC2000243870012339467C701E
:2017D0002046BB70FFF756FF20B9BA4800946946FFF7F1FE3846FFF703FF98BD2DE9F843FE
:2017F00004461E46914688460820FFF79DFF1A25071C15D03C7000247C70394687F8029039
:2018100020467E60FFF736FF38B9009440466946FFF7D1FE08B9009845783846FFF7E0FE62
:201830002846BDE8F883CF490346E222D820FFF7D5BF98B51020FFF777FF0746FFF784FF74
:20185000684C217867B1D020387000237B70B970FB703B710220BB603946FB60FFF70AFF17
:20187000FFF7A2FF04F11000FFF7DDFF182003F0F8FE6070606898BD08B58DF80010B94988
:201890000246D8206B46FFF7A9FF08BD08B5ADF80010B4490246D8206B46FFF79FFF08BD2B
:2018B000CC48CB49503008607047AE4908B50E20E0226B468DF80000D820FFF78FFF08BDF6
:2018D000BCB504462420FFF72FFF071C27D0FC200025387021461022B81C7D7008F01AFD69
:2018F00020697861207D3876607D7876A07D04F11703B876196807F11B021160187A1072EB
:201910005C68546039462846FFF7B4FE20B9C84800956946FFF74FFE3846FFF761FEBCBDEE
:20193000C44BC549DA208922FFF758BF0B46C2490246DA20FFF752BF67150000B0B50546F7
:2019500095F82C003830FFF7EFFE071C49D0ED20387000247C7028687860A8883881A87900
:20197000B872E879F872287A3873687A7873A87AB873E87AF873287B3874687B05F10E01F7
:20199000787407F11200FFF7ABFD05F1190107F11D00FFF7A5FD95F8240087F8280095F801
:2019B000250087F82900E88C788595F8300087F8340095F82C0087F8300095F82C00002820
:2019D00008BFFC6209D007F13800F862A96A95F82C2007F1380008F09DFC20463946FFF7E7
:2019F00049FEB0BD341200202DE9FC4782461E46904689461420FFF797FE00250AAF0446AC
:201A1000A5421BD0E520207028466070A4F802A084F8049084F80580A6603988A181214672
:201A3000FFF728FE38B9D24800956946FFF7C3FD08B9009805692046FFF7D2FD2846BDE870
:201A5000FC870A7A02720A7A022A04D00A68026049684160704709880180704703B480B5E5
:201A700002AF39780020012908BF01207978012908BF40F00400B978012908BF40F0080052
:201A9000F978012908BF40F010003979012908BF40F020007979012908BF40F04000B9791C
:201AB000012908BF40F08000BDE8804002B0704773150000A3150000BFB50446A08B0090EE
:201AD00094F8341094F83520236A208DFFF78CFF071C45D0E420387000257D70616A228D1A
:201AF000786808F017FC07F1840004F12C01FFF7F7FC214607F19000FFF7A3FF6089A7F855
:201B10009A00207B87F89C00607B04F10E0187F89D000A6802AB1A60888898808A799A719B
:201B300002AB93E80300FFF799FFA7F89E00607D87F8A000A07D87F8A100A28BA7F8A820D2
:201B500022B1D7F8A400A16908F0E4FBA07F87F8AA00206A3946C7F8AC002846FFF78AFDA7
:201B70000090BFBD971500002DE9FC4180460E460820FFF7D9FD1A25071C16D0F420387038
:201B900000247C703946A7F8028020467E60FFF771FD38B9C54800946946FFF70CFD08B9DC
:201BB000009845783846FFF71BFD2846BDE8FC8108B5ADF800106946FFF7D6FF08BDFFF7FD
:201BD000D3BF08B58DF800106946FFF7CDFF08BD3C120020F00E0020B0B504462020FFF76A
:201BF000A3FD071C16D0F6200025387004F11301B81C7D70FFF774FC207878736078A11C01
:201C10001122B87307F10F0008F084FB39462846FFF730FDB0BD0EB501900821ADF8001029
:201C300068460521ADF8021003F005FE0EBDC0462B150000F40800208B1500002DE9F843F5
:201C500004461D46914688460820FFF76DFD1A26071C1FD03C7000247C70394687F80290FC
:201C700020467D60FFF706FD88B9009440466946FFF7A1FC58B90098467846B9C27832B1F8
:201C90004168284608F046FB7868FFF7C4FF3846FFF7A6FC3046BDE8F883B4490346E12256
:201CB000D920FFF7CBBF0B46B0490246D920FFF7C5BFAE490346E222D920FFF7BFBFF8B538
:201CD000AB4C06462068002843D13020FFF72CFD071C3ED0EC200025387031461122381D75
:201CF0007D7008F017FB707C7875B07CB875F07CF875307D3876707D7876B07D294600B14F
:201D10000121B976F07DF876307E06F11901387707F11D00FFF7E4FB96F8240087F82800D6
:201D300096F8250087F82900F08C7885707C002808BF812004D0797E880000EB411080B282
:201D500000F034FB2060F86218B128463946FFF791FCF8BD0EB50820ADF800000A20ADF82D
:201D700002004FF0FF300190684603F064FD0EBD131500007FB50646082014460D46ADF863
:201D900000000720ADF80200684603F054FD9DF8041031709DF80610297002992160009039
:201DB0007FBD0A7A022A027204D00A6802604968416070470988018070470A6802604A68B3
:201DD00042600A7A02724A7A4272897A8172704738B50C4644220546002108F0D5FE04F163
:201DF00028012846FFF7DDFF04F1320105F10A00FFF7D7FFE06B6861B4F840002883B4F81F
:201E100042006883B4F84400A88394F84600A87794F84700E87794F9480085F8200094F849
:201E3000490085F82100B4F850006884E06C6862A07B85F8280094F8520085F82900606D9C
:201E500004F11C01E86205F13000FFF7B6FF2089A5F840006068E86338BD011C05D0F220B3
:201E7000087000204870FFF705BC704708B50B46FFF797FF5989418199898181997B81732A
:201E9000D97BC173197C002201B101220274597C417459694161197E002201B1012203F138
:201EB000190102761930FFF788FF08BD07150000B0B5044600211C22ADF1200D684608F05A
:201ED00063FE60788DF80000A0788DF80100E0788DF8020020791122611D8DF8030001A83C
:201EF00008F018FAA07D8DF8150058B39DF8011049B900F05BFA069068B1A1699DF8152096
:201F100008F008FA1EE0810001EB401188B200F04DFA069030B91A208DF8000000278DF8A0
:201F300015700FE0A5690746002407E038462946FFF79CFF641C24372435E4B29DF81500C5
:201F5000A042F3DCC84C606818B1FFF764FE0020606020688169684688479DF8150010B189
:201F70000698FFF758FE08B0B0BDC046BB1500004012002090B5044600214022ADF1440DF9
:201F9000684608F001FEA0788DF80000E0788DF801009DF8000000BB616811B101A8FFF797
:201FB00065FF217A01F007028DF82820E0689DF82870C1F302118DF8301027B19DF82810A5
:201FD0000B9000EB41009DF8307007B10D90207C8DF8380067690F9719E0616811B101A8A4
:201FF000FFF744FF677A8DF82970A37A8DF82A30207A8DF82800E27A8DF82B20217B8DF809
:202010002C10677B8DF82D70E389ADF82E309648006801696846884711B090BD80B5074644
:20203000780824BF01200870B80824BF01204870F80824BF01208870380924BF0120C8709F
:20205000F80924BF0120087137F07F071CBF0120487180BDB0B5844D2F680446ADF1480D49
:20207000002F00F07A812078401E112800F27581DFE810F0590146012D0118011101FC0062
:20209000EA00DC00BD00AC0088005D005300420073012A001C001200F86B002800F05D8162
:2020B00068462146FFF794FEF96B54E1386C002800F0538168460021012208F065FD607826
:2020D0008DF80000396C46E1F86A002800F04581684600210E2208F057FDA11C6846FFF7B3
:2020F00060FEA57BA1890022ADF80A1005B101228DF80C20F96A2FE1B86B002800F02D8161
:2021100068460021022208F03FFDA5788DF8015060788DF80000B96B1DE1786B002800F01B
:202130001C8168462146FFF753FE796B13E1386B08B368460021142208F026FDA5788DF89E
:202150000150A3680193A289ADF80820A17B8DF80A1060788DF80000E57B8DF80B50237C90
:202170008DF80C3094F911208DF80D2061690491396B684688476068002800F0EE80FFF75A
:202190006CFEEAE0B86A002800F0E78068460021242208F0F9FC6078A11C8DF800000DF140
:2021B0000200FFF7FEFD04F10C0103A8FFF7F9FD257EE08A8DF8185004F11901ADF81600BF
:2021D0000DF11900FFF7F9FDB96AC4E0786A002800F0C38068460021022208F0D5FCA5780F
:2021F0008DF8015060788DF80000796AB3E0386A002800F0B28068460021122208F0C4FC7F
:20221000658860782379ADF8025062798DF80000E11D8DF80430A5798DF805200DF1070072
:202230008DF80650FFF7C9FD396A94E0F869002800F0938068460021012208F0A5FC6078F1
:202250008DF80000F96986E0B86940B96868002800F08380FFF7DFFC002068607DE02046A0
:20227000FFF726FE79E0C0463C1200207869002873D068460021132208F086FCA01C016878
:202290006B4619604068586004F10A0102A8FFF794FD79695FE0386900285ED02046FFF7FF
:2022B00069FE5AE0F868002857D0684600210E2208F06AFC6078A11C8DF800000DF1020047
:2022D000FFF76FFDA089ADF80C00F96843E0B868002842D068460021142208F055FCA01CCA
:2022F00001686B46196040685860A07A04F10B018DF808000DF10900FFF75FFDB9682AE0AF
:20231000786850B368460021102208F03DFC607865888DF80000211DADF8025001A8FFF77A
:202330004CFD796817E03868B8B168460021192208F02AFCA01C01686B461960406858608C
:20235000A07A02A9FFF76AFE0DF10E0004F10B01FFF733FD39686846884712B0B0BD0EB507
:20237000FFF7F8FC08BB0DF1050001A96A46FFF701FDD0B95B489DF804200178914210D13D
:2023900041789DF80520914208D08068436C43B19DF80500009A0021984702E00098FFF7E0
:2023B00059FE009808B1FFF71BF90EBD0EB501900821ADF8001068460421ADF8021003F0E1
:2023D0003AFA002814BF002002980EBD2DE9FE4F92460193071C009114BF5FEA0100EB208E
:2023F00050D000200446CAF800008146029478783D7845EA00255FEAE5380CBFC5F3062616
:20241000C5F3C3260198BF1C20B1B8F1000F2BD00F2E36D00C20FFF7C9FF5FEA000B21D0A1
:2024300002990C2208F0B0FBDAF8003003B95446C4F800B05C4684F8048066712679002E16
:202450000CBF05F0FF05C5F30A05E580A760009EE08809EB0001C719891C1FFA81F94E45CF
:20247000C5DC0EE01A2000E018200290DAF8000038B10468FFF7CFFB201CFAD10020CAF809
:2024900000000298BDE8FE8F0123FFF79FBF0023FFF79CBF10B5044603E020462468FFF79A
:2024B000BAFB002CF9D110BD98B50320FFF73CF90024071C13D0EF20387039467C70204647
:2024D000FFF7D8F840B92046009007486946FFF772F808B9009884783846FFF781F8204631
:2024F00098BDC046341200207F15000001EB003103E011F8010B03F8010B1046421E00287D
:2025100092B2F6D170473EB514460D4605226B46FFF7ECFF65819DF803109DF804009DF8D4
:2025300004309DF8005001F00F01801003F0030340EA81109DF80120A0819DF802006372EA
:2025500005F0C0052B4381069DF803006372001140EA91509DF80210A080891141EA820124
:202570009DF80020E18002F03F0241EA0231227240EA013020603EBD38B505460C46002090
:202590000090042C0BD3241F284604226B46A4B22146FFF7ABFF0098B0F1FF3FF1D001214E
:2025B0000A4600F0FF03FF2B18BF111C000A521C0090042AF5DD091988B238BDF0B5164641
:2025D0000C4607460025ADF1140D0AE0241AA4B205E0641E3846A1B2FFF7CEFF04466D1C1C
:2025F000ADB2092C1DD3641F38466A46A4B22146FFF789FF0098B04207D19DF8091031F02A
:202610007F0004D0C80902D20CE09DF809108808DFD2BDF80C008442D8DCBB4905204871BA
:2026300008716C4220B205B0F0BD03B42DE9F04792461E4608AFBAF5806FA8BF052042DAF2
:2026500097F80080B8F1400FA8BF09203BDAB7F802C0BCF5806FA8BF072034DABF88B7F51E
:20267000806FA8BF08202EDAA74CA41CA078032808BF032027D04FF0000908F03F01CCF3AE
:202690000900C7F3090584F8039040EA013045EA0035A18820782A46FFF790FF0146002965
:2026B0000BDCA6F80CA0A6F80A903560B780A6F806C086F808800A2005E0207889B2324611
:2026D000FFF721FFE078BDE8F04702B0704703B4B0B58D4C083420684FF0FF3104AFADF1BE
:2026F000180D0AF00FFE396804A80160B988818004A803C800226B46FFF797FF00280CBFE5
:20271000BDF80C50002520680AF0F8FD284606B0BDE8B04002B070470003085C704770B597
:2027300005467948801C047800230E4601E00123521C3046411E8EB258B12946481C85B253
:202750002046FFF7E9FF11784840F1D00842EED00223184670BD01EB0031491C1046421E63
:20277000002892B208BF012004D011F8010DFF28F4D00020704703B42DE9F041624DA8688B
:202790004FF0FF3106AF1C469046ADF1180D0AF0B9FD396804A80160B988818004A803C8F3
:2027B00022466B46FFF741FFAC46061C14D1BDF80C30BDF80A20D01A404481B29CF80200BA
:2027D0006518AA4204DAA342B4BF0526062603E0BB682246FFF78AFEDCF808000AF08EFDA6
:2027F000304606B0BDE8F04102B070470146BC4808B500780346FFF78FFF00F07F0002465A
:20281000184600F0A3F908BD03B4B0B504AF3878ADF1180D002808BF092026D03A4CA0681B
:202830004FF0FF310AF06EFD04A8BD883968858004AB016093E8030000226B46FFF7F5FED3
:202850002546071C0DD1BDF80A00FFF7CFFFA878E988009AFFF7B2FE6C790028D4BF271CC5
:202870000227A8680AF04AFD384606B0BDE8B04002B0704703B4F0B5B84C20684FF0FF3145
:2028900005AF1D461646ADF11C0D0AF03BFD396804A80160B988818004A803C8B2B26B4640
:2028B000FFF7C3FE07460A2F02D007B9012704E06846294600F01EFA074620680AF01EFD1E
:2028D000384607B0BDE8F04002B07047D0B50E4C0646A0684FF0FF310AF014FD277977B9F8
:2028F000E088C0F5805000B2864203DC002E18BF042704D1A078002100F0C8FA6779A068AA
:202910000AF0FCFC3846D0BD4C12002070B5744C05466078FE28AEBF0126401CC6B2032172
:202930009622284600F012F902210122284600F00DF901212846324600F008F90021A522DB
:20295000284600F003F9E07808B92570667070BD2DE9F041C64C2079ADF1400D032818BF7D
:20297000607140F09E8000256571A84601A824220823294684F804800AF0BCFC032001A937
:202990008DF81C002A4601200AF0B0FC1D27A0602E46A5700AAB384641460422FFF7A6FD09
:2029B0009DF82810E378A52907D19DF82900FE2803DC9DF82B20962A09D0242902D0B729FE
:2029D00018D11FE03E46EBB99DF8290019E0B5B1984203DAFE2B18BF01280BD1984203DD44
:2029F000012B08BFFE2805D0284600F017FA9DF8290004E0384600F011FAA57802E03D46CD
:202A1000A570E0707F1C1E2FC4DD8DB926B91D20FFF77CFF042015E0A67030464FF480512C
:202A3000FFF7AAFDE0804146304600F02FFA0AE01EB1304600F0F2F9A57828464FF48051CA
:202A5000FFF79AFDE0800AAFBB4D00970EA82968AE8801600EAB868093E8030042460C234F
:202A7000FFF789FEE6880A2809D1384641460C2208F08AF840F6EF70801BADF82E00BDF8EA
:202A90002C000EAF401CADF82C002968AE8839600EABBE8093E803000C220AAB00F04EF921
:202AB000607910B0BDE8F081C548C6498162C649C162C6490163C6494163D1498163D149E8
:202AD000C163D1490164D149416470470146D14808B5303000684268CD48904708BDC04687
:202AF0004E1200202DE9F843CB4D9046024668781F460C4640BB0AF0A1F801281CBF0B206B
:202B1000687021D104EB023402F0BAFA8146684600F060F94246384621460AF01FF800983C
:202B3000FFF7D4FF484602F0B8FA661E4046411E1FFA81F840B116F8010F17F8011B88428B
:202B5000F4D0022068702870BDE8F88308B58DF800206B460122FFF7C5FF08BD54120020B4
:202B70002DE9F04115468046287840F0C000287028790C4604262F1D40F00200287117F872
:202B900001293119404689B2FFF7E0FF761EF6D52A79241D4046A1B202F0FD022A71FFF77D
:202BB000D5FFBDE8F0812DE9FE431F1C15460C4680461AD0DFF8CC92082FACBF08263E1CCD
:202BD00099F8000021466B463246FFF78FFC404629466B463246FFF785FFBF1BBFB27019D7
:202BF0003319002F85B29CB2E6D1BDE8FE832DE9F04F1F4D044609AF1E46ADF1140D786822
:202C1000EB880290B7F80090A08988469246411D89B20391C918B1F5805F66DCE288217AB7
:202C3000971001F03F018DF80010A1888DF801701B1802F00302C1F3051747EA8217090724
:202C50008DF80270C0F3831200F03F0742EA11628DF803204046B9008DF804106A4699B2D5
:202C70008B46FFF77DFF029838B3EF8876B101E04C1200203A46404651463346FFF793FFE1
:202C9000F01906EB0A0387B21FFA83FA029B40464A463946FFF726FFA689E98809EB070066
:202CB00087B2F01B09188AB23AB109EB0A00134681B23A464046FFF776FF9DF80020404642
:202CD000594622F040028DF80020FFF73FFFEA880BF10401404689B2FFF71EFDFF2806D0D6
:202CF0000398801880B2E88001E00520687105B0BDE8F08FFEB50546624CA889A2880F46E3
:202D1000411D8EB22178B218B2F5805F0BDD0846002100F0BBF8864203DDE07800B9052044
:202D3000FEBDA889217800900022284601971346FFF75DFFE078FEBD8CDA000003B42DE955
:202D5000F041514DA8684FF0FF3106AF98461446ADF1180D0AF0D6FA396804A80160B988AC
:202D7000818004A803C822466B46FFF75EFC0026071C0FD1BDF80C0084421CBFADF80C40E6
:202D9000BDF80A6008D1224668463146434600F075F907460A2F09D168464146FFF7AAFF83
:202DB00007461EB13046FFF721FD6F79A8680AF0A5FA384606B0BDE8F04102B07047C04653
:202DD0002005002061290000DD280000852800001928000010B50E4C024620460AF02AF937
:202DF00000F003001060A4480068426800212046904720460AF01EF90028FAD110BDC046C7
:202E1000872700004D2D000025310000DF26000000400340A8010010501200207CB500210F
:202E30000546FFF779FCB72807D140F6FF7128460A46D21EFFF78FFC18BB09F0FFFE01284E
:202E50001BD102F01DF906466846FFF7C3FF280309F092FE04460098FFF738FE304602F092
:202E70001CF92CB928460021B722FFF76FFE7CBD05490220487108717CBD02480B21C01C17
:202E900001707CBD4E1200204C1200202DE9F04F804608460026ADF1440DBB490890002838
:202EB0004E701ABF006800684FF0FF30B8F11D0F0C900CBF1E201D200990FFF7AFFF2422F3
:202ED00040463146FFF742FE15250D9605210E96AD480F9640880A9104460B94A1427EDAE7
:202EF000A9484778002F6AD1641F404602AAA4B22146FFF708FBBDF814709DF81130781D99
:202F10001FFA80FAD80951D233F07F035AD0029A0C98904256D009982946FFF74FFB00288B
:202F300050DC8EB9611E40463A4689B2FFF713FC50B90299E01B80B2B1F5805F0B9041D146
:202F50000F904FF0040906E0A9460AEB0500B9F1000F85B236D007EB09001FFA80FB2146BB
:202F7000052206AB4046FFF7C1FA099806AA5946FFF7F6FD26B90E98401C80B20E9006E0C2
:202F9000E01B81B209984A465346FFF70CFE0D989DF818205946401C22F0400280B20D9099
:202FB00009988DF81820FFF7D1FD0BE098080CD2544507DA7449052048700F4638704FF026
:202FD000FF3056E0E41BA4B204E040462146FFF7D3FA04460A98A04282DB6B4840880B9949
:202FF000761C0446022E0A91FFF678AF0C98B0F1FF3F14D064480899458008890090C86834
:2030100001908A88CB8808680999FFF7F0FD5E480D9E074645887C80701C80B20D900F984C
:20303000C0B101460C2202AB4046FFF75FFA0D9F02980E9EC5F5805404210C22ADF80E4052
:2030500002ABADF81070401C02900998ADF81260FFF748FD0998FFF759FC4B48407800284E
:20307000ADD1494845804046FFF7D8FEC5F5805738B211B0BDE8F08FD80100102DE9F04388
:2030900005460C466889A989944698468146ADF11C0DA9EB010296B2401A1A4620186146A2
:2030B00080B2FFF73CFB002808BF00202FD0374F3978012822D0A889BA88401D80B28018A7
:2030D000B0F5805F0DDD0295ADF80C60ADF80E40ADF810C00846CDF8148002A9FFF7D6FE46
:2030F00014E0CDF800C0284632462346CDF80480FFF77DFD4846FFF779FB07E0A419084655
:20311000A2B2434611466246FFF7ECFCF87807B0BDE8F08303B42DE9F041DFF87480D8F80D
:2031300000004FF0FF3106AF1C461546ADF1180D0AF0E8F8396804A80160B988818004A865
:2031500003C822466B46FFF770FA061C12D1BDF80A00BDF80C10411A691889B2611888422C
:20317000B8BF062606DBBB68294622466846FFF785FF0646D8F800000AF0C0F8304606B09F
:20319000BDE8F04102B07047501200204E120020541200209B4808B5042107F038F99A4889
:2031B00000680AF0ABF808BD964808B5022107F02EF9954800680AF0A1F808BD914808B526
:2031D000012107F024F9904800680AF097F808BDA64808B5022107F01AF98B4800680AF00E
:2031F0008DF808BD884908398870888840F00100888088680AF082B800B50321ADF1240D56
:203210008DF82010026806A90A604068486006A8694600F0E3FA00280CBF4FF6FF70BDF890
:20323000020009B000BD38B5A748A84D0478287848B1052C03D0062C05D1012100E00321EE
:20325000002004F005FBAC7038BD704710B5044604F02FFB2188BFA01022062305F064FE9B
:2032700010BD9B4807F08EBF38B5994C0546204607F088FF012802D1204607F08BFF204600
:20329000B838C069294607F087FF204607F078FF38BD38B58F4C0546204607F073FF012845
:2032B00002D1204607F076FF20462838C068294607F072FF204607F063FF38BD0188102225
:2032D0000523B9A005F030BEFEB50746AD48057867B3AB4C206A78B146696EB106208DF8CB
:2032F00000000123ADF802300022ADF804209DE803003B460E22B0470126002D667014BFAB
:20331000BAA0BDA0022105F0EFFD787B30B9397BBBA00A22032305F007FE03E0BBA0032149
:2033300005F0E2FD0020314604F092FAFEBDBFB5C04800250768ADF8045097B106208DF8DB
:2033500008000223ADF80A30ADF80C5001AC00943C6902AA92E803002A46A04708B1ADF88C
:203370000450BDF804000090BFBD2DE9F043DFF8C4920746D9F80000ADF1240D00283CD08D
:20339000002F3AD0387A002837D0FFF7D0FF5FEA000832D00620002503248DF808002E4678
:2033B000ADF80A40642D28DAD9F80000ADF80C5004AB02AA0469009392E803000A23002282
:2033D000A047B0B9387A9DF81810814210D1022804D1BDF810103A88914207D0032807D137
:2033F00004A93846082209F0FAFA08B9284606E0761CB04505F10105D4DC4FF0FF3009B00C
:20341000BDE8F083DE0800204C0D00202DE9F041DFF82082D8F800000025ADF1280D00B3CA
:2034300000F0AAF9071C1CD0062005248DF808002E46ADF80A40642D13DAD8F80000ADF8A8
:203450000C5004AB02AA0469009392E8030018230022A0470A2804D000B9761C6D1CB74211
:20347000E9DC28460AB0BDE8F081C046F40E0020FEB5704D07462868002610B30FB3381DC4
:2034900000F0F0F8B0F1FF3F1AD100F075F90446322C16DA06208DF800000523ADF80230DA
:2034B000FFF7B4FFADF80400286845699DE8030018223B46A84720B9641CA0B200F07BF82C
:2034D00001263046FEBDC046F10E0020450D0020FC0D00206C0D002070B5054602240E4641
:2034F000ADF1300D68888DF80840291DADF8000003208DF812000A680DF10A0002604968F2
:2035100041606846FFF731FF00281AD50DF10A00FFF72BFF002814D505A829460C2206F096
:20353000F9FE316808A80160B1880024818005A80A94FFF79DFF002806BF9FA00124A1A00D
:2035500000E0A3A069881022042305F0EDFC20460CB070BD53656E736F72203078000EB5BC
:2035700001900821ADF8001068460421ADF8021002F061F9002814BF002002980EBDC04670
:20359000440D0020F00E00200EB501900821ADF8001068460521ADF8021002F04CF90EBDCD
:2035B00008B1FFF7F1BF7047436F6E6669675273703A2030780090B5ADF1140DADF80000AF
:2035D0001C4807687FB1062004237C698DF808000022ADF80A3002AFADF80C2097E8030014
:2035F0006B460222A04705B090BDC04652657374617274656400C04653746172746564006C
:203610004368616E6E656C3A2000C046467265712E20486F7070696E67001CB5054C216825
:20363000F9B1C968E9B100F01DF8B0F1FF3F18D002E0C046640D0020062105238DF80010DC
:203650002168ADF80230CA68ADF804009DE80300904730B900F090F818B1401E80B2FFF710
:20367000AAFF1CBD2DE9F043DFF8E0928046D9F80000ADF12C0D60B3B8F1000F29D000F004
:203690007BF8071C25D00620002505248DF808002E46ADF80A40642D1BDAD9F80000ADF82F
:2036B0000C5004AB02AA0469009392E8030018230022A04748B905A94046082209F08FF9A2
:2036D000002808BF281C06D0761CB74205F10105E1DC4FF0FF300BB0BDE8F0839EB59B4C12
:2036F00007462068A8B1A7B1381DFFF7BBFFB0F1FF3F0ED0062105238DF800102268ADF85F
:2037100002305469ADF804009DE8030018223B46A0479EBDB0B58D4D0A46ADF1200D009290
:203730002F683FB3796929B3B8B968681146193088421FD806208DF80800ADF80A0000240A
:20375000ADF80C407C6902AB93E8030004226B46A04708B9009868600CE002A900F03EF8BC
:2037700040B1079900981931884203D3079002A8FFF7B4FF08B0B0BDBFB574480025076853
:20379000ADF804509FB106208DF808000424ADF80A40ADF80C5001AB00933C6902AA92E8FB
:2037B000030002232A46A04708B1ADF80450BDF804000090BFBDC0464661696C65643A205E
:2037D000307800C04A6F696E65643A20307800C044656E6965643A20307800C02DE9F047FE
:2037F000DFF868910746D9F800008A46ADF1280D00283BD0BAF1000F38D0FFF7BDFF5FEA38
:20381000000833D00620002505248DF808002E46ADF80A40642D29DAD9F80000ADF80C50C3
:2038300004AB02AA0469009392E8030018230022A047B8B9387A022804D1BDF812103A88A1
:20385000914207D003280CD105A93846082209F0C6F830B904A95046182206F05BFD0120C4
:2038700005E0761CB04505F10105D3DC00200AB0BDE8F087B74808B5042106F0C8FDB64891
:20389000006809F03BFD08BD10B5C24CB349142204F1940007F084FCA06110BDFEB52B4DBC
:2038B0002868002851D0C268002A4ED006268DF800600120ADF802000027ADF804709DE80F
:2038D0000300904702208DF800602C68ADF80200E268ADF804709DE8030090473C468DF8F3
:2038F00000600320ADF802002868C268ADF804409DE803009047641C642CF5DB8DF80060C7
:2039100004202C68ADF80200E268ADF804709DE8030090473C468DF800600520ADF8020043
:203930002868C268ADF804409DE803009047641C642CF5DB8DF800602868ADF80260C268EF
:20395000ADF804709DE803009047FEBD640D002008B5904988609C4A0A6206F06CFB10282E
:2039700001D1FFF79BFF05F01BFBB1A0012105F0BBFA03F0A7FF08BD10B5864CBC4964222D
:2039900004F1280007F00CFCE06010BD10B5814CB8494FF47A7204F1B80007F001FCE0614A
:2039B00010BDB54990B50968ADF1140D91B10F6987B178B106218DF808100124ADF80A40C4
:2039D0000022ADF80C2002AB009093E803000E23B84708B1002000E0204605B090BDF0B533
:2039F000071CADF1140D2CD06A4D2035286830B3D0F810C0BCF1000F21D006268DF80860FC
:203A1000ADF80A600024ADF80C4002A8009703C804232246E047002804BF386819300FD0FD
:203A30008DF808600194ADF80A602868ADF80C40446902AB93E80300042201ABA0470020B3
:203A5000386005B0F0BD2DE9F04FDFF82CA28346DAF800008846ADF12C0D68B3B8F1000F4F
:203A70002AD0FFF789FE071C26D00620002505248DF808002E46ADF80A40642D1CDADAF8E9
:203A90000000ADF80C500DF1100902AB0469CDF8009093E8030000221823A04740B9B345DC
:203AB00005D140464946182206F034FC04E0761CB74205F10105E0DC0BB0BDE8F08F4188DC
:203AD000102205235EA005F02FBAF0B56A4D28684FF6FF77ADF12C0D20B3FFF74DFE08B353
:203AF0000620002605238DF808002C68ADF80C60642EADF80A3015DA04A80090246902AB3A
:203B100093E8030032461823A04748B1BDF80C002C68401CADF80C0080B26428ECDB01E0BC
:203B3000BDF8127038460BB0F0BD38B504465348054607F027FB012802D1284607F02AFB9C
:203B50003CB114488069214607F026FB284607F017FB38BDF40E00204C0D0020A5310000C7
:203B70003EB50C4CA188A07849082CD301090ED3FFF7ABFF4FF6FF71ADF80000814205D0DC
:203B900002208DF80800684601F02AFAA078400913D301E0440D0020207820B901212CA0AB
:203BB0004FF0FF3502E000212DA00D462170032105F09AF9284600F0CAFC0020A0700121AC
:203BD000201D06F02FFC3EBD48050020F8B50746FEF76AFC0446FEF767FC00EB0420294C94
:203BF00043F69821B0FBF1F24A43801A091824488EB24FB9054607F0C5FA012802D12846CE
:203C100007F0C8FA20690BE0022F0FD12430054607F0B8FA012802D1284607F0BBFA60692F
:203C3000314607F0B9FA284607F0AAFAF8BDC046544920436F6C6C6563746F7200C046C065
:203C500021526573706F6E64696E673A203078005065726D69744A6F696E2D4F4E2000C06D
:203C70005065726D69744A6F696E2D4F464600C0E131000085380000640D0020D80D002006
:203C9000900D0020440D00200146BF483222F63030F80C3F8B4202D0521EF9D100207047FB
:203CB0000146B948801F80F82B100821801D06F0AEBBB54910B5891C096861B1847B8A7C45
:203CD000944205D14289CB899A4208BF012003D009680029F3D1002010BDF8B50446FFF73A
:203CF000E8FFC0B92820FFF73AFCA0B1A649891C0F6868CC021D68C268CC68C238CC82E83B
:203D100038000026066017B90F4603E00F4639680029FBD13860F8BD2DE9FC47884606461C
:203D3000B6498DF800200C789DF8000058B1301DFFF762FA4FF6FF71814235D0FFF7A4FFF8
:203D500090B307462EE0322C12DB4FF6FF70FFF79BFF071C28D000210C2206F015FF7088BA
:203D7000414638800A68BD1C2A608988A98019E08946A50009F5847A0C2205EBC405002174
:203D90000AEB0507384606F0FFFE70884146BE1C2AF805000A6889883260631CB180DDB2CD
:203DB00089F8005001203872BDE8FC87002118B1007A052808BF012108467047F0B50E46B7
:203DD000144607461D46ADF1240D00212022684606F0DAFEADF80070ADF80260216801A8CD
:203DF0000160616800224160C0490695887B8DF80C20491D8DF80D000B680DF10E00036094
:203E10004B684360097A01728DF81C2068468DF81D20FDF7F1FB09B0F0BD30B50446216817
:203E3000ADF1240D01A8016061684160734DE88CADF800002046FFF7DFF94FF6FF71ADF8C8
:203E5000020081421AD102202B788DF82200581CADF80200E86838B142682AB104F108015F
:203E7000684690478DF822009DF8220048B904F1080168460022FFF74FFF02E000208DF8B5
:203E9000220003A800210B2206F07EFE01A90A680DF11700026049684160BDF80200ADF844
:203EB000200003A8FDF7FDFBD5F8C01009B12046884709B030BD10B50446207810B9201D5C
:203ED000FFF70BFFC648016809B12046884710BDF8B5C34E0021FF2301270A46D410A6F1AB
:203EF00084052C5D02F0070507FA05F5254204D0845CA342C4BF111C435C521C812AEDDB77
:203F10000846F8BD2DE990410446DFF8D4822078002818BFEA281BD16078012816D0D0B92B
:203F3000607DFFF71CFB071C15D0A169627D06F0F1F93846FFF7CCFF4146AC390870032070
:203F5000FFF7AEFE3846FFF72BFB04E0022000E00120FFF7A5FE41460831096809B1204624
:203F70008847BDE8908110B50446207800280CBF04200120FFF794FE99480C30016809B105
:203F90002046884710BDC046DE080020F8B50646FFF732F94FF6FF71814214D0FFF774FE25
:203FB000071C10D0AF4D3224388835F80C1F884207D12846FF210C2206F0E6FD3046FFF7E1
:203FD0002CFB641EF0D1F8BD10B50446207A022802D12046FFF7DAFFA2483438016809B15E
:203FF0002046884710BD10B50446E16AFFF792FB9D48016809B12046884710BDD8080020C8
:2040100030B504460320ADF13C0D8DF82000216806A801606168416006A86946FFF7DEFB84
:20403000E0B101A90A680DF12D000260496841600B220DF12200002106F0A6FD01258DF832
:204050003850BDF80200ADF836000DF12200FDF748FB03A968462A46FFF75EFECF48016843
:2040700009B1204688470FB030BDF0B5D24E4AF6BB210020D14D3185012786F8240048228C
:2040900086F82A0005F1500486F82B00ADF12C0DF784214606F1C00006F03CF9C84828653D
:2040B000C8482866C848A866C848E866C848A865C848C5F88C00C848443CFF21C5F884006F
:2040D000C648F4604FF41672686606F5847006F05BFD52203946FDF7CFFB318D5320FDF7C4
:2040F000D5FBFFF7D1FB0BB0F0BDC046C0D8000070B5044600212022ADF1200D684606F0D7
:2041100043FDCE49102268468D3106F003F9002509200494CA4E8DF8145001248DF8160001
:20413000711D8DF815400A680DF1170002604A684260097A01726846FDF7C2FBFDF7F0FB96
:2041500071202946FDF7F2FBD5203146FDF7EEFB5D202146FDF790FB08B070BDB74908B520
:204170001C3981F82A00C96811B1896801B1884708BD10B5044600213422ADF1380D6846F6
:2041900006F002FD8C4AD18CADF80410002000908DF80C008DF80D008DF816008DF8250016
:2041B0000A908DF8304092F824108DF8061009218DF8071001228DF808208DF80B200F2191
:2041D0008DF809108DF80A1068468DF8241043F6FF71ADF82610FDF7B1FB0EB010BDC04676
:2041F000A8090020B0B5054614460F460220FFF7B5FF71482988C184697B01291CBF297B77
:2042100080F8241002D1281DFDF70DFB69885320FDF73CFB687BFFF7ACFF47B104F10C01C1
:2042300020460022FFF778FD18347F1EF6D1B0BD08B50120FFF792FF0120FFF731FD08BDEF
:2042500010B5041C0DD000210B2206F09DFCCE480168216040686060052323720322627291
:20427000A27210BDD4090020CC090020C749B0B507461122ADF1380D0DF11E0006F04AF82F
:204290000DF1020400211122204606F07DFC002511220DF11E0120468DF8005006F03AF809
:2042B000454C5FB3022F53D142F214002946FDF77FFC04F12C0142F21500FDF780FC04F100
:2042D000340142F21600FDF77AFC04F13C0142F21700FDF774FC04F1440142F21800FDF78A
:2042F0006EFC8DF8005002208DF801000DF11300FFF7A6FFE06E401CE06629E042F20F00DF
:204310002946FDF75EFC42F210000121FDF759FC42F211000121FDF754FC42F2120001210E
:20433000FDF74FFC04F1740142F21300FDF747FC42F20E003221FDF73BFC8DF801500DF1B2
:20435000130029460B2206F01FFC606E401C60666846FDF741FC0EB0B0BD38B5C94D286800
:2043700003E00468FFF71CF920460028F9D10020286038BD1048C28C90F82430806800E094
:204390000068002808BF002006D0817C8B42F7D1C1898A42F4D108467047C046AC09002073
:2043B00038B5054D01E0641CEC84EC8CFFF7E2FFA042F8D038BDC046D8080020F00E0020CB
:2043D0002B3E0000C73E0000153F0000773F0000D93F0000A1450000F73F000011400000D0
:2043F00010B5044600212822ADF1280D684606F0CBFBA5491122684605F08CFFFF228DF801
:20441000182005208DF812008DF8114000218DF815108DF8161009228DF8132001208DF8C3
:2044300017008DF814000B220DF1190006F0ACFB6846FDF744FC0AB010BDC046F408002050
:20445000C0D8000030B5924C94F82B00ADF1140D401E42D0401E3ED0401E32D0401E3FD1D1
:204470008A4968460E2205F055FFFFF776FF684600210E2206F088FB03AD00208DF80D00ED
:204490002846FDF70AFC50206946FDF70CFC01A8FDF70FFC0DF102015320FDF704FC28460B
:2044B000FDF7FBFBE06818B1016809B16846884794F82A00022814BF03200420FFF74EFE15
:2044D0000EE0FFF76DFF218D5320FDF7DFF90020FFF74FFE04E0002000E00120FFF780FFB2
:2044F00005B030BD08B541200021FDF7C5F90620FFF734FE08BD10B5654CE088410808D304
:2045100000202061FFF7B2FEA01D012105F08AFFE088810809D3002060610220FFF7A6FE7D
:20453000A01D022105F07EFFE088010906D3FFF789FFA01D082105F075FFE088C00805D3F9
:20455000FFF7D0FFA01D042105F06CFF10BD38B5041C4FF000050BD041200121FDF78CF94F
:204570000520FFF7FBFDB4F1FF3F18BF251C06E041202946FDF780F90620FFF7EFFD284684
:20459000FFF7D3FA38BDC046C5D80000DED800002DE9F0430446618C606A4FF00008ADF1CB
:2045B0002C0D6A46CDF80080FDF76EFF4546002833D10098002830D006467079042826D18D
:2045D000B068F188CDF8048001AAFDF760FFF0B90198E0B107467879D7F8089005280ED16F
:2045F000F88820280BDC02A84146202206F0CCFAFA8802A8494605F08DFE012504E0012D5A
:2046100002D03F68002FE6D10198FDF743FF3668002ED2D10098FDF73DFF002D2FD01C4D90
:2046300002A8202205F1740108F0D9F938BB94F82820286E2969012A0CD0032A1AD1A86E25
:204650006969401CA86647F2305088420CD06861022007E0401C286647F23050884203D09D
:2046700028614046FFF7B2FA608B2188E36A2246FFF7A4FBD5F8FC1009B1204688470BB018
:20469000BDE8F083E008002024090020D0D80000D8080020C3490870FEF7C5BD7047F8B596
:2046B00008B1077A0FB90020F8BDD94E322200214FF6FF7536F80C3F9D4204D0022F02D18E
:2046D0000488A34202D0521EF4D100E031460846F8BDD04808B50088C00806D2FEF7C1FD48
:2046F00018B94FF47A70FEF7BFFD08BD08B501884FF6FF728A420DD0FFF7D1FF50B1418900
:204710004A0807D241F0010111F4A64F418101D1FFF7DFFF08BD30B50546EC6B00214422F6
:20473000ADF1440D684606F02FFA14F8010B8DF8000021680DF10100016061680834416081
:204750002078617805F058FEA41CADF80A0041080FD32078617805F04FFEA41CADF80C00CF
:204770002078617805F048FEADF80E00BDF80A00A41C810808D32078617805F03DFEADF8A1
:204790001000BDF80A00A41CC1080FD32078617805F032FEA41CADF812002078617805F05C
:2047B0002BFEADF81400BDF80A00A41C01097FD32078617805F020FEA41CADF81600207895
:2047D000617805F019FEA31CADF818001878597805F012FE9A1CADF81A001078517805F047
:2047F0000BFE931CADF81C001878597805F004FE9A1CADF81E001078517805F0FDFD931C70
:20481000ADF820001878597805F0F6FD9A1CADF822001078517805F0EFFD931CADF8240053
:204830001878597805F0E8FD9A1CADF826001078517805F0E1FD941CADF82800207861789A
:2048500005F0DAFDADF82A00A41C6178207805F0D3FDA41CADF82C002078617805F0CCFDF7
:20487000A31CADF82E001878597805F0C5FD9A1CADF830001078517805F0BEFD931CADF89E
:2048900032001878597805F0B7FD9A1CADF834001078517805F0B0FD931CADF83600187830
:2048B000597805F0A9FDADF83800BDF80A009C1C40090ED320786178A278E37805F0A0FD86
:2048D000241D0F906178A2782078E37805F098FD1090C049086B401C08632846FEF7B6FC80
:2048F0002846FFF703FF11B030BD08B5B0F84010012916D1FFF7D3FE78B14289510B0CD3D8
:204910004EF6FF711140418141F4005141814EF66020FEF7BEFCFFF7DCFEAE49086A401C70
:20493000086208BD3EB50546B5F840000D2838D1EC6B14F8010B8DF800006178207805F075
:204950005BFDA31C8DF801001878597805F054FD9C1CADF80200A2782078E378617805F0C9
:204970004FFD241D01906178A2782078E37805F047FD02902846FFF792FE38B142894FF66B
:20499000FF611140418141F4007141812846FEF795FC904C0421201D05F039FDE06A401C29
:2049B000E0623EBDF10E0020C8B5071C2ED0F96B61B3B7F8400048B30E7807F13000FFF7E7
:2049D000F5F918B3387A032809D13846FEF714FC4FF6FF71814219D0388002213972304677
:2049F000801E10D0801E0AD0401E04D0801E0DD1FFF754FEC8BD3846FFF78DFEC8BD384634
:204A1000FFF773FFC8BD3846FFF78CFFC8BDC046D4090020F40E0020AE4B70B5002232245A
:204A30004FF6FF7633F80C5FAE4203D05D890540A94202D0641EF5D100E01A46104670BD60
:204A5000B0B50546634C2878616BE1281BD0A16BE92815D0A16CF0280FD0E16CF12809D042
:204A7000E16B20B929690020FEF754FE0DE0481CE0630AE0481CE06407E0481CA06404E0AF
:204A9000481CA06301E0481C6063697831F07F0050D0C8092AD24FF480500146FFF7BCFF1E
:204AB000F0B12F78BFB14189CA0B38BF41F4804106D342894BF6FF711140418141F40041C4
:204AD000418142894EF6FF71114041814FF4FA60FEF7DFFB04E042894BF6FF711140418193
:204AF000287838BBE069401CE061B0BD4FF440704FF48071FFF790FF071C16D0287858B95A
:204B1000788940F48070788140F40071798140F6B83041F0010105E078894FF6FF610140AB
:204B30004FF47A707981FEF79FFB287810B9A06A401CA062B0BD0EB502218DF80810017A73
:204B5000022902D0FEF758FB00E00088ADF800006846FFF7CBFD0EBD08B5017E39B9017815
:204B700029B10C30FFF79BFD08B10021418108BD08B5C6490288CA80427B012A04BF0122B2
:204B9000CA70FEF7A1FB4EF66020FEF782FB08BDB0B50446BD4D2288E888904210D1204653
:204BB000FEF79AFC071C0CD120886188221D0023FFF704F928460421001D05F028FC00E0CB
:204BD00002273846B0BD08B5FEF7D6FEFEF7DEFE08BDC046F00E002010B5B44C0021382231
:204BF00004F1180005F0D0FFFCF723FEA060FFF73CFAFCF755FEA068FEF7AAFE552040F202
:204C1000EE21FCF743FEFCF750FEFFF7DCFF0121201D05F0FCFB10BD2DE9F043ADF1140D0F
:204C300001A8FEF7BEFEDFF88492002839D0002468460094FEF7D3FE0098FFF759FAFEF7EA
:204C50009BFD071C1DD0F80000EB071080B2FEF786FC5FEA000808BF271C13D005462E1D25
:204C700020462946FEF7EFFE288869886B693246FFF7A4F8641CE4B218361835A742EFDC89
:204C900000E0A046F9B201A84246FFF7ABFAB8F1000F02D04046FEF783FC0120494608701B
:204CB00006E0002049460870FFF722FAFFF7C0FA05B0BDE8F083C94B024618783F28B4BF82
:204CD000411C0021012A197040F0800008BF40F040007047D4090020F0B50C461546074658
:204CF0001E46ADF1540D00213822684605F04CFFADF8004002208DF808006C4C8DF80C00FB
:204D1000E07878B168460EA9FEF768FD20B303210FA88DF8081003686A4613604068506012
:204D30008DF80C10E088ADF80A003846FFF7C3FF8DF80D00012D4FF001008DF80E0018BF0B
:204D50008DF80F00ADF828601A9809900BA8FFF777FA6846FCF7B0FE15B0F0BD1CB5044641
:204D700003208DF8040001A90091627921880123FFF7B2FF608940F48050608142F6E060A7
:204D9000FEF787FA49498869401C88611CBDF0B5B44CB54A322100264FF6FF75ADF1340D37
:204DB000A4F10C0737F80C0F854206D07889430803D3C30B65D2024219D1491E06F101069A
:204DD000F0D10C3C32206FF0310734F80C1F8D4202D06189490804D2401E07F10107F4D1A5
:204DF00002E02046FFF7BAFF002F45D04CE09F49014224D009A800210C2205F0C5FE022043
:204E10003B888DF8080003A9ADF800306846FEF7E5FC28B104A90A680AA8026049684160CF
:204E30003888934BADF826001888ADF8240009A8FEF745FE79894FF6FE40084078817989DF
:204E500044F6FF700840788131460027312914BF491C391C8E420ED0880000EBC1002218B7
:204E7000205A854202D05089400802D2002FEDD007E0174605E027B94EF66020FEF709FA69
:204E900002E03846FFF76AFF0DB0F0BDF00E002070B5064C61780225ADF1280D032958DB12
:204EB00001A9FEF79BFC002853D001E0F00E002007AA0123137005F0C0FA8DF81D0005F0C4
:204ED000BEFA00216B4E8DF81E00304605F0B9FA8DF81F001946304605F0B3FA8DF82000AF
:204EF0002946304605F0ADFA8DF821000321304605F0A7FA8DF82200002141F2707005F07B
:204F1000A0FA8DF82300194641F2707005F099FA8DF82400294641F2707005F092FA8DF814
:204F30002500032141F2707005F08BFA0092BDF806109DF813208DF8260018460B23FFF739
:204F5000CBFE606A401C60624FF47A70FEF78CF9002528460AB070BD7FB5424C32224FF614
:204F7000FF754FF6FF43A4F10C0030F80C1F8D4209D041894E0806D301F44076B6F5407F7C
:204F900004BF19404181521EEFD14FF440704FF48071FFF741FDF8B90C3C322034F80C2FE6
:204FB000954217D061894B0814D311F4407F11D102208DF80800ADF800206846FFF768FFDA
:204FD00050B960894FF6FF5140F4807060810140618101E0401EE1D100907FBDF20E002035
:204FF000254900B50978ADF1240D03290FDB01A9FEF7F4FB58B106208DF81C0007A9009179
:205010009DF81320BDF806100123FFF765FE09B000BD10B5194CA088410808D3607808B9EB
:20503000FFF7FAFD201D012105F0FCF9A088810806D3FFF7ACFE201D022105F0F3F9A08897
:20505000C00805D3FFF788FF201D042105F0EAF9FFF751FAFEF784FDA08808B9FDF77FF9DD
:2050700010BDC046E009002000B0FFFF0090FFFFF60E0020905F0100F10E0020F00E0020B7
:2050900010B508F02FF980B260F30F0408F026F980B260F31F44204610BD08B50090BDF84F
:2050B000020008F017F9BDF8000008F00FF908BDF8B5001D84B214F0030002D0241A241D04
:2050D000A4B2FFF7DDFF0146C948102C47680160C8BF8768388800221646C30BDD0319D1A8
:2050F00026B984420ADD3A46012617E01388C3189BB29C42138011DC174618469FB1001B2F
:2051100080B20428B4BF3C88385344F400443C803F1D08E080F40040002680B2C719388837
:205130000028DAD100270846FFF7B7FF3846F8BDF8B5C64AAE4CC64B121D0C3422F00301EB
:205150009C4621605E1A2068256860606768A660002001E025F8020BAB42FBD84FF6FC7519
:20517000B3102A4001EB830323F8040CACEB0202E82315403B80EC3DA1F8E850E83144F850
:20519000081CFFF795FF44F8040C606844F8080CF8BD974808211038A0F84010C54981640D
:2051B000FFF7C6BF924A0021022002F10C0343F80C1F401E9960FAD130320620401E22F8BB
:2051D0000C1BFBD1FFF7E5BF2DE9F8438046FFF757FFC44C02250026814654F80C7F5FB9BC
:2051F0003046C4F800800146A6600A4608F07EF8606018B903F016FC474501D1264601E0A1
:205210006D1EEAD14846FFF748FF3046BDE8F8832DE9F043ADF13C0D08F064F8C04EC14C38
:2052300000258146684600213C22082308F04AF856F8042F6068A768069023680897694619
:205250000592C6480493002208F038F8071C10D0FFF716FF80463846FFF7B6FF48B140463C
:20527000FFF71BFF241D6D1CDCD0484608F02EF801E003F0D7FB0FB0BDE8F08310B5044660
:2052900000212C220823ADF1300D684607F038FFE068A1680890606800236A4608F00AF82F
:2052B000002818BF002001D103F0BCFB0CB010BD10B50446FFF7E4FE4D4934F8042C6FF37F
:2052D000DF3224F8042C4A680860241F944238BF4C60FFF7E2FE10BDD0B504463C20FFF7C7
:2052F000E7FE071C14D000213C22082307F0EAFF207AB86160893862E068386160683946CA
:20531000002207F0DBFF06463846FFF7D1FF16B96FF00300D0BD0020D0BDB0B5044607F0E9
:20533000E9FE30F0010008BF6FF004041BD007F0BDFF0546FFF7A4FEB44A062132F80C7FCC
:205350006FB1A388BB4208D1526812680021954208BF0121A160002403E0491EEED14FF09A
:20537000FF34FFF79AFE2046B0BD08B5406820B1006807F099FB002008BD6FF0020008BD55
:20539000B0B5054607F092FF044607F0B3FE30F0010008BF6FF0040414D0FFF771FE9B4A56
:2053B000002132F80C7F4FB153681B689C4204BF2971002404D0491C0629F2D36FF00404D6
:2053D000FFF76BFE2046B0BD38B50546FFF758FE444C0222014654F80C0F18B1A84202D020
:2053F000521EF8D100240846FFF757FE204638BD980F0020C24A10B512680C464FF47A71BA
:205410000023A1FB000101F0FBFC002908BFB0F1004F2EBF6FF002002060002010BD98B5EC
:205430000446FFF72DFE2168002908BF002709D00F4657F80C2C2260002347F80C3CFF244D
:2054500001F8024CFFF729FE384698BD22270020002C002010B5044607F028FFFFF7B4FF7A
:20547000002808BF6FF004000DD00830FFF7D7FFA06038B110F8081C217110F8070CA07116
:20549000002010BD022010BD062880B50ADABC4B820002EBC0029F5A98181FB14FF6F87279
:2054B000BA4202D14FF0FF3080BD00880880002080BDC046495A000038B50C460546FFF7CC
:2054D000DFFD002144F80C1C296811B92C6006E0114651F80C2C002AFAD141F80C4CFFF73A
:2054F000DCFD38BDA40F002098B50F460446FFF7C7FD57B13A4600E00A4652F80C1C002902
:20551000FAD1216842F80C1C2760FFF7C6FD98BD1420FFF7CDBD01460879891DFFF7B4BFA5
:20553000900F0020DCD6000010B50446744802680023D90750080143D007801A4FF47A7276
:20555000994101F05DFC002908BFB0F1004F28BF6FF000406060002010BDC046335A000071
:20557000674909684160002070471CB5044660686946FFF73FFF20B900986060204600F035
:2055900010FA1CBD10B5044607F08CFE6060002010BD10B5044600212C220823ADF1300D57
:2055B000684607F0ADFDE0200890A168606800236A4607F07FFE002818BF002001D103F0F8
:2055D00031FA0CB010BD08B507F08CFE07F086FE002008BD08B507F061FE07F05BFE0020E6
:2055F00008BD08B5406807F051FE002008BD08B5406807F047FE002008BD03F013BA08B543
:20561000406807F07BFE002008BDC046BC0F0020DCB5044607F04AFEFFF7D6FE064607F065
:2056300069FD30F0010014BF002E6FF0040017D0606858B1B0F1FF3F05D06946FFF7DAFE86
:2056500030B107460BE04FF0FF3000E0002000907068009907F056FE002700B901273846E1
:20567000DCBD10B50446FFF70BFD8C4B0022014633F80C0F30B1A04208BFD4B203D0521C9D
:20569000062AF5D3FF240846FFF707FD204610BD70B50646B079F4680628A4F108042BDA9A
:2056B0003079062828DAFFF7EBFCB279344D910001EBC20169184968E1B1FFF7EEFC3079EB
:2056D0002070B0796070307AA070B179880000EBC1002818F16840680830FFF7EDFEB17995
:2056F000880000EBC1002D186868406807F006FE002070BDFFF7D1FC6FF0020070BDC0460A
:2057100098DA000010B50446E088FFF7AAFFFF2808BF4FF0FF3003D0A0712046FFF7B8FF9E
:2057300010BD08B54068FFF7C3FD002008BD10B50446A088FFF7BCFC0028A06014BF00208C
:205750006FF0030010BD08B540680C38FFF7B0FD002008BD10B5044660680C3080B2FFF79E
:20577000A7FC50B1A18800230181FF22036000F10C0182721846A16010BD6FF0030010BDD6
:20579000C80F0020F8B5044607F090FDFFF71CFD071C16D0FFF774FC4049002231F80C6FBA
:2057B00066B94FF6F8730B804F6000258D6022717968A160FFF771FC2846F8BD521C062A25
:2057D000ECD303F02FF9F8BDD0B5044607F06EFDFFF7FAFC071C08BF6FF002041CD0FFF7DC
:2057F0004FFCA3882D49002231F80C6F56B90B804F60A3688B602273796821610024FFF796
:205810004CFC09E09E4208BF6FF00204F7D0521C062AE9D303F006F92046D0BD08B5FFF782
:2058300020FFFF2808BF002004D08A4B810001EBC001581808BD10B504462088FFF7EEFF85
:2058500038B1816811B12046884710BD6FF0010010BD4FF0FF3010BD0EB501900821ADF818
:20587000001068460321ADF80210FFF7E4FF0EBD38B50546FFF7EEFD041C0DD12879694674
:20589000FFF702FE28B1A868FFF7E6FF6FF0050038BDBDF80000A880204638BDBC0F0020C2
:2058B0002DE9F0430646ADF11C0D07F0FFFCFFF78BFD4FF000090546CDF8009007F01AFC17
:2058D00030F0010002D00098A84202D16FF0040059E070684C4658B1B0F1FF3F05D001A903
:2058F000FFF788FD30B107464CE04FF0FF3000E02046019007F0D6FC0199012701EB0008FF
:2059100000E001936868019907F0FCFC00282ED003A8FFF79FFDD8B99DF8100002A9FFF770
:20593000B3FD88B9B368BDF808009DF81210059A984748B19DF81270B773BDF80800B08131
:20595000059B33614F4612E005996846FFF7B4FD0198641CB0F1FF3FD4D00028D2D007F02C
:20597000A1FCB8EB000302D001989842C9D2009905F10800FFF7B8FD24B1686807F0BEFC5C
:20599000641EFAD1384607B0BDE8F08308B50820ADF800000C20ADF802006846FFF74BFF12
:2059B00008BDB0B50446A768ADF1280D27BB0C20FFF77EFB071C16D06846002124220823BB
:2059D00007F05CFC002306976A466168ADF810302148059307F04EFC386038B9FFF7D6FFB4
:2059F0003846FFF765FC6FF0030018E0E06878602069B860A7600AE0FFF742FB0546386898
:205A100007F052F82069B8602846FFF746FB3868616807F02BFC386807F024FC00200AB0D7
:205A3000B0BD02460D4808B5904708BD08B5014688684968884708BD08B542882A2A28BFF8
:205A50006FF0010004D205490C3151F82210884708BDC046C80F00203D5A0000E8D6000014
:205A70002DE9F04FD14D4FF00108ADF11C0D05F141020590CB48C2F8CF8F0768002FFCD031
:205A9000CB4844380390C0210160C748011D0968890805D20168D94B090C41F0F00119703F
:205AB0000021001FC2F8FF1FD54ED64CC7680190B80E12D2780E10D3802086F81B024FF626
:205AD000D801A6F85C1286F80B0205F043F9A146D9F8CC00C0F3042004E0A14659F8040C8E
:205AF000C0F3046007F0B4FA00EB2770401C162805DA10F10A0FB8BF6FF0090000E01520D1
:205B100000F01F0040F4F850A6F864022868800828BF47F04067CD49F80EBD0E80F00100B1
:205B300000F00100086085F0010000F001008860384605F055FA00220446154607F0AAFA89
:205B500000B945462A46C24D2B68002BFCD0C64800F1080ACAF81040C5F800800AB107F0D6
:205B70009FFA06F0EDFFC149091F0291496880B24C680090B74840F2FF3200232C21403864
:205B9000A04707F01FFA044607F084FA4FF0000B00B9C3462B68002BFCD0CAF81440BBF1E7
:205BB000000FC5F8008001D007F07AFA06F0BAFF044607F06FFA4FF0000B00B9C3462B6855
:205BD000002BFCD0CAF80C40BBF1000FC5F8008001D007F065FA07F099F8044607F05AFA74
:205BF0004FF0000B00B9C3462B68002BFCD0CAF80840BBF1000FC5F8008001D007F050FAEB
:205C1000059805F0B9F9044607F044FA4FF0000B00B9C3462B68002BFCD0CAF80440BBF169
:205C3000000FC5F8008001D007F03AFA0599084607F054F8874C400040F0200084F80901F4
:205C5000084607F057F840F0100084F80901084606F0D6FE049007F01DFA4FF0000B00B91D
:205C7000C3462B68002BFCD00498CAF82000BBF1000FC5F8008001D007F012FA059908464B
:205C900007F050F8400040F0600084F80C01084607F054F8C00040F0800084F8010108468F
:205CB00007F058F8800040F47C40A4F89C01084606F068FD049007F0EDF94FF0000B00B9C7
:205CD000C3462B68002BFCD00498CAF80000BBF1000FC5F8008001D007F0E2F94FF4800065
:205CF0002060D9F8580040F21E216FF31F40814215D9D9F80000D9F80030C0F30365C3F365
:205D1000034005B16D1E072805D006280EBF0720801C00F00F0045EA001006F8080CC7F323
:205D30008140401E02D0401E28D024E0D9F8D000810C20D24FF480412160D6F80210420A37
:205D5000C0F3033502F0800221F08F010A4345EA0201C6F80210D6F80120031263F3030285
:205D7000C6F80120316800F0E70521F0E70145EA0100306002E04FF0004020604FF4007072
:205D9000206407F017F940F0300084F8C800C7F38150002838D0401E0CD0401E28D0022156
:205DB00027E0C04694022243AC3F00500000094044600C40404606F00FFC054604202946F2
:205DD00005F00AFB042006F007FC8542FAD10198056825F07F4006F06BFB02984069036826
:205DF00007214FF06022280E98474FF4806020600321042005F0F0FA0DE0C04656620840D8
:205E10000A600840BC1200500420414605F0E4FA114806F04DFBD9F8B0001049104E47F618
:205E3000180700F03F0084F8CB0F029D0F8030682868C1680220884740210398094C01608C
:205E500007B0C4F80080BDE8F08FC0460000204300800C4040A00C40BD37860070B00C40D4
:205E70002C2009409404604200A00C40A40100102DE9F04F09AFADF13C0D009002923888CA
:205E900001911E46ADF83400101C08BF002000F0828100274FF0010B00F10109B846DA4692
:205EB0006BE1252940F062811078521C02922D2818BFADF8228004D11078ADF822B0521CE6
:205ED000029230281CBF4246434605D1114608785B465A46491C02912A284FF0FF3516D148
:205EF00028460B93346809900299CDF81C80E01C4B1C20F00300001D306050F8044C08781A
:205F10000293002C44BFADF822A0644212E0444609E0610001EBC40140180299A0F1300471
:205F30000878491C0291302801DB3A28F1DB0B93294609912E282BD10299087843462A2888
:205F500001F10101029111D1099330680794C01C20F00300001D306050F8045C002D48BF81
:205F7000454608780995491C029112E045460AE0690001EBC50140180299A0F130050878B5
:205F90002B46491C0291302801DB3A28F0DB099307940AB122460B926C2804D04C2818BF7D
:205FB000ADF8208005D102990878ADF820A0491C029103A9CDF8288007AB0E9164280C93A9
:205FD00000F08B80692800F08880BDF834C0752872D078286ED06F286AD0702850D06328B3
:205FF0003DD073281ED0019802990128A1F10101029115D96B490C68B5F1FF3F03D0A842C0
:2060100088BF6D1C00D8019D0995684602A9324607ABA047C71902990A9801F1010974E0B5
:2060300040462AE030680299C01C20F00300001D306050F8040CBCF1000F01F1010901469A
:2060500008B956A001460E9106F086FF0A90B5F1FF3F5BD0A842C4BF281C0A9056E0306856
:20607000C01C20F00300001D306010F8040C5D468DF80C0002990A95584601F1010945E02F
:20609000082035680B90E81C20F00300001D306050F8041C0822102307A804F093FE401E75
:2060B0000E904021017002990E9801F1010929E0082302E0102300E00A230299306801F1A8
:2060D0000109C01C20F00300001D306050F8041CAA42BCBF2A1C0B9210E00299306801F143
:2060F0000109C01C20F00300001D306050F8041CAA42BCBF2A1C0B926FF0090307A804F02A
:2061100061FE0E900C9D281A0A90079CBDF82250241A65B906E06846202101AA06F0F4FA63
:20613000079C7F1C641E0794F5D50A9800E007940546401E0A9075B9BDF82200E8B107988D
:20615000401E079019D46846202101AA06F0DCFA07987F1CF4E70E98411C0E91017801AA0C
:20617000684606F0D1FA0A987F1CE1E7684601AA06F0CAFA7F1C09F101094A46029812F8B5
:20619000011C401C002902907FF48BAE009808B14146017038460FB0BDE8F08F286E756CEE
:2061B0006C2900C0ACDA00002DE9FE4FB94C0F460646F80B80F02081B80880F0BA80DFF896
:2061D00084B2DFF890A2DFF89882DFF89C92B80F6DD29B480678002E4DD138094DD39B4982
:2061F000994A58460024012504700E78157016B1204606F035FC964806F046FF9649224691
:20621000504606F0D7FF9548DFF868A2017801291DD141460E78D6B9924D286888B106F083
:2062300073FE4A469249914E13682D680A68C01A000B82183060B2EBC51F28BF0C6007D255
:206250000A608E484FF0005106F030FE2CE005705046448040F609010180417B01F0F00100
:2062700041F001014173017B01F0F00101734460814E306018E0390914D2B80BC0F0D98066
:206290002046001D06F0A1FF061C08D0706830B17468F068B6F9101082A20CCAA04727F423
:2062B0000057C6E00021017027F00807C1E074495046002206F07EFFF06840F6C41181426A
:2062D00018D1042006F088F9A0B14D46286888B16C4C206870B906F017FE29682060814235
:2062F00026BF401A401E401A000BF060F06800F58D70F0604446207858B10220ADF80000B0
:20631000684606F08DFB00215F4E2170BDF8080030805E495E4B584601240022047008784C
:206330001A70401C0870192006F064FE27F000577FE004F10C0A504606F047FF061C52D070
:2063500005F0D2FF7368326A00253562DBB196F8243042F002024FF0000990465B1E07D022
:206370005B1E03D09B1E06D150A002E051A000E052A090E800037268F068B6F910104B468F
:2063900094464246E047B4F91200401C6FF31F306082504606F01AFDF068B0F98C10B4F9C9
:2063B000122091421FD13C49097801291BD090F88E409CB904688CB1384909680968B1F164
:2063D000FF3F10D0364909686830B4FBF1F106F04DFFF068683006F045FF04E080F88E50D0
:2063F000284604F065FF504606F0EFFE27F0020708B147F002071CE006F070FF0146204627
:20641000083006F0E2FE0646346A084606F062FFA0080CD25EB17068316AA143316230B16F
:206430007568F068B6F9101000232246A84727F480471FB11148394606F038FDBDE8FE8FE7
:206450001B27002017270020152700201F27002081AC00005826002015C9000019270020A1
:2064700014270020F0260020F4260020FC260020EC260020A4260020001004401425002036
:2064900011880000F8260020B825002020270020162700209026002078120020002700208D
:2064B00098DA000000000000200000000000000000000010000000000000004000000000EA
:2064D000000000202DE9F04FADF1540DDDF878C008901F9FCDF830C086460D97BEE8000FFB
:2064F000EC46ACE8000F9EE800438CE800430B9380690A920778099137F07F070ED0C26846
:2065100087680F9201791097467911912E29129602DC31462E290ADA007909E020277E267D
:206530001197D0F8C4101296001D10900F912E20139029E1119ABDF90810BA424FEA420017
:2065500002DC129ABA4203DA139AC0EB420003E0119A7800A0EB4200109A099E0F9F105AF2
:20657000721C38180E900B9E0992401C047807903019814200F3058100250226AA462F46A5
:206590000E9890F80090B14540F3FB80BDF90E00B842C0F2F6800698007810F07F0F18D017
:2065B0000E98835D7BB98019407830F07F0305D14FEAC008B61C4FF0000B87E04006B61CAC
:2065D0004FEA905B89E04FEA231803F00F0B761C7CE04FF0000802E0761C4FF0000AB145B5
:2065F0000EDD0E98805D00FA0AF006F050FB0828C8BFCAF1080082448044BAF1080FEBD067
:206610004FF0000B02E0761C4FF0000AB1455DDD0E98805D00FA0AF0C04306F038FB082860
:20663000C8BFCAF1080082448344BAF1080FEAD04CE0B8F1020F22DB681C84421FDDBDF918
:206650000A0008EB05018C42B4BFA4EB0509C146B84210DC0D9B73B108980B990C9B4069FC
:20667000691809EB0102FB180490521E684605F0DDFA07980478A8EB09084D4422E00B990B
:20669000BDF908006A18904219DCBDF90C00904215DBBDF90A00B84211DC0D9B7BB1089B41
:2066B00058689C8AC1680C9B09680FFA82FEFB188C461AB271462346E04707980478A8F16E
:2066D00001086D1CAC4204BF7F1C0025B8F1000F03D0BDF90E00B842ABDABBF1000F3FF4EB
:2066F0004FAFBDF90E00B842FFF64AAFBBF1020F20DB681C84421DDDBDF90A000BEB050128
:206710008C42B4BFA4EB0508D846B8420EDC08980B990C9B0069691808EB0102FB18049018
:20673000521E684605F082FA07980478ABEB080B454421E00B99BDF908006A18904218DCC2
:20675000BDF90C00904214DBBDF90A00B84210DC089B5868C168DDF830C009681B8A0FFA90
:2067700082FE07EB0C0422B28C467146E04707980478ABF1010B6D1CAC4204BF7F1C002546
:20679000ABE70B9824180B94099807785FB10A98401EB0F1FF3F0A9005D0BDF90C000B99F5
:2067B0008842BFF6C7AE15B0BDE8F08F2DE9F04F0128ADF1140D40F0F280DFF81492D9F8BF
:2067D000DC00012840F0E9800220C9F8DC0006F089FD0290012005F075FB20B10121064679
:2067F000C9F8DC10D5E006F039FD03906E484FF00008C0F80080012005F0EEFE012818BF31
:20681000CDF8008004D1404605F0C6F80120009066486E4CC0F800801934D4F8FF0F11206C
:2068300006F050FC00280CBF46460126102006F049FC08B146F002060F2006F043FC08B1E1
:2068500046F004060B2006F03DFC30B1584800685849006B0246088890470A2006F032FC9C
:206870000028404618BF01204FF0805B0BF5DC7528B128685049006B0246088890474F4844
:206890000127076028688069014646F0200088474B48076006F010FC00F0010101914008AC
