:2000000000390020C9AD0000FDC90110FDC90110FDC90110FDC90110FDC90110FDC9011007
:1C002000FDC90110FDC90110FDC90110FDC90110FDC90110FDC901103BCA0110A4
:20003C00000000007388000000000000FD870000E00900000FC046C0AD0400214904002127
:20005C007D04002181040021110500219105002141060021F8B51047F8B50E46002101259A
:20007C00AD0430470A48037800F00FF89B070BD0124C2078FF2807D0FF2121700E490F24CC
:20009C00240220436031C882F8BDF8B5014800476B020021E54C0000094801E00848000CA1
:2000BC00064C05492278FF2A01D1CA7A22706031C8827046801C004700620840A406002130
:2000DC00070F0808F0B4084770B503461546012906D0002906D0114A2846FFF7BBFF70BD7D
:2000FC000F4800E00F480524834203D84008641E002CF9DCE340012040031818820B012954
:20011C0007D00649002380312846FFF7A5FFE0B270BD0249044B6C31F6E70000835C00000F
:20013C00A0BC862300830D2374060021F8B51A4E0546716B1948CC09E401002D11D018498A
:20015C00097802290FD0007B044372B60120154F4002B847114820380088C109C90704D0A1
:20017C0016E0C07AF0E7407BEEE70F497463CC61400AC0070CD001208003316B002D01D045
:20019C00014300E08143084631630749403948630020B84762B6F8BD8002002188000021CD
:2001BC009B0200217B3F00004040044010B5224A0021516121498968C90009D42149204B0D
:2001DC00CA0598424B6B01D8134300E093434B631D49FFF777FF10BD38B51A4D287F00284F
:2001FC0027D11A480088C009C00722D1124C606900281ED1684600F045F868460078012816
:20021C0017D168464078102813D208206061686A4009400120600E4A0021D1620D4A02216C
:20023C001160012108432060032108436862206038BD0948804738BD0040044018000021CC
:20025C000000930880020021CF680000680000210011044080E200E0C33B00000749002877
:20027C0000D00420064A72B60978C90701D0105800E0802062B640B2704700006B0200219D
:20029C005860044003B40148019001BDA56F000000000000010003000A001F005900EB0072
:2002BC003902EA04F9099712EB1FA132784A0A66FA828C9E63B617C964D6EDDEC1E3E0E532
:2002DC00FF000000A36100007F1407134D00F1242E1F133FB00A3F0007FF000030400040A2
:2002FC000140034007400F404F40CF40CF41CF43CF47CF4FCF3FCF2FCF1FCF0F00000000FC
:20031C000F00080000003F00000040003F000000040068000E00DC00060043001A0005002E
:20033C0000000000020000003F00000000000400C00000000400C0000000070050C0009130
:20035C00007070C00091007082312100319110B10070018101B100A18231329110B101917B
:20037C001110418141224F40F106007051C0019130181039833108D01831416F3100319179
:20039C0010B1831414165B680070251050C00091F4C3C0C02014036F3110410422C08231BE
:2003BC002100319110B163393110410482C082312100319110B163393110A2C082312100AF
:2003DC00319110B1501015310514059200703F6452C0311031066131C102426412C131107C
:2003FC00213971065131E102426400708A65996588C0208250398039001E9F4041C001304D
:20041C001814181A89C0308260398039001EA94041C001301914191A3C64369110B134918F
:20043C0010B154B0007154A064B0F0800022AF404012B09032B053825339533985643F64F4
:20045C0011C122C1426470C1C26811C1C2C0426470C1C76850C000912772989215161416B7
:20047C0042105310F0C12182313131398139313151B070B272652772999270B2621073109A
:20049C00F0C331822131213981391B107265E2C08231608280318039020061B0007132918A
:2004BC0010B151A061B0277230C2F36800008012B09032B0007050C000912772999262107C
:2004DC007310F0C3318221312139813951B070B27E652772989270B242105310F0C12182BD
:2004FC0031313139813931311A107E6551A061B02772B0C018693F6401C122C1426401C1AF
:20051C00C2C04264151A3C64359110B153828564C012B09032B000703F6472C281C0426461
:20053C0022C111C1426402C011C1426462C031C3426462C311C1426402C311C1426453829F
:20055C0053398564E2C347641122404142C281C8426452C211C1426472C2E1CE426402C23A
:20057C0081C8426402C201C84264B0C0546900703F6442C201C8426452C211C0426472C2CB
:20059C00E1C0426402C001C1426462C001C3426422C101C1426462C301C1426402C301C1E3
:2005BC00426453828564007061B000711214231C7A4D339110B10070329110B172690070D9
:2005DC0061B000711318321C8649329110B10070339110B17E690070C2C047641510C2C091
:2005FC001216476441311514C0C0803105145410A07804040070E6C0863101CC1614671068
:20061C006182F0C3010417140070067305720B720E7250B00071818060B050A092804122B4
:20063C00C3458080F1C11004301601110114016CD661D761D861D961DA61DB61DC61DE6121
:20065C00E061E261E461366339639180F2C0210421318280422A1214321601112114016CB6
:20067C00EE610B62F4613963EE610B62F4613963E661E661E661E661E661E6619464E6611B
:20069C00F964E6612A65E6615665E6614667E6611012B0900E720673057210123090A76112
:2006BC00F0CF3C67D4C103C0C0C35464407850915078109260782092707830928078409228
:2006DC00907860923078909110824039F00601101031101400924267E661BCA0E2A054A070
:2006FC00F08050221546408000222B470D6240A02D828D318D391082F1C0100409101A82BF
:20071C004A391A041082803910040E10AB10BC10C21063642972E0CF3C6713B003B0C866EE
:20073C0053B050B054B064B013B0A5661082E0223846AE660071418001222B47F080102225
:20075C004B46F022184764B03122384263B0CE661082E02238467066386264B06F818F310D
:20077C008F3DD0DFFF923C670071418001222B4764B0F0805022654263B01182C12260461B
:20079C00CE6605671182D122524670665262618172818131813D8231823DC0EFF192029377
:2007BC003C670B62B081C091D381978290A2D3187F4EF30B1316E31CA44AC391E3813B1419
:2007DC009062BA1C8B46231E8B4AE31C8B4E90B207228B4290A21B1A9662E31CA44AC3919E
:2007FC00E3813B18AB1CA04E9B1CA24ABC1CA442B2101082D0229D42F0801022A446636498
:20081C00A566A462AB1094629B10946200703082F1C0100463B00071A86ABC10E0B0007010
:20083C00B281C291D281018212185181121841828131813D121CBF4AE2B032B0B0DFF29229
:20085C003C67F1C72114C34E12C86291729131B0E1B0007008C006C000C860917091007071
:20087C000182B081C091D0811018518110180614E18042828231823D201CE44AE2B02122F4
:20089C00E84632B00510A0DFF5923C672122E842E2A032B031824139F0C00104011EF64264
:2008BC00181610C01030081C04476010103C0610F1C76114FA4E16C8669171818131813DF1
:2008DC00161C014B769131B006C008C0007061818131813D408280390118F11C174B01142E
:2008FC00B080C0221747BCB033B090EFF1920F933C67007003A063B064B0EFB056650071D1
:20091C00408000222B4764B02A65EFA00071408000222B4764B003B03862018262818231F6
:20093C00823D80EFF19202933C6703A05665E661A2806364E66150B00071E661E092D08261
:20095C0000223D47C0B20070A080F022594330B002C1623101C0A080001E5243F0225343B3
:20097C00A0F56031603953632010101A136F236E11161216546B0070AD8C000099830000A6
:20099C004D6F0000698D000039AD00009D650000A1BC0000599B000085BB0000ADB90000AA
:2009BC0095B9000021A300009D91000015B50000D59A00001DA10000F1AC000085A1000021
:2009DC0001B800000E3FA70C18B80BDA500AD33809CD2C08CB2407C92006C71C05C618046F
:2009FC00C51803C41402421001C310004100F6C00800000099A8000001B40000A1820000E3
:1C0A1C0099BC0000F1BC0000C9990000ADB30000FD780000617A0000C1BC00002D
:200A380001E00000030000002003000077460000C13E0000DB3E000009460000C545000069
:200A580095450000874500006F45000063450000D14400009542000045450000B14600000F
:200A7800514400003F4400003B4400002F440000234400001544000007440000D343000033
:200A9800C5430000AB430000A14300006943000057430000BF6C00007B6C0000E1460000E5
:200AB800C1410000E3470000AB410000436C00002B6C0000E56B00005B410000A96B0000C0
:200AD8009B6B0000194100000000000000000000916B0000816B0000BD40000000000000B9
:200AF8008F3F00008F3F01008F3F02008F3F0300903F00018F3F0101903F0002903F00035D
:200B18008F3F01048F3F00058F1208048F3F00048F3F0006513F00007F3F01003F3F0400F3
:200B38003F3F02003F3F01007F3F02007B756E6B6E6F776E2D696E7374616E63652D6E61D5
:200B58006D657D007B656D7074792D696E7374616E63652D6E616D657D00C0467B737461EE
:200B78007469632D696E7374616E63652D6E616D657D00C000000000200000004000000030
:200B98006000000000000000080000000000000006000000020000008600000082000000C5
:200BB800000000000800000010000000180000002000000006088080070880800D2007C0BC
:200BD8000E2007C01400C080024000800300C0800108C08009400080084000800A4000800B
:200BF8000400008405000084FE000000519C0000E9A70000C5B9000061740000258E00004B
:200C1800CDBC0000059F0000A5810000D3BC0000A197000000000000FFFFFFFFFFFFFFFFAA
:200C380000000000000000000101010100C2010003000000000000000104C04600010400C2
:200C58000033333333333333330301FFFFFFFFFFFFFFFFFFFFFFFFFFFFFFFFFF7BC801109D
:200C7800C5BC0110D9B2011033C20110BDAD0110C1B101106DBA011065BB01101DC00110D3
:200C98000C496E697420646562756720706F727420737563636573730D0A0000040C000050
:200CB80030170020CC0C000000000000000000000000000000100040060000001500000072
:200CD800FF000000050000000302FFFF00000000F18B0000759F000001010100FFFF000064
:200CF80001000000000000000000000000000100000000000C1900201C0D0000000000006C
:200D180000000000004002400B00000027000000FF000000FFFFFFFFC4090000010000003E
:200D380041B5011095A6011015B80110FFFFFFFFFFFFFFFFFF000000000000000000010072
:180D580000000600050000000F0000000A00000070090020E5B700002A
:201000003C000000000000000000000034100000000000000000000001000000000000004F
:1C10200000000000000000000000000001000000000000000800000000000000AB
:20103C003400000000000000000000006810000000000000000000000100000000000000E7
:14105C00010000000000000000000000080000000000000077
:2010700030000000000000000000000098100000040000000000000001000000FFFFFFFF87
:10109000FF00000001000000080000000000000048
:2010A0002C0000000000000000000000C4100000040000000000000001000000FFFFFFFF2F
:0C10C000FFFFFFFF080000000000000020
:2010CC0038140000E410000095A1011091A70110A1C2011009B2011041B8011000000000EA
:0810EC00000000002D000000CF
:2010F400280000000000000000000000141100000000000000000000FFFFFFFF0000000093
:081114000800000000000000CB
:20111C00341400003011000065C2011069C101101BC2011091BA011000000000000000006D
:04113C002F00000080
:20114000341400005411000071C20110A5B6011099BF011045B601100000000000000000BD
:04116000300000005B
:201164002400000000000000000000008011000000000000000000000000000008000000AE
:041184000000000067
:20118800240000000000000000000000A41100000000000000000000000000000800000066
:0411A8000000000043
:2011AC00240000000000000000000000C8110000000000000100000000000000080000001D
:0411CC00000000001F
:2011D000000000000009002004000000000000000000000020000000701000003000000002
:2011F0001C1100002C0900200400000000000000000000000C0000003013000018000000F2
:20121000401100003809002004000000000000000000000024000000481300001800000071
:20123000000000004009002004000000000000000000000010000000A01000002C00000045
:20125000CC1000004809002004000000000000000000000020000000641100002400000074
:20127000FFFFFFFF68090020040000000000000000000000280000008811000024000000E8
:20129000FFFFFFFF98090020040000000000000000000000580000003C10000034000000A5
:2012B000FFFFFFFFA0090020040000000000000000000000100000006013000018000000BA
:2012D000FFFFFFFFA80900200400000000000000000000001C000000AC1100002400000030
:2012F000FFFFFFFFB009002004000000000000000000000038000000F410000028000000A1
:20131000FFFFFFFFB809002004000000000000000000000054000000001000003C0000003C
:1813300018000000000000000000000040130000080000000000000032
:1813480018000000000000000000000058130000080000000000000002
:18136000180000000000000000000000701300000800000000000000D2
:08137800010000006C0D0000F3
:041384000100000064
:0413880000000C0055
:04138C0000000D0050
:041390003200000027
:041394000100000054
:041398000809002020
:04139C00000200004B
:0413A000AD7C000020
:0413A400FDC901106E
:0413A8000000000041
:0413AC00000000003D
:0413B0000800000031
:0413B4000000200015
:0413B8002C0C0020D9
:0413BC00010000002C
:0413C00050090020B0
:0413C400080000001D
:0413C8000000000021
:0413CC00000000001D
:0413D0000000000019
:0413D400080000000D
:0413D8000000000011
:0413DC00000000000D
:0413E0000100000008
:0413E400940C002045
:0413E80006000000FB
:0413EC0001000000FC
:0413F000080B0020C6
:0413F40000000000F5
:0413F80000000000F1
:0413FC0000020000EB
:0414000000000000E8
:021406002900BB
:021408000100E1
:02140A002500BB
:02140C002F00AF
:02140E003000AC
:021410002D00AD
:021412000100D7
:0114140001D6
:0814180003000000380D000084
:081420000000000000000000C4
:0414280000000100BF
:04142C0000000300B9
:0414300083C4011060
:041434003C14000064
:041438003C14000060
:04143C0000000000AC
:041440008000000028
:041444008000000024
:0414480000000000A0
:04144C005009002023
:0414500029BB0000B4
:041454002000000074
:04145800F80C00008C
:04145C00740C00000C
:0414600009C30110AB
:04146400EFA80000ED
:04146800D3B00000FD
:04146C0095C801100E
:0414700097C8011008
:041474000000000074
:04147800B30C0000B1
:04147C005C0B000005
:04148000740B0000E9
:04148400440B000015
:0214880008005A
:02148A00090057
:02148C0001005D
:02148E0000005C
:01149000015A
:041494000000000054
:041498000000000050
:04149C00000000004C
:0414A0000000000048
:0414A40009BD00007E
:0414A8002DB0000063
:0414AC00A1B40000E7
:0414B0009DB20000E9
:0414B40071B1000012
:0414B800CDB20000B1
:0414BC00E9A30000A0
:0414C000DFBB00008E
:0414C400DDA60000A1
:0414C8000DC801103A
:0414CC001DC8011026
:0414D0000800000010
:0414D40024000000F0
:0414D80018000000F8
:0414DC0028000000E4
:0414E00020000000E8
:0414E4003C000000C8
:0414E8000C000000F4
:0414EC0034000000C8
:2014F00011780020F42908BF0120704711780020E52908BF0120704711780020F52908BF93
:201510000120704711780020FC2908BF0120704711780020FB2908BF012070471178002061
:20153000FA2908BF0120704711780020F92908BF0120704711780020F82908BF0120704706
:2015500011780020F72908BF0120704711780020D62908BF0120704711780020EF2908BF44
:201570000120704711780020DA2908BF0120704711780020D82908BF012070471178002046
:20159000DC2908BF0120704711780020DB2908BF0120704711780020D92908BF0120704701
:2015B0000EB501900821ADF8001068460321ADF8021003F058F80EBD2DE9FC4782461E46CD
:2015D00090468946142000F0A6F900250AAF0446A5421BD0E520207028466070A4F802A088
:2015F00084F8049084F80580A6603988A181214600F04BF938B9D0480095694600F0E5F82C
:2016100008B9009805692046FFF7CAFF2846BDE8FC870A6802604A6842600A7A02724A7A54
:201630004272897A817270470A7A02720A7A022A04D00A68026049684160704709880180CE
:20165000704703B480B502AF39780020012908BF01207978012908BF40F00400B9780129D2
:2016700008BF40F00800F978012908BF40F010003979012908BF40F020007979012908BFE3
:2016900040F04000B979012908BF40F08000BDE8804002B07047F0B50446A08BADF1140D50
:2016B000009094F8341094F83520236A208DFFF783FF1A25071C47D0E420387000267E70EE
:2016D000616A228D786807F0A7FE07F1840004F12C01FFF79EFF214607F19000FFF7A4FF4B
:2016F0006089A7F89A00207B87F89C00607B04F10E0187F89D000A6802AB1A608888988046
:201710008A799A7102AB93E80300FFF79AFFA7F89E00607D87F8A000A07D87F8A100A28B4E
:20173000A7F8A82022B1D7F8A400A16907F074FEA07F87F8AA00206A3946C7F8AC00304647
:2017500000F0A3F800B93546284605B0F0BDF8B50546242000F0DFF81A26071C33D0F7206A
:20177000387000247C70288878806888291DB8800A68BB1D1A6049685960287BB873687BAC
:2017900005F10E03F8731A6807F1100002605A6842601A7A0272A869F861287F87F82000BF
:2017B000687F394687F82100204600F06EF838B9C4480094694600F008F808B90098467810
:2017D0003846FFF7EDFE3046F8BD10B50C46ADF1180D02900821ADF8001019216846ADF898
:2017F00002104FF0FF31019102F03DFF0499216006B010BD0EB501900821ADF80010684617
:201810000521ADF8021002F02EFF0EBD2DE9F84304461D4691468846082000F07CF81A2682
:20183000071C1FD03C7000247C70394687F8029020467D6000F029F888B9009440466946DC
:20185000FFF7C3FF58B90098467846B9C27832B14168284607F0E0FD7868FFF7CBFF384634
:20187000FFF79EFE3046BDE8F8830B46BF490246D920FFF7CBBF08B5ADF80010BC49024657
:20189000D8206B4600F018F808BD00B5ADF1140D8DF8080003910823ADF80030B54AADF891
:2018B000023012788DF8042068461822ADF8062002F0D9FE05B000BD2DE9F84304461E46C6
:2018D00091468846082000F026F81A25071C15D03C7000247C70394687F8029020467E6046
:2018F000FFF7D3FF38B9009440466946FFF76DFF08B9009845783846FFF752FE2846BDE807
:20191000F88308B58DF8001099490246D8206B46FFF7D2FF08BD0EB501900821ADF8001059
:2019300068460221ADF8021002F09DFE002814BF002002980EBDC046FD1400000EB5082000
:20195000ADF800000120ADF80200684602F08BFE88499DF804000870029848600EBDBCB581
:201970000220FFF7D8FF1A25071C13D0D6200024387039467C702046FFF787FF38B9D34808
:2019900000946946FFF721FF08B9009845783846FFF706FE2846BCBDFFF7E1BF98B5042062
:2019B000FFF7B9FF071C12D0DC2000243870012339467C702046BB70FFF767FF20B9D74828
:2019D00000946946FFF701FF3846FFF7E9FD98BD0B4667490246D820FFF76EBF98B510202E
:2019F000FFF799FF0746FFF7A9FF624C217867B1D020387000237B70B970FB703B710220F7
:201A1000BB603946FB60FFF740FFFFF7C7FF04F11001E220FFF7DCFF182002F03AFD6070C6
:201A3000606898BD08B58DF8001051490246D8206B46FFF741FF08BDD848D7490860704742
:201A5000BCB504462420FFF766FF071C27D0FC200025387021461022B81C7D7007F0DCFCF0
:201A700020697861207D3876607D7876A07D04F11703B876196807F11B021160187A107269
:201A90005C68546039462846FFF7FFFE20B9C44800956946FFF799FE3846FFF781FDBCBDBD
:201AB000C04BC149DA208922FFF706BF0B46BE490246DA20FFF700BF0B462C490246D9204B
:201AD000FFF7A4BE51150000B0B504462020FFF722FF071C16D0F6200025387004F113013D
:201AF000B81C7D70FFF795FD207878736078A11C1122B87307F10F0007F08EFC39462846A2
:201B1000FFF7C3FEB0BD98B50320FFF704FF0024071C13D0EF20387039467C702046FFF780
:201B3000B4FE40B920460090D7486946FFF74DFE08B9009884783846FFF732FD204698BD32
:201B500010B504460620FFF7E6FE011C0DD0EE2008700020487022788A706278CA70A2784C
:201B70000A71E2784A71FFF790FE10BDA515000081150000F40C0020F8B5C44C0646206873
:201B9000002843D13020FFF7C6FE071C3ED0EC200025387031461122381D7D7007F03CFCCA
:201BB000707C7875B07CB875F07CF875307D3876707D7876B07D294600B10121B976F07DC9
:201BD000F876307E06F11901387707F11D00FFF720FD96F8240087F8280096F8250087F866
:201BF0002900F08C7885707C002808BF812004D0797E880000EB411080B200F0C5FB2060C6
:201C1000F86218B128463946FFF73FFEF8BD38B504461A20FFF77FFE031C13D0EB200025A6
:201C300018702146981C5D70FFF7FEFC608904F10C01988103F10E00FFF7EBFC1946284684
:201C5000FFF723FE38BD0246107800280CBF00200120517809B140F00200917809B140F0BC
:201C70000400D17809B140F00800117909B140F04000517909B140F08000704798B50446DF
:201C90001E20FFF748FE071C1ED0E720002338702146B81C7B70FFF7BCFCE07A7873207B23
:201CB000B873607B04F10E01F87307F11000FFF7BBFC208B788304F11A00FFF7C4FF3877CD
:201CD00039461846FFF7E1FD98BDC0465D150000D64903465022D920FFF798BD98B50446C1
:201CF0001C20FFF718FE071C17D0E920002338702146B81C7B70FFF78CFC04F10C0107F110
:201D10000E00FFF791FCE08A3883207EB876607E3946F8761846FFF7B8FD98BD8D15000066
:201D30000EB50820ADF800000A20ADF802004FF0FF300190684602F096FC0EBD7FB50646B6
:201D5000082014460D46ADF800000720ADF80200684602F088FC9DF8041031709DF8061012
:201D700029700299216000907FBD0A7A022A027204D00A68026049684160704709880180EB
:201D900070470A6802604A6842600A7A02724A7A4272897A81727047FC0C0020380A0020AD
:201DB00015150000F00500207515000038B50C4644220546002107F009FF04F128012846AE
:201DD000FFF7D3FF04F1320105F10A00FFF7CDFFE06B6861B4F840002883B4F842006883BD
:201DF000B4F84400A88394F84600A87794F84700E87794F9480085F8200094F8490085F8D1
:201E10002100B4F850006884E06C6862A07B85F8280094F8520085F82900606D04F11C0170
:201E3000E86205F13000FFF7ACFF2089A5F840006068E86338BD011C05D0F2200870002057
:201E50004870FFF722BD704708B50B46FFF78DFF5989418199898181997B8173D97BC17346
:201E7000197C002201B101220274597C417459694161197E002201B1012203F1190102764E
:201E90001930FFF77EFF08BD69150000000D0020B0B5044600211C22ADF1200D684607F088
:201EB00095FE60788DF80000A0788DF80100E0788DF8020020791122611D8DF8030001A82A
:201ED00007F0AAFAA07D8DF8150058B39DF8011049B900F059FA069068B1A1699DF8152027
:201EF00007F09AFA1EE0810001EB401188B200F04BFA069030B91A208DF8000000278DF832
:201F100015700FE0A5690746002407E038462946FFF79AFF641C24372435E4B29DF81500E7
:201F3000A042F3DCC74C606818B1FFF763FC0020606020688169684688479DF8150010B1AD
:201F50000698FFF757FC08B0B0BD90B5044600214022ADF1440D684607F038FEA0788DF8EC
:201F70000000E0788DF801009DF8000000BB616811B101A8FFF768FF217A01F007028DF878
:201F90002820E0689DF82870C1F302118DF8301027B19DF828100B9000EB41009DF8307047
:201FB00007B10D90207C8DF8380067690F9719E0616811B101A8FFF747FF677A8DF8297085
:201FD000A37A8DF82A30207A8DF82800E27A8DF82B20217B8DF82C10677B8DF82D70E389B5
:201FF000ADF82E309748006801696846884711B090BD80B50746780824BF01200870B80854
:2020100024BF01204870F80824BF01208870380924BF0120C870F80924BF0120087137F0D6
:202030007F071CBF0120487180BDC046A5150000B0B5844D2F680446ADF1480D002F00F02F
:202050007A812078401E112800F27581DFE810F0590146012D0118011101FC00EA00DC00DB
:20207000BD00AC0088005D005300420073012A001C001200F86B002800F05D816846214633
:20209000FFF794FEF96B54E1386C002800F0538168460021012207F099FD60788DF80000A3
:2020B000396C46E1F86A002800F04581684600210E2207F08BFDA11C6846FFF756FEA57BB1
:2020D000A1890022ADF80A1005B101228DF80C20F96A2FE1B86B002800F02D816846002130
:2020F000022207F073FDA5788DF8015060788DF80000B96B1DE1786B002800F01C8168468D
:202110002146FFF753FE796B13E1386B08B368460021142207F05AFDA5788DF80150A3687A
:202130000193A289ADF80820A17B8DF80A1060788DF80000E57B8DF80B50237C8DF80C304B
:2021500094F911208DF80D2061690491396B684688476068002800F0EE80FFF76CFEEAE007
:20217000B86A002800F0E78068460021242207F02DFD6078A11C8DF800000DF10200FFF768
:20219000F4FD04F10C0103A8FFF7EFFD257EE08A8DF8185004F11901ADF816000DF11900D4
:2021B000FFF7EFFDB96AC4E0786A002800F0C38068460021022207F009FDA5788DF8015046
:2021D00060788DF80000796AB3E0386A002800F0B28068460021122207F0F8FC658860787D
:2021F0002379ADF8025062798DF80000E11D8DF80430A5798DF805200DF107008DF806507D
:20221000FFF7BFFD396A94E0F869002800F0938068460021012207F0D9FC60788DF800003E
:20223000F96986E0B86940B96868002800F08380FFF7E0FA002068607DE02046FFF728FE2A
:2022500079E0C046FC0C00207869002873D068460021132207F0BAFCA01C01686B4619609B
:202270004068586004F10A0102A8FFF78AFD79695FE0386900285ED02046FFF766FE5AE0B5
:20229000F868002857D0684600210E2207F09EFC6078A11C8DF800000DF10200FFF765FD7D
:2022B000A089ADF80C00F96843E0B868002842D068460021142207F089FCA01C01686B46FF
:2022D000196040685860A07A04F10B018DF808000DF10900FFF755FDB9682AE0786850B310
:2022F00068460021102207F071FC607865888DF80000211DADF8025001A8FFF742FD79682B
:2023100017E03868B8B168460021192207F05EFCA01C01686B46196040685860A07A02A9DE
:20233000FFF767FE0DF10E0004F10B01FFF729FD39686846884712B0B0BD0EB5FFF7F0FC17
:2023500008BB0DF1050001A96A46FFF7F7FCD0B966489DF804200178914210D141789DF8F9
:202370000520914208D08068436C43B19DF80500009A0021984702E00098FFF759FE00985F
:2023900008B1FFF70DF90EBD0EB501900821ADF8001068460421ADF8021002F064F900287A
:2023B00014BF002002980EBD2DE9FE4F92460193071C009114BF5FEA0100EB2050D00020CA
:2023D0000446CAF800008146029478783D7845EA00255FEAE5380CBFC5F30626C5F3C326D5
:2023F0000198BF1C20B1B8F1000F2BD00F2E36D00C20FFF7C9FF5FEA000B21D002990C229A
:2024100007F0E4FBDAF8003003B95446C4F800B05C4684F8048066712679002E0CBF05F00C
:20243000FF05C5F30A05E580A760009EE08809EB0001C719891C1FFA81F94E45C5DC0EE020
:202450001A2000E018200290DAF8000038B10468FFF7D0F9201CFAD10020CAF8000002981F
:20247000BDE8FE8F0123FFF79FBF0023FFF79CBF2DE9FC4180460E460820FFF74CFA1A251E
:20249000071C16D0F420387000247C703946A7F8028020467E60FFF7F8F938B914480094AB
:2024B0006946FFF792F908B9009845783846FFF777F82846BDE8FC8108B5ADF80010694632
:2024D000FFF7D6FF08BD10B5044603E020462468FFF790F9002CF9D110BD08B58DF80010E4
:2024F0006946FFF7C5FF08BDFFF7C2BFF40C0020F11400000146B74880F88C1008210A3045
:2025100006F062BB002118B1007A052808BF01210846704710B5041C0DD000210B2207F012
:2025300055FBC24801682160406860600523237203226272A27210BDBE48BD49006808606C
:202550007047F0B50E46144607461D46ADF1240D00212022684607F039FBADF80070ADF8EC
:202570000260216801A80160616800224160B2490695887B8DF80C20491D8DF80D000B6815
:202590000DF10E0003604B684360097A01728DF81C2068468DF81D20FFF7D9F809B0F0BD12
:2025B00070B506468B4C31786078ADF1200D00294ED1B4F8700004F180057388ADF80000F9
:2025D0002946ADF81030E220FFF74FF929680DF1120001606B68436071885320FFF74BF939
:2025F000B4F8700004F176052946ADF80E004A20FFF73BF9296801A8016069684160002557
:202610008DF80D50B4F87400ADF8020094F872308DF80C30284602F03BFA52202946FFF7A6
:2026300070F9E06828B102681AB10DF10E0069469047032000F08AF994F88A00032818BF8B
:2026500004280FD104F10A00102106F0BDFA09E010B10020FFF74EFFBB49B1F84E00401C1D
:20267000A1F84E00D4F8C41009B13046884708B070BD00F00F0000210F2808BF0121084651
:20269000704738B50546287800283BD1514CA078012837D0281D02F033FAB0F1FF3F31D13D
:2026B000288AC1132ED0FFF7E4FF01282AD1B4F870004FF6FF7181420ED0E989884221D1E9
:2026D000A87C84F87200AB88A4F87430288A00F00F010F2914D00DE0E889A4F87000A87C09
:2026F00084F87200AB88A4F87430288A00F00F010F2905D084F88810C0F3031084F88900CB
:202710000120A070A548016809B12846884738BD38B50546A14C287878B96878012807D060
:20273000022803D003281BD1402102E002200EE020219B4806F048FA12E06978032908BF00
:20275000EA2807D0A4F1CF00007848B10020FFF7D1FE05E00320FFF7CDFE052000F0F6F8FA
:202770000834216809B12846884738BD38B50446207840B9002002F0C8F888490020CE3906
:20279000087000F0E3F8134DE86820B1826812B12178A01C9047D5F8CC1009B120468847F4
:2027B00038BD694910B50446B1F86600401CA1F86600002002F0A9F80320FFF79BFE05205F
:2027D00000F0C4F875481030016809B12046884710BDC046E005002070B50646B94D3078F1
:2027F000E92803D008B90020287018E0CB4C94F88E00401C84F88E00C0B203280FD1002040
:2028100002F083F852200121FFF77BF80320FFF771FE052000F09AF8002084F88E0062354E
:20283000296809B13046884770BDC046590C000070060020F0090020540C000070B50646E0
:20285000B64D3078ADF1200DEB2836D0002834D0E92806D0E1286FD14FF4FA7002F055F891
:202870006AE005F18E010878401C087095F88A002C46032818BF042803D14FF4FA7002F0FB
:2028900044F894F88E00032809D094F88A00022852D104F10A00102106F096F94CE000206A
:2028B00002F033F852200121FFF72BF80320FFF721FE052000F04AF83BE02C4694F88A000C
:2028D000022836D104F180010A6805A8026049684160B4F87E30B4F87000ADF8123004F11C
:2028F0007601ADF810000A6801AB1A604968596000218DF80D1094F872008DF80C00B4F89C
:202910007020ADF80020B4F87430ADF802305220FEF7F7FFE06820B1026812B104A869462D
:202930009047042000F012F804F10A00102106F04BF9002084F88E00E435296809B1304624
:20295000884708B070BDC046C8090020734908B591F88A20824208D081F88B2081F88A004D
:20297000C96811B1C96801B1884708BD38B50546002001F0CAFF694C0020A070FFF7E6FF0B
:20299000E06820B1426812B1297A28469047D4F8C81009B12846884738BDC046B00600204D
:2029B000EA05002070B55D4D4FF6FF70A5F87000002485F87240082285F88A40214685F8C0
:2029D0008B40ADF1180D85F88E4041F27070C5F8900005F1760007F0F9F8A5F87440A5F86C
:2029F0007E400F2085F8880085F8890085F88C40012185F88D40E820FFF714F8522001217C
:202A1000FEF77FFFDC4E482205F1C00006F17004214606F001FDCF487067343CEC60CE4863
:202A3000C6F88000CD48C6F88800CD48F067CD48C6F8AC00CC48C6F89000CC48C6F8A0002E
:202A5000CB48C6F89400CB48B06702F0A7F802F0B0F806B070BD70B5044600212022ADF159
:202A7000200D684607F0B2F8C44910226846993106F0D2FC002509200494C14E8DF8145071
:202A900001248DF81600711D8DF815400A680DF1170002604A684260097A01726846FEF728
:202AB000CFFFFEF7FDFF71202946FEF7FFFFD5203146FEF7FBFF5D202146FEF722FF08B047
:202AD00070BDC0466E06002070B504460E460220FFF73CFF114D2088A5F87000307B211D0D
:202AF00085F872000A6805F180000260496841606088A5F87E00301D016805F17604216091
:202B1000406860607088B5F87010A5F874005020FEF7B1FEB5F87E10532001E0E00500205F
:202B3000FEF7A9FE4A202146FEF752FF95F87210E120FEF777FFB5F874104B20FEF79BFE2D
:202B5000102105F10A0006F03FF870BD08B50120FFF7FCFEB74801F09BFFB548007810B14C
:202B70000020FFF7C7FC08BDB34970B505461122ADF1380D0DF11E0006F04EFC0DF10206C3
:202B900000211122304607F021F8002411220DF11E0130468DF8004006F03EFC08220DF144
:202BB0001300214607F012F8D849CA6B012D04D04A6C0320521C4A6402E0521CCA6301209F
:202BD0008DF801008DF81B406846FEF77DFF0EB070BD10B5044600212822ADF1280D68467A
:202BF00006F0F4FFD5491122684606F015FCFF228DF8182005208DF812008DF81140002145
:202C10008DF815108DF8161009228DF8132001208DF817008DF814000B220DF1190006F0DC
:202C3000D5FF6846FEF7A8FF0AB010BD1CB5C34C183C94F88C0000283AD0401E36D0401E9F
:202C500002D0401E30D01CBD94F888104720FEF7E9FE94F889105420FEF7E4FEB4F8741054
:202C70004B20FEF708FEB4F870105020FEF703FE68460021042206F0A9FF09238DF80130D7
:202C900001228DF802208DF8032094F872008DF800006846FEF754FFA07860B104F10A0011
:202CB000202105F091FF1CBD032002E0022000E00120FFF78EFF1CBD00B500211822ADF133
:202CD0001C0D684606F082FF9C481838B0F87010ADF80A10B0F87400ADF8000002218DF812
:202CF00008106846FEF793FF07B000BD00B500212022ADF1240D684606F068FF8349B1F89C
:202D10007000ADF8180091F872008DF80B0002208DF81600B1F87400ADF80E0009208DF8B0
:202D30000C0001218DF80D108DF81F1000208DF808008DF81B008DF81A008DF81D006846C3
:202D5000FEF79CFF8D49B1F84C00401CA1F84C0009B000BDB125000093260000212700007A
:202D70007D270000912F0000B3270000E92700004D2800007D290000C8090020F0050020D4
:202D9000540C0000B0B50025ADF1200D6846ADF80050FEF79DFF5D4CBDF80000B4F87020A0
:202DB00082423CD194F88B0003282CD0042828D0E76802282AD104F180010B6806A8036062
:202DD00049684160B4F87E00ADF8142004F17601ADF816000B6802A80360496841608DF810
:202DF0001150ADF8042094F87200B4F874308DF81000ADF8063027B13A6812B105A801A947
:202E10009047042000E00320FFF7A0FDD4F8900001F07BFD52202946FEF773FD05E00320FE
:202E3000FFF768FB0520FFF791FD08B0B0BDC046E1050020E0930400630C000070B5334CC5
:202E50006089410811D3E07810B90120FFF78CFE0020E07001214EF6602002F025F804F130
:202E70000A00012105F0A5FE6089810812D32079002604F10A0510B90320FFF775FE267178
:202E90004EF66020032102F00FF82846022105F090FE6089010907D3FFF7C8FE04F10A00A5
:202EB000082105F086FE6089410912D394F88A0004F10A05032818BF042803D1D4F89000D0
:202ED00001F023FDFFF7F8FE2846102105F071FE6089810907D3FFF709FF04F10A00202157
:202EF00005F067FE6089C10907D3FFF74BFF04F10A00402105F05DFE6089400A1DD394F83C
:202F10008C0004F10A05042809D001E0E005002084F88D00042084F88C00002004E094F861
:202F30008D00FFF7E7FA01206070B54801F0B0FD28464FF4807105F03CFE70BDF805002076
:202F500000B500211A22ADF11C0D684606F03EFE0220AC4A8DF81400B2F874108DF818002C
:202F70000020ADF80C10B2F870108DF819006846ADF81610FEF7B2FE07B000BDC809002015
:202F90002DE9F04F8146002000212022ADF1540D009003A806F01AFED9F82400B9F8221062
:202FB0006A46FFF75FFA0024A046002875D10098002872D006467079042868D1002002903C
:202FD000F188B06802AAFFF750FA00285FD1029800285CD007467879BD68001F3AD0401E34
:202FF00004D0401E2FD0401E10D04AE0F888202847DC03A80021202206F0E8FDFA8803A827
:20301000294606F009FA44F002043AE00BA86B682968436005F1080201600DAB11685068E0
:20303000196002F10805586029686B680FAA083553602846116011AB026841681A6044F0E6
:20305000080459601DE029880DF1060044F00404018016E0298801A80180BDF8041042F25E
:203070000E00FFF729FA15F8028F44F0010408F00100C8F3800BC8F3401A1390C8F340034D
:2030900014933F68002FA6D10298FFF71CFA3668002E90D10098FFF716FA99F82870594DEC
:2030B000022F1AD0A008C0F0A78005F1500103A8202208F0A7FA002840F09E80012F284685
:2030D00004D1C178491CC17099F82870032F04D10179491C017199F82870002F52D1286CAC
:2030F000401C2864600822D3B8F1000F06D14A46116805F17600016057684760414642F2F5
:203110000F00FFF7EAF9139942F20A00FFF7E5F9149942F21000FFF7E0F942F21100594655
:20313000FFF7DBF942F212005146FFF7D6F94FF400504946FFF7D8F9B9F81A105020FEF7EA
:203150009AFBB9F81A00B9F80010D9F82C304A46FFF7F7F9B9F81A004946A5F870000A68C2
:2031700005F176073A6049687960A87801283ED00020012101F098FE4EF66020032101F0AF
:2031900093FE34E0022F32D1E00805D3BDF8061042F21400FFF790F9200913D342F215009C
:2031B0000BA9FFF7A1F942F216000DA9FFF79CF942F217000FA9FFF797F942F2180011A9A1
:2031D000FFF792F9A86C4946401CA8644FF40050FFF78AF90020032101F066FEA878012865
:2031F00005D00120A8700020687101F0D1FED5F8FC1009B14846884715B0BDE8F08FC04619
:20321000E0930400E005002001EB003103E011F8010B03F8010B1046421E002892B2F6D11D
:2032300070473EB514460D4605226B46FFF7ECFF65819DF803109DF804009DF804309DF8E9
:20325000005001F00F01801003F0030340EA81109DF80120A0819DF80200637205F0C005CC
:203270002B4381069DF803006372001140EA91509DF80210A080891141EA82019DF80020FC
:20329000E18002F03F0241EA0231227240EA013020603EBD38B505460C4600200090042C58
:2032B0000BD3241F284604226B46A4B22146FFF7ABFF0098B0F1FF3FF1D001210A4600F0A1
:2032D000FF03FF2B18BF111C000A521C0090042AF5DD091988B238BDF0B516460C460746B5
:2032F0000025ADF1140D0AE0241AA4B205E0641E3846A1B2FFF7CEFF04466D1CADB2092CFA
:203310001DD3641F38466A46A4B22146FFF789FF0098B04207D19DF8091031F07F0004D03D
:20333000C80902D20CE09DF809108808DFD2BDF80C008442D8DCBB490520487108716C42B9
:2033500020B205B0F0BD03B42DE9F04792461E4608AFBAF5806FA8BF052042DA97F80080DD
:20337000B8F1400FA8BF09203BDAB7F802C0BCF5806FA8BF072034DABF88B7F5806FA8BFAA
:2033900008202EDAA74CA41CA078032808BF032027D04FF0000908F03F01CCF30900C7F314
:2033B000090584F8039040EA013045EA0035A18820782A46FFF790FF014600290BDCA6F876
:2033D0000CA0A6F80A903560B780A6F806C086F808800A2005E0207889B23246FFF721FF53
:2033F000E078BDE8F04702B0704703B4B0B58D4C083420684FF0FF3104AFADF1180D08F08A
:2034100023FD396804A80160B988818004A803C800226B46FFF797FF00280CBFBDF80C50B2
:203430000025206808F00CFD284606B0BDE8B04002B070470003085C704770B5054679485D
:20345000801C047800230E4601E00123521C3046411E8EB258B12946481C85B22046FFF7D6
:20347000E9FF11784840F1D00842EED00223184670BD01EB0031491C1046421E002892B226
:2034900008BF012004D011F8010DFF28F4D00020704703B42DE9F041624DA8684FF0FF315B
:2034B00006AF1C469046ADF1180D08F0CDFC396804A80160B988818004A803C822466B460B
:2034D000FFF741FFAC46061C14D1BDF80C30BDF80A20D01A404481B29CF802006518AA423D
:2034F00004DAA342B4BF0526062603E0BB682246FFF78AFEDCF8080008F0A2FC304606B0A5
:20351000BDE8F04102B070470146BC4808B500780346FFF78FFF00F07F000246184600F00A
:20353000A3F908BD03B4B0B504AF3878ADF1180D002808BF092026D03A4CA0684FF0FF31CD
:2035500008F082FC04A8BD883968858004AB016093E8030000226B46FFF7F5FE2546071C76
:203570000DD1BDF80A00FFF7CFFFA878E988009AFFF7B2FE6C790028D4BF271C0227A868ED
:2035900008F05EFC384606B0BDE8B04002B0704703B4F0B5B84C20684FF0FF3105AF1D4629
:2035B0001646ADF11C0D08F04FFC396804A80160B988818004A803C8B2B26B46FFF7C3FE62
:2035D00007460A2F02D007B9012704E06846294600F01EFA0746206808F032FC384607B062
:2035F000BDE8F04002B07047D0B50E4C0646A0684FF0FF3108F028FC277977B9E088C0F5D2
:20361000805000B2864203DC002E18BF042704D1A078002100F0C8FA6779A06808F010FC95
:203630003846D0BD0C0D002070B5744C05466078FE28AEBF0126401CC6B203219622284656
:2036500000F012F902210122284600F00DF901212846324600F008F90021A522284600F076
:2036700003F9E07808B92570667070BD2DE9F041C64C2079ADF1400D032818BF607140F0AD
:203690009E8000256571A84601A824220823294684F8048008F0D0FB032001A98DF81C0059
:2036B0002A46012008F0C4FB1D27A0602E46A5700AAB384641460422FFF7A6FD9DF828109F
:2036D000E378A52907D19DF82900FE2803DC9DF82B20962A09D0242902D0B72918D11FE0B6
:2036F0003E46EBB99DF8290019E0B5B1984203DAFE2B18BF01280BD1984203DD012B08BF0C
:20371000FE2805D0284600F017FA9DF8290004E0384600F011FAA57802E03D46A570E0702D
:203730007F1C1E2FC4DD8DB926B91D20FFF77CFF042015E0A67030464FF48051FFF7AAFDC7
:20375000E0804146304600F02FFA0AE01EB1304600F0F2F9A57828464FF48051FFF79AFDAD
:20377000E0800AAFBB4D00970EA82968AE8801600EAB868093E8030042460C23FFF789FE32
:20379000E6880A2809D1384641460C2206F01EFA40F6EF70801BADF82E00BDF82C000EAFBD
:2037B000401CADF82C002968AE8839600EABBE8093E803000C220AAB00F04EF9607910B044
:2037D000BDE8F081C548C6494162C6498162C649C162C6490163D1494163D1498163D14997
:2037F000C163D149016470470146D14808B5303000684268CD48904708BDC0460E0D0020DE
:203810002DE9F843CB4D9046024668781F460C4640BB08F009F801281CBF0B20687021D18D
:2038300004EB023400F044FB8146684600F060F942463846214607F095FF0098FFF7D4FF0D
:20385000484600F042FB661E4046411E1FFA81F840B116F8010F17F8011B8842F4D00220B8
:2038700068702870BDE8F88308B58DF800206B460122FFF7C5FF08BD140D00202DE9F0416B
:2038900015468046287840F0C000287028790C4604262F1D40F00200287117F80129311918
:2038B000404689B2FFF7E0FF761EF6D52A79241D4046A1B202F0FD022A71FFF7D5FFBDE84B
:2038D000F0812DE9FE431F1C15460C4680461AD0DFF8CC92082FACBF08263E1C99F8000088
:2038F00021466B463246FFF78FFC404629466B463246FFF785FFBF1BBFB270193319002FC0
:2039100085B29CB2E6D1BDE8FE832DE9F04F1F4D044609AF1E46ADF1140D7868EB8802906A
:20393000B7F80090A08988469246411D89B20391C918B1F5805F66DCE288217A971001F0F7
:203950003F018DF80010A1888DF801701B1802F00302C1F3051747EA821709078DF8027098
:20397000C0F3831200F03F0742EA11628DF803204046B9008DF804106A4699B28B46FFF7D8
:203990007DFF029838B3EF8876B101E00C0D00203A46404651463346FFF793FFF01906EBC6
:2039B0000A0387B21FFA83FA029B40464A463946FFF726FFA689E98809EB070087B2F01BEF
:2039D00009188AB23AB109EB0A00134681B23A464046FFF776FF9DF800204046594622F0A8
:2039F00040028DF80020FFF73FFFEA880BF10401404689B2FFF71EFDFF2806D00398801827
:203A100080B2E88001E00520687105B0BDE8F08FFEB50546624CA889A2880F46411D8EB24A
:203A30002178B218B2F5805F0BDD0846002100F0BBF8864203DDE07800B90520FEBDA889C9
:203A5000217800900022284601971346FFF75DFFE078FEBD540D000003B42DE9F041514D4A
:203A7000A8684FF0FF3106AF98461446ADF1180D08F0EAF9396804A80160B988818004A890
:203A900003C822466B46FFF75EFC0026071C0FD1BDF80C0084421CBFADF80C40BDF80A6047
:203AB00008D1224668463146434600F075F907460A2F09D168464146FFF7AAFF07461EB159
:203AD0003046FFF721FD6F79A86808F0B9F9384606B0BDE8F04102B07047C0460802002007
:203AF0007D360000F9350000A13500003535000010B50E4C0246204608F054F800F0030091
:203B10001060A44800684268002120469047204608F048F80028FAD110BDC046A33400008E
:203B3000693A0000413E0000FB33000000400340A8010010100D00207CB500210546FFF719
:203B500079FCB72807D140F6FF7128460A46D21EFFF78FFC18BB07F067FE01281BD100F020
:203B7000A7F906466846FFF7C3FF280307F008FE04460098FFF738FE304600F0A6F92CB9C3
:203B900028460021B722FFF76FFE7CBD05490220487108717CBD02480B21C01C01707CBD3A
:203BB0000E0D00200C0D00202DE9F04F804608460026ADF1440DBB49089000284E701ABFA8
:203BD000006800684FF0FF30B8F11D0F0C900CBF1E201D200990FFF7AFFF24224046314660
:203BF000FFF742FE15250D9605210E96AD480F9640880A9104460B94A1427EDAA948477807
:203C1000002F6AD1641F404602AAA4B22146FFF708FBBDF814709DF81130781D1FFA80FA88
:203C3000D80951D233F07F035AD0029A0C98904256D009982946FFF74FFB002850DC8EB97E
:203C5000611E40463A4689B2FFF713FC50B90299E01B80B2B1F5805F0B9041D10F904FF0AE
:203C7000040906E0A9460AEB0500B9F1000F85B236D007EB09001FFA80FB2146052206AB94
:203C90004046FFF7C1FA099806AA5946FFF7F6FD26B90E98401C80B20E9006E0E01B81B23F
:203CB00009984A465346FFF70CFE0D989DF818205946401C22F0400280B20D9009988DF874
:203CD0001820FFF7D1FD0BE098080CD2544507DA7449052048700F4638704FF0FF3056E0BA
:203CF000E41BA4B204E040462146FFF7D3FA04460A98A04282DB6B4840880B99761C0446A5
:203D1000022E0A91FFF678AF0C98B0F1FF3F14D064480899458008890090C86801908A883F
:203D3000CB8808680999FFF7F0FD5E480D9E074645887C80701C80B20D900F98C0B101460A
:203D50000C2202AB4046FFF75FFA0D9F02980E9EC5F5805404210C22ADF80E4002ABADF88B
:203D70001070401C02900998ADF81260FFF748FD0998FFF759FC4B4840780028ADD1494864
:203D900045804046FFF7D8FEC5F5805738B211B0BDE8F08FD80100102DE9F04305460C46CD
:203DB0006889A989944698468146ADF11C0DA9EB010296B2401A1A462018614680B2FFF7EA
:203DD0003CFB002808BF00202FD0374F3978012822D0A889BA88401D80B28018B0F5805F1E
:203DF0000DDD0295ADF80C60ADF80E40ADF810C00846CDF8148002A9FFF7D6FE14E0CDF8E4
:203E100000C0284632462346CDF80480FFF77DFD4846FFF779FB07E0A4190846A2B2434603
:203E300011466246FFF7ECFCF87807B0BDE8F08303B42DE9F041DFF87480D8F800004FF07E
:203E5000FF3106AF1C461546ADF1180D07F0FCFF396804A80160B988818004A803C822462C
:203E70006B46FFF770FA061C12D1BDF80A00BDF80C10411A691889B261188842B8BF06268F
:203E900006DBBB68294622466846FFF785FF0646D8F8000007F0D4FF304606B0BDE8F04127
:203EB00002B07047100D00200E0D0020140D002010B507F0B9FF80B260F30F0407F0B0FF1E
:203ED00080B260F31F44204610BD08B50090BDF8020007F0A1FFBDF8000007F099FF08BD13
:203EF000F8B5001D84B214F0030002D0241A241DA4B2FFF7DDFF0146C948102C476801608E
:203F1000C8BF8768388800221646C30BDD0319D126B984420ADD3A46012617E01388C318A5
:203F30009BB29C42138011DC174618469FB1001B80B20428B4BF3C88385344F400443C8048
:203F50003F1D08E080F40040002680B2C71938880028DAD100270846FFF7B7FF3846F8BD3A
:203F7000F8B5C64AAE4CC64B121D0C3422F003019C4621605E1A2068256860606768A6605F
:203F9000002001E025F8020BAB42FBD84FF6FC75B3102A4001EB830323F8040CACEB02020B
:203FB000E82315403B80EC3DA1F8E850E83144F8081CFFF795FF44F8040C606844F8080C75
:203FD000F8BD974808211038A0F84010C5498164FFF7C6BF924A0021022002F10C0343F81A
:203FF0000C1F401E9960FAD130320620401E22F80C1BFBD1FFF7E5BF2DE9F8438046FFF7CA
:2040100057FFC44C02250026814654F80C7F5FB93046C4F800800146A6600A4607F008FFDA
:20403000606018B903F001FE474501D1264601E06D1EEAD14846FFF748FF3046BDE8F8839B
:204050002DE9F043ADF13C0D07F0EEFEC04EC14C00258146684600213C22082307F0D4FE15
:2040700056F8042F6068A76806902368089769460592C6480493002207F0C2FE071C10D051
:20409000FFF716FF80463846FFF7B6FF48B14046FFF71BFF241D6D1CDCD0484607F0B8FED6
:2040B00001E003F0C2FD0FB0BDE8F08310B5044600212C220823ADF1300D684607F0C4FD9C
:2040D000E068A1680890606800236A4607F094FE002818BF002001D103F0A7FD0CB010BDB2
:2040F00010B50446FFF7E4FE4D4934F8042C6FF3DF3224F8042C4A680860241F944238BFEE
:204110004C60FFF7E2FE10BDD0B504463C20FFF7E7FE071C14D000213C22082307F074FE20
:20413000207AB86160893862E068386160683946002207F065FE06463846FFF7D1FF16B936
:204150006FF00300D0BD0020D0BDB0B5044607F075FD30F0010008BF6FF004041BD007F06A
:2041700047FE0546FFF7A4FEB44A062132F80C7F6FB1A388BB4208D15268126800219542E0
:2041900008BF0121A160002403E0491EEED14FF0FF34FFF79AFE2046B0BD08B5406820B1EF
:2041B000006807F095FA002008BD6FF0020008BDB0B5054607F01CFE044607F03FFD30F098
:2041D000010008BF6FF0040414D0FFF771FE9B4A002132F80C7F4FB153681B689C4204BFBD
:2041F0002971002404D0491C0629F2D36FF00404FFF76BFE2046B0BD38B50546FFF758FEA7
:20421000444C0222014654F80C0F18B1A84202D0521EF8D100240846FFF757FE204638BD56
:20423000900A0020C24A10B512680C464FF47A710023A1FB000102F0ABFA002908BFB0F101
:20425000004F2EBF6FF002002060002010BD98B50446FFF72DFE2168002908BF002709D013
:204270000F4657F80C2C2260002347F80C3CFF2401F8024CFFF729FE384698BD131C00207D
:204290000039002010B5044607F0B2FDFFF7B4FF002808BF6FF004000DD00830FFF7D7FF24
:2042B000A06038B110F8081C217110F8070CA071002010BD022010BD062880B50ADABC4BF1
:2042D000820002EBC0029F5A98181FB14FF6F872BA4202D14FF0FF3080BD008808800020CB
:2042F00080BDC0467948000038B50C460546FFF7DFFD002144F80C1C296811B92C6006E0FC
:20431000114651F80C2C002AFAD141F80C4CFFF7DCFD38BD9C0A002098B50F460446FFF7C3
:20433000C7FD57B13A4600E00A4652F80C1C0029FAD1216842F80C1C2760FFF7C6FD98BD0B
:204350001420FFF7CDBD01460879891DFFF7B4BF880A0020380A000010B504467448026899
:204370000023D90750080143D007801A4FF47A72994102F00DFA002908BFB0F1004F28BF54
:204390006FF000406060002010BDC04663480000674909684160002070471CB50446606894
:2043B0006946FFF73FFF20B900986060204600F010FA1CBD10B5044607F016FD60600020A7
:2043D00010BD10B5044600212C220823ADF1300D684607F039FCE0200890A1686068002316
:2043F0006A4607F009FD002818BF002001D103F01CFC0CB010BD08B507F016FD07F010FDB0
:20441000002008BD08B507F0EBFC07F0E5FC002008BD08B5406807F0DBFC002008BD08B57A
:20443000406807F0D1FC002008BD03F0FEBB08B5406807F005FD002008BDC046B40A002048
:20445000DCB5044607F0D4FCFFF7D6FE064607F0F5FB30F0010014BF002E6FF0040017D041
:20447000606858B1B0F1FF3F05D06946FFF7DAFE30B107460BE04FF0FF3000E00020009013
:204490007068009907F0E0FC002700B901273846DCBD10B50446FFF70BFD8C4B002201465C
:2044B00033F80C0F30B1A04208BFD4B203D0521C062AF5D3FF240846FFF707FD204610BDBF
:2044D00070B50646B079F4680628A4F108042BDA3079062828DAFFF7EBFCB279344D91000F
:2044F00001EBC20169184968E1B1FFF7EEFC30792070B0796070307AA070B179880000EBD0
:20451000C1002818F16840680830FFF7EDFEB179880000EBC1002D186868406807F090FCD2
:20453000002070BDFFF7D1FC6FF0020070BDC046640D000010B50446E088FFF7AAFFFF2819
:2045500008BF4FF0FF3003D0A0712046FFF7B8FF10BD08B54068FFF7C3FD002008BD10B58D
:204570000446A088FFF7BCFC0028A06014BF00206FF0030010BD08B540680C38FFF7B0FD75
:20459000002008BD10B5044660680C3080B2FFF7A7FC50B1A18800230181FF22036000F104
:2045B0000C0182721846A16010BD6FF0030010BDC00A0020F8B5044607F01AFCFFF71CFD92
:2045D000071C16D0FFF774FC4049002231F80C6F66B94FF6F8730B804F6000258D6022715F
:2045F0007968A160FFF771FC2846F8BD521C062AECD303F01AFBF8BDD0B5044607F0F8FB70
:20461000FFF7FAFC071C08BF6FF002041CD0FFF74FFCA3882D49002231F80C6F56B90B8021
:204630004F60A3688B602273796821610024FFF74CFC09E09E4208BF6FF00204F7D0521C41
:20465000062AE9D303F0F1FA2046D0BD08B5FFF720FFFF2808BF002004D08A4B810001EB97
:20467000C001581808BD10B504462088FFF7EEFF38B1816811B12046884710BD6FF00100A4
:2046900010BD4FF0FF3010BD0EB501900821ADF8001068460321ADF80210FFF7E4FF0EBDA3
:2046B00038B50546FFF7EEFD041C0DD128796946FFF702FE28B1A868FFF7E6FF6FF0050065
:2046D00038BDBDF80000A880204638BDB40A00202DE9F0430646ADF11C0D07F089FBFFF7F2
:2046F0008BFD4FF000090546CDF8009007F0A6FA30F0010002D00098A84202D16FF00400F8
:2047100059E070684C4658B1B0F1FF3F05D001A9FFF788FD30B107464CE04FF0FF3000E05C
:204730002046019007F060FB0199012701EB000800E001936868019907F086FB00282ED0EE
:2047500003A8FFF79FFDD8B99DF8100002A9FFF7B3FD88B9B368BDF808009DF81210059A16
:20477000984748B19DF81270B773BDF80800B081059B33614F4612E005996846FFF7B4FD74
:204790000198641CB0F1FF3FD4D00028D2D007F02BFBB8EB000302D001989842C9D2009967
:2047B00005F10800FFF7B8FD24B1686807F048FB641EFAD1384607B0BDE8F08308B50820E2
:2047D000ADF800000C20ADF802006846FFF74BFF08BDB0B50446A768ADF1280D27BB0C20FF
:2047F000FFF77EFB071C16D0684600212422082307F0E6FA002306976A466168ADF81030FC
:204810002148059307F0D8FA386038B9FFF7D6FF3846FFF765FC6FF0030018E0E06878601B
:204830002069B860A7600AE0FFF742FB0546386806F04EFF2069B8602846FFF746FB38688F
:20485000616807F0B5FA386807F0AEFA00200AB0B0BD02460D4808B5904708BD08B5014659
:2048700088684968884708BD08B542882A2A28BF6FF0010004D205490C3151F82210884726
:2048900008BDC046C00A00206D480000440A0000994808B54FF4807104F096F997480068B4
:2048B00007F0CEFA08BD944808B5102104F08CF99248006807F0C4FA08BD8F4808B50221AE
:2048D00004F082F98D48006807F0BAFA08BD8A4808B5012104F078F98848006807F0B0FABD
:2048F00008BDB94808B5022104F06EF98348006807F0A6FA08BD814908394870C88840F0D5
:204910000100C880886807F09BBA38B5AF4D0446284605F099FC012802D1284605F09CFCE0
:2049300044B1284698388069214605F097FC284605F088FC38BD704738B5A54D0446284632
:2049500005F082FC012802D1284605F085FC44B128462C38C068214605F080FC284605F0CA
:2049700071FC38BD10B59A4C293C2078002807BF012100200021081C217002F031FC207860
:2049900010BD90B5B94CADF1140D00902168B1B14F69A7B161681931814210D806208DF83D
:2049B00008000422ADF80A200023ADF80C3002AB93E803006B46B84708B90098606005B03D
:2049D00090BD70477047A949D0B50F68ADF1180DCFB17E69BEB1B0B106218DF81010022630
:2049F000ADF812600024ADF814404388ADF8003042680192816802917C6904AE96E8030002
:204A10000C226B46A04706B0D0BDF0B50E46011CADF12C0D26D0BE4C676A1EB3CFB178698D
:204A3000B8B1062001258DF820000023ADF822500C22ADF82430684604F0EEFC03A83146FD
:204A50000E2204F0E9FC7D6908A803C81A226B46A847707B012500B9A5702946002002F0A0
:204A7000BFFBE5700BB0F0BD3EB5A94C606A70B1C26862B106208DF800000125ADF80250D7
:204A90000025ADF804509DE803009047A5703EBD38B50446C248054605F0D6FB012802D12B
:204AB000284605F0D9FB3CB19948C069214605F0D5FB284605F0C6FB38BDBFB56B48002527
:204AD0000768ADF8045097B106208DF808000223ADF80A30ADF80C5001AC00943C6902AACC
:204AF00092E803002A46A04708B1ADF80450BDF804000090BFBDC046EA050020FC07002023
:204B10002DE9F043DFF864910746D9F80000ADF1240D00283DD0002F3BD0387A002838D032
:204B3000FFF7CBFF5FEA000833D00620002503248DF808002E46ADF80A40B5F5FA7F28DACA
:204B5000D9F80000ADF80C5004AB02AA0469009392E803000A230022A047B0B9387A9DF8B5
:204B70001810814210D1022804D1BDF810103A88914207D0032807D104A93846082206F0CB
:204B900041FD08B9284606E0761CB04505F10105D3DC4FF0FF3009B0BDE8F08310B55C4CD4
:204BB000BF4947F2305204F1980005F05BFBA06110BD10B5564CBB494EF6602204F1BC009A
:204BD00005F050FBE06110BDCA0900208C08002020080020FEB5FFF747FF244D2868002870
:204BF00042D0C268002A3FD006268DF800600220ADF802000027ADF804709DE803009047B7
:204C10003C468DF800600320ADF802002868C268ADF804409DE803009047641CB4F5FA7FAF
:204C3000F4DB8DF8006004202C68ADF80200E268ADF804709DE8030090478DF80060052085
:204C50002C68ADF80200E268ADF804709DE8030090478DF800602868ADF80260C268ADF8FC
:204C700004709DE803009047FEBDC046180800202DE99041264CB949A060ADF1180D61626F
:204C900004F0FFFA102801D1FFF7A4FF02F0D9FA606A002849D00769DFF8C4826FB1009463
:204CB000414604A80A688988026004AB818093E8030000220123B847606A002835D0C26838
:204CD00052B1414604A80B688988036004AF818097E803009047606A38B307692FB306206D
:204CF0008DF808000022ADF80420ADF80A00ADF80C2001AB009302AB93E803000223B8471E
:204D1000BDF80400676AA0807C6974B102E0C046F4070020BDF8040002AF401CADF804005D
:204D300097E80300022201ABA04706B0BDE890812DE9F043071CADF1140D2DD0DFF890929D
:204D5000D9F8000030B3066926B34FF006088DF808800425ADF80A500024ADF80C4002A806
:204D7000009703C822462B46B047002804BF3868193010D08DF808800194ADF80A50D9F8CB
:204D90000000ADF80C40446902AE96E803002A4601ABA0470020386005B0BDE8F083C046A6
:204DB000B008002010B58C4C8A49642204F12C0005F058FAE06010BD2DE9F0410646844841
:204DD00007688846ADF1300DBFB13869A8B1A6B1B8F1000F11D006208DF828000125ADF8B3
:204DF0002A500022ADF82C2002AC00943C690AAB93E803001A23A04708B100200AE002A96A
:204E100030460C2204F008FB05A940460E2204F003FB28460CB0BDE8F0811FB56C49096857
:204E300091B10C6984B178B106218DF808100223ADF80A300022ADF80C2002AB009093E8DA
:204E500003000C23A04708B1002000E0012000901FBD08B506F0B8FA00B208BD02F01DBA3E
:204E70000EB501900821ADF8001068460421ADF80210FFF7F8FB002814BF002002980EBDFD
:204E90000EB501900821ADF8001068460521ADF80210FFF7E8FB0EBD08B1FFF7F1BF70478B
:204EB000B7480000A1480000F8B54C4D0129044611D005F17400064605F0C6F9012802D1F9
:204ED000304605F0C9F92CB3FCF71DFE0746FCF71AFE6A6910E005F15000064605F0B4F959
:204EF000012802D1304605F0B7F99CB1FCF70BFE0746FCF708FE2A6900EB0720611090FB5B
:204F1000F1F34B43C01A0918104605F0A7F9304605F098F9F8BD10B5304CE088400812D3A2
:204F30006078000909D3A078012802D1FEF708F803E02B48012103F047FE002060700121D9
:204F5000A01D03F036FE10BD264808B5202103F03BFE2548006806F073FF08BD2C020020A8
:204F70005A0D00001FB58DF800001948006868B144695CB11D4902A80A688988026002AB23
:204F9000818093E8030001226B46A04700901FBD174838B5054605F057F9012802D1284615
:204FB00005F05AF9FCF7AFFD0446FCF7ACFD42F2107100EB042005F0A1FA0848006A01F510
:204FD0007A6105F04BF9284605F03CF938BDC04618080020F3480000F4070020F407002069
:204FF000CA090020EA050020FC0700205A0D0000D4080020704708B50020FFF79DFCFFF700
:2050100033FD08BDBD4B024618781F28B4BF411C0021052A197040F0800009D0042A04D030
:20503000022A08BF40F06000704740F02000704740F0400070472DE990410446DFF82C8341
:205050002078B8F86010E12814D0B8F86210E9280BD0B8F8641018B92069FFF792FC0DE09E
:20507000481C80B2A8F8640008E0481C80B2A8F8620003E0481C80B2A8F86000607830F095
:205090007F071ED000F06001402906D1277827B9B8F85210491CA8F8521000F06001202969
:2050B00006D1207820B9B8F85800401CA8F85800602906D1207820B9B8F85E00401CA8F861
:2050D0005E00BDE890812DE9F0430C46914680461E46ADF13C0D00213822684604F076FD99
:2050F00020686D4628606068686020892881207A032814BF022003209C4C8DF80C00A08D78
:20511000ADF80A004046FFF77DFF8DF80D0001278DF80E70ADF8289009960BA8FDF7FAF985
:20513000B4F850000026B8F1050F12D0B4F85600B8F1040F08D0B8F1020F0ED1B4F85C0067
:20515000401CA4F85C0008E0401C80B2A4F8560003E0401C80B2A4F850006846FCF79BFAF0
:2051700000B93E460FB03046BDE8F08301460A0901F0010028BF40F00800490928BF40F0C1
:20519000100070477FB506460C4602250DF1010061788DF8005003F0DDFC618803F0DAFC14
:2051B000616803F0E9FCA16803F0E6FC0D22284631466B46FFF787FF00907FBD2DE9FE43FC
:2051D000044600210C22684604F000FDB4F840000B2847D1E66B16F8010B644D85F8200097
:2051F000304603F09FFCB61C8146304603F0A6FC0746301D03F0A2FC8046207A02282877A3
:2052100006D0216805F1140001606668466001E02088A8824846FFF7A9FF6884814514BFDC
:2052300002260026ADF80200B7F57A7F07D3B548B84204D36F623846FFF77EFB00E0022656
:20525000686AB8F57A7F019008D342F21070404504D3C5F82880FDF76FF900E00226A86A6F
:20527000029000E0012602208DF800008DF801606846FFF7A8FB20466946FFF783FFBDE87F
:20529000FE8398B5071C38D0F86B002835D0B7F84030002B31D0027807F13000FDF732F969
:2052B00058B3324C1046401E1FD0801E0DD0C01E23D1012B21D107248DF80040FFF752FB14
:2052D0008DF80100022220460AE0012B15D1B4F854000122401CA4F8540004208DF800009A
:2052F00039466B46FFF7EFFE98BD3846FFF766FFB4F85A00401CA4F85A0098BDC9090020BE
:2053100070B51A4C06460E220D4604F12C0004F083F8687B20B9022020776B88A38208E01E
:205330000320291D20770A6804F114031A6049685960606AFFF700FB30462946FFF765FB05
:205350002078012807D0687B28B9288869882A1D0023FDF7F6F870BD08B50020FFF7ECFA0E
:20537000FFF782FB08BDFFF71DBDC046C80900201CB5914C00210C2204F12000009104F087
:2053900025FC608C40F0190060848C48606241F27070A062FCF722FBA060FDF703FBFCF723
:2053B0004BFBA068FFF764FC6846FFF7C1FC0098FDF751FBE0200E21FCF734FBFFF7D3FFE7
:2053D0000121A01C03F000FC1CBD08B5FFF741FD014679488181C181AAA000F08CFE08BD51
:2053F0002DE9F8430646708941082CBF0F240B24810824BFA41CA4B2C10824BF241DA4B2AC
:20541000010924BF2434A4B2400924BF0834A4B22046FFF725FD5FEA000871D00527711C5A
:2054300000F8017B0A680260496841607189083003F090FB71894A0806D3B18903F08AFB3B
:20545000F18903F087FB71898A0803D3318A03F081FB7189CA0806D3718A03F07BFBB18A7D
:2054700003F078FB7189AE4DB5F804900A0936D3F18A03F06FFB318B03F06CFB718B03F087
:2054900069FBB18B03F066FBF18B03F063FB318C03F060FB718C03F05DFBB18C03F05AFB63
:2054B000F18C03F057FB318D03F054FB718D03F051FBB18D03F04EFBF18D03F04BFB318EED
:2054D00003F048FB718E03F045FBB18E03F042FB494603F03FFB297803F03CFB7189490912
:2054F00005D3F16B03F048FB316C03F045FB8D49224638464346FFF7E6FD4046FFF7CCFC00
:20551000BDE8F883407E050010B500214422ADF1480D01A804F05AFBF2206946FCF7CCFAED
:20553000254CBDF800006946A4F86800F320FCF7C3FABDF800000DF10501A4F86A00E220FE
:20555000FCF793F9608CADF80E00410806D304F10C01096804A80160BDF80E00810805D357
:20557000211D098805A80180BDF80E00C10807D304F1100109680DF116000160BDF80E0009
:20559000010908D30DF11A0004F14C01242203F043FFBDF80E00400903D3A06A1190636AE7
:2055B0001093FFF75BFC01A8FFF71AFF3BA000F0A2FD12B010BDC046C809002020BF020062
:2055D00010B5594C6088ADF1280D41083FD33CA000F091FD04A86946FFF7EEFB01282FD17E
:2055F00007A8FFF71AFC012808D1BDF81C006084089B63620998A062FCF79EFF9DF80D00EC
:20561000012805D002202077BDF80210A1820AE0032001A920770A6804F114031A604968E2
:205630005960BDF80210BDF8000001AA0023FCF788FF04A86946FDF747FA0120207001E0BB
:20565000FDF784FAA01C012103F0B3FA608880080DD326A000F04FFD606AFFF76DF9FFF7DC
:20567000B4FEFFF751FFA01C022103F0A2FAFDF7E5FBFFF750FC608808B9FCF75EFE0AB0EC
:2056900010BDC0460D0A49742054656D70657261747572652069733A202564000D0A5365F7
:2056B0006E7420746865206461746120746F2074686520636F6C6C6563746F7200C046C0CC
:2056D0000D0A53746172742074686520636F6C6C6563746F722064657669636520696E20A6
:2056F000746865206E6574776F726B000D0A49742069732074696D6520746F2073656E64C3
:2057100020746865206E6578742073656E736F722064617461206D65737361676500C046BA
:20573000F4070020DC090020C80900202DE9F04FD14D4FF00108ADF11C0D05F141020590F8
:20575000CB48C2F8CF8F0768002FFCD0CB4844380390C0210160C748011D0968890805D23A
:205770000168D94B090C41F0F00119700021001FC2F8FF1FD54ED64CC7680190B80E12D205
:20579000780E10D3802086F81B024FF6D801A6F85C1286F80B0204F075FBA146D9F8CC00B8
:2057B000C0F3042004E0A14659F8040CC0F3046006F0FFF900EB2770401C162805DA10F1D5
:2057D0000A0FB8BF6FF0090000E0152000F01F0040F4F850A6F864022868800828BF47F0E7
:2057F0004067CD49F80EBD0E80F0010000F00100086085F0010000F001008860384604F080
:2058100051FC00220446154606F0EEF900B945462A46C24D2B68002BFCD0C64800F1080A29
:20583000CAF81040C5F800800AB106F0E3F905F08BFFC149091F0291496880B24C68009011
:20585000B74840F2FF3200232C214038A04706F081F9044606F0C8F94FF0000B00B9C3468A
:205870002B68002BFCD0CAF81440BBF1000FC5F8008001D006F0BEF905F058FF044606F076
:20589000B3F94FF0000B00B9C3462B68002BFCD0CAF80C40BBF1000FC5F8008001D006F0E9
:2058B000A9F906F00FF8044606F09EF94FF0000B00B9C3462B68002BFCD0CAF80840BBF116
:2058D000000FC5F8008001D006F094F9059804F0B5FB044606F088F94FF0000B00B9C3460A
:2058F0002B68002BFCD0CAF80440BBF1000FC5F8008001D006F07EF90599084605F0CAFF28
:20591000874C400040F0200084F80901084605F0CDFF40F0100084F80901084605F084FEF4
:20593000049006F061F94FF0000B00B9C3462B68002BFCD00498CAF82000BBF1000FC5F8E7
:20595000008001D006F056F90599084605F0C6FF400040F0600084F80C01084605F0CAFF96
:20597000C00040F0800084F80101084605F0CEFF800040F47C40A4F89C01084605F04CFDE4
:20599000049006F031F94FF0000B00B9C3462B68002BFCD00498CAF80000BBF1000FC5F8D7
:2059B000008001D006F026F94FF480002060D9F8580040F21E216FF31F40814215D9D9F851
:2059D0000000D9F80030C0F30365C3F3034005B16D1E072805D006280EBF0720801C00F0AF
:2059F0000F0045EA001006F8080CC7F38140401E02D0401E28D024E0D9F8D000810C20D212
:205A10004FF480412160D6F80210420AC0F3033502F0800221F08F010A4345EA0201C6F888
:205A30000210D6F80120031263F30302C6F80120316800F0E70521F0E70145EA01003060D8
:205A500002E04FF0004020604FF40070206406F079F840F0300084F8C800C7F38150002860
:205A700038D0401E0CD0401E28D0022127E0C04694022243AC3F00500000094044600C40DF
:205A9000404605F033FC05460420294604F0D6FC042005F02BFC8542FAD10198056825F0BB
:205AB0007F4005F0A7FB02984069036807214FF06022280E98474FF48060206003210420E9
:205AD00004F0BCFC0DE0C046566208400A600840BC1200500420414604F0B0FC114805F0AE
:205AF00089FBD9F8B0001049104E47F6180700F03F0084F8CB0F029D0F8030682868C1687A
:205B10000220884740210398094C016007B0C4F80080BDE8F08FC0460000204300800C4086
:205B300040A00C40BD37860070B00C402C2009409404604200A00C40A40100102DE9FE4F70
:205B5000B94C0F460646F80B80F02081B80880F0BA80DFF884B2DFF890A2DFF89882DFF833
:205B70009C92B80F6DD29B480678002E4DD138094DD39B49994A58460024012504700E782A
:205B9000157016B1204605F07FFD964806F026F896492246504606F0A0F89548DFF868A2B7
:205BB000017801291DD141460E78D6B9924D286888B105F085FF4A469249914E13682D682D
:205BD0000A68C01A000B82183060B2EBC51F28BF0C6007D20A608E484FF0005105F042FF81
:205BF0002CE005705046448040F609010180417B01F0F00141F001014173017B01F0F00116
:205C100001734460814E306018E0390914D2B80BC0F0D9802046001D06F06AF8061C08D03C
:205C3000706830B17468F068B6F9101082A20CCAA04727F40057C6E00021017027F00807E7
:205C5000C1E074495046002206F047F8F06840F6C411814218D1042005F048FBA0B14D469A
:205C7000286888B16C4C206870B905F029FF29682060814226BF401A401E401A000BF0609F
:205C9000F06800F58D70F0604446207858B10220ADF80000684605F0D7FC00215F4E217093
:205CB000BDF8080030805E495E4B584601240022047008781A70401C0870192005F062FF51
:205CD00027F000577FE004F10C0A504606F010F8061C52D005F0DAF97368326A0025356209
:205CF000DBB196F8243042F002024FF0000990465B1E07D05B1E03D09B1E06D150A002E0D4
:205D100051A000E052A090E800037268F068B6F910104B4694464246E047B4F91200401CFF
:205D30006FF31F306082504605F020FEF068B0F98C10B4F9122091421FD13C4909780129A8
:205D50001BD090F88E409CB904688CB1384909680968B1F1FF3F10D0364909686830B4FB9A
:205D7000F1F106F025F8F068683006F01DF804E080F88E50284604F0FDFA504605F0B8FF4E
:205D900027F0020708B147F002071CE006F048F801462046083005F0ABFF0646346A0846EC
:205DB00006F03AF8A0080CD25EB17068316AA143316230B17568F068B6F9101000232246BC
:205DD000A84727F480471FB11148394605F04AFEBDE8FE8F0B1C0020071C0020051C002000
:205DF0000E1C00203D9D0000601B00205DB50000091C0020041C0020E41B0020E81B0020FB
:205E1000F01B0020E01B0020AC1B0020001004403C1A00208D800000EC1B0020E01A00202D
:205E30000F1C0020061C0020981B0020300D0020F41B0020640D00000000000020000000D5
:205E5000000000000000001000000000000000400000000000000020B64910B51B22ADF123
:205E7000400D09A803F0D8FA684605F0AFFD4FF41651069100208DF816008DF815008DF8E5
:205E900014008DF81700694605F0CCF9AA4C206018B9A0A005F084FF206809A91B2205F06E
:205EB000EEFE10B010BD08B540B9A34800688DF800100122694605F0E2FE08BD0268117064
:205ED0000168491C016008BD2DE9F84317460C46814600254FF02008002F14DD284607E0F6
:205EF0004846FFF7E0FF6D1C641C19E0401C491C0A78002AFAD18742CCBF3F1A2F1C98085D
:205F100028BF4FF0300858080AD2002F08DD3E460027751948464146FFF7C5FF761EF9D15D
:205F300021780029DCD1002F06DD7D1948464146FFF7B9FF7F1EF9D12846BDE8F8832DE96C
:205F5000FE431D46DDF82C800A9F0C9B8146081C0DD1302000268DF8000069463A46434640
:205F70008DF801604846FFF7AFFFBDE8FE83002634462DB10A2A03D1002844BF4042012679
:205F90000DF10B052C7078B190FBF2F15143411A0A29A4BF19443A3990FBF2F0002801F1D4
:205FB000300105F8011DEFD16EB117B15FEA980003D22D2005F8010D05E048462D21FFF719
:205FD00072FF7F1E0124484629463A464346FFF77BFF2018BDE8FE832DE9F04F00256127A8
:205FF00091460C468346ADF1140DAA46B8466FE0252968D048462D2912BF534614F8011FA3
:2060100001235246302959D0302960DB3A290ADA560006EBC2068A1914F8011F3029A2F18D
:206030003002F3DA53E073293CD0642933D078292CD0582918D0752911D0632947D1C01CE1
:2060500020F00300001D814610F8040C8DF80DA003A98DF80C005846FFF736FF14E0009263
:2060700001930A22029704E0009201934121029110225346C61C26F00306361D56F8041C2B
:206090005846FFF75CFFB146451920E000920193CDF80880ECE7009201930A220123CDF82B
:2060B0000880E7E7C01C20F00300001D814650F8040C002814BF011C1CA1CCE714F8011F9B
:2060D00043F002039EE75846FFF7EDFE6D1C641C217829B12529F6D114F8011F002987D136
:2060F000BBF1000F03D0DBF8001050460870284605B0BDE8F08F0FB480B502AF3968002060
:2061100027F00302121DFFF767FFBDE8804004B07047C0464572726F72206F70656E696E3F
:206130006720746865205541525400C0286E756C6C2900C0980C0000001C00202DE9F04F6A
:206150000128ADF1140D40F0F280DFF81492D9F8DC00012840F0E9800220C9F8DC0005F005
:2061700063FE0290012004F003FE20B101210646C9F8DC10D5E005F00FFE03906E484FF0DB
:206190000008C0F80080012005F0B0F8012818BFCDF8008004D1404604F0A2FB012000900F
:2061B00066486E4CC0F800801934D4F8FF0F112005F032FD00280CBF46460126102005F0E8
:2061D0002BFD08B146F002060F2005F025FD08B146F004060B2005F01FFD30B1584800682C
:2061F0005849006B0246088890470A2005F014FD0028404618BF01204FF0805B0BF5DC7593
:2062100028B128685049006B0246088890474F480127076028688069014646F02000884747
:206230004B48076005F0F2FC00F001010191400815D2484805F0B6FC8246BAF1040FF8D039
:20625000BAF1010F06D1DBF8D801406802464148032190474049086820F003000860404682
:2062700000F080F82868D4F8FF1F806B8047019801280ED0BAF1010F06D1DBF8D8014068F4
:2062900002463448394690473349086840F0030008602A48076028684069014630468847AF
:2062B0000B2005F0B9FC28B128682649C06A0246088890470A2005F0AFFC28B128682249AA
:2062D000C06A024608889047204807600322C9F8DC201F4BC3F800802868406B0146304687
:2062F00088470128F8D1042004F042FD124807601A48D4F8FF1F01688909FCD300980128DE
:2063100002D1384604F0ECFA05F074FC082004F02FFD06460398C9F8DC7005F039FD04F082
:2063300079F9029805F074FD02E0042600E00126304605B0BDE8F08F0C400940000222437D
:20635000B8010010260B0000220B0000282008608001044300400340242208401410094010
:20637000E80600202DE9F84FDFF80CB20746ABF13500DFF8F8910068800880F0E78005F0D3
:2063900023F8054680480830D0F8008000244FEA28725FEA985002F101020AD2C5F13E0051
:2063B00015F10A0F4FEAE000D8BF08208242B8BF021C6B4B5FEA98600CD25FEA586009D3CB
:2063D0001868C0F3042005F0F4FB06461868C0F304600BE053F8D00CC0F3046005F0E9FB8D
:2063F0000646A3F513700068C0F3044005F0E1FB96198246162E05DA16F10A0FB8BF6FF066
:20641000090600E01526574A574806F01F0141F4F8511180006810F0030F18BF0124C0089F
:2064300028BF44F002040FB144F00404494691F90700281A052804DA8879A04208BF888808
:2064500064D0DFF82CC10F2DA5F10F0225DB02EB02124FEA222EBEF1070F88BF4FF0070E67
:206470007746062F88BF06275CF82700042303EB87036746FB581B1A03F0FF07E00824BF93
:20649000C3F307200744A00824BFC3F307400744600828BF07EB136701E00027BE465CF8D6
:2064B0002EC0E0080CF0FF0324BFCCF307200344A00824BFCCF307400344600828BF03EBD3
:2064D0001C63A2EB0E22BFB25743BAEB060007F1800703EB1723D8BF0120342208F0FF0707
:2064F00042437A43B2FBF3F04FF6FF72824238BF101C802D80B2888005DA15F1800FB8BF4B
:206510006FF07F0500E07F25CD718C71194A12681F280A604FF0000208D340F2FF1181421A
:2065300006D24008521C8142FBD301E01F208880124F0F38000942EAC00247EA0200CBF86F
:20655000FB0F0026CBF8FF6FBDE8F88F0D4F0C4E494608203760891D0870BDE8F88FC0464A
:20657000881300506E62084024220840D41B00209C130050082009403500094000E7A48072
:2065900030100940FDFDA400AC3F00502DE9F84F7C4C204605F0ACFB15460E46009005F02E
:2065B0003FFC05F0010780463046B0F1FF3F0DD1606820B9B4F91200401C00B202E0606882
:2065D000B0F910007049002209310A706F4E6268811000EB517121F00701083E401AC10024
:2065F00001EB40117618B24200F086800098DFF874B1864248D000284FF003073ED04FF0A4
:206610000009CA46006886421FD1584605F060F800980168C0F800A00091404605F0FCFBEA
:20663000A8080FD2009991F8240040F0040081F82400684605F09AF9014604F10C0004F030
:2066500075FD01E04FF001098327B9F1010F03D00098006800900EE0009991F8240040F063
:20667000040081F82400684605F080F9014604F10C0004F05BFD00980028C3D1832F23D0C0
:20669000404605F0C9FB1FE0584605F021F8A8083ABF2068006800202060404605F0BCFB95
:2066B0000C34009991F8240040F0040081F82400684605F05BF90146204604F037FD00980F
:2066D00008B1A808EDD283272748294A007870B9264805F083FA0221104605F0C3F92548DE
:2066F000007801283BD0244805F078FA37E01046022105F0B7F932E0A80803D32068009026
:206710000023236096F824100120B840084386F8240005F041FB002F064614BF17481848BD
:2067300004F092FF404605F077FBA80813D3009888B10C34014691F8240040F0040081F88F
:206750002400684605F012F90146204604F0EEFC00980028EED1304605F01AFB83273846A5
:20677000BDE8F88FA41A0020061C00204D5B00003C1A0020071C0020698A00000100020462
:2067900001000104981B0020E01A0020F81500202DE9F0411C4615468C4208BF854282BF28
:2067B00000230022E5E0002C08BF002D0AD100290EBF00286FF000006FF0000100F0E1F81E
:2067D000BDE8F0815FF000085FF0000E002C08BF8D429CBF2C1C0025070C47EA01470E0CAF
:2067F000B44208BFBD429EBF5FEA044444EA15445FEA0545070A47EA01670E0AB44208BF46
:20681000BD429EBF5FEA042444EA15645FEA0525470847EAC1774E08B44208BFBD4200F2C5
:206830009380870847EA81778E08B44208BFBD427CD8C70847EA4177CE08B44208BFBD428D
:2068500066D8070947EA01770E09B44208BFBD4250D8470947EAC1674E09B44208BFBD427A
:206870003AD8870947EA81678E09B44208BFBD4224D8C70947EA4167CE09B44208BFBD42C2
:206890000DD8E60146EA5566EF01B14208BFB84201D3C01BB14158EB08085EEB0E0EA6018D
:2068B00046EA95664FEA8517B14208BFB84201D3C01BB14158EB08084EEB0E0E660146EA34
:2068D000D5666F01B14208BFB84201D3C01BB14158EB08084EEB0E0E260146EA15762F01EE
:2068F000B14208BFB84201D3C01BB14158EB08085EEB0E0EE60046EA5576EF00B14208BFF1
:20691000B84201D3C01BB14158EB08084EEB0E0EA60046EA9576AF00B14208BFB84201D30C
:20693000C01BB14158EB08084EEB0E0E660046EAD5766F00B14208BFB84201D3C01BB1412D
:2069500058EB08085EEB0E0EA14208BFA84201D3401BA14158EB08085EEB0E0EA34208BF66
:20697000AA423EBF2D0A45EA0465240A89D3734642461E4617460B46024631463846BDE890
:20699000F08170472DE9F843814605F02DF9002100B90121724E30680028FCD0734D01245F
:2069B0002D1DEF6A346009B105F024F9DFF8B481C7F3072008F1BC01086005F015F9002195
:2069D00000B9214630680028FCD02F68346009B105F010F9C7F38440C8F8C00005F004F928
